:0400000061EF00F0BC
:100008004D82FACF01F0FBCF02F0E9CF03F0EACF3F
:1000180004F0E1CF05F0E2CF06F0D9CF07F0DACF50
:1000280008F0F3CF09F0F4CF0AF0F6CF0BF0F7CFD2
:100038000CF0F8CF0DF0F5CF0EF04DC00FF04EC01C
:1000480010F04FC011F050C012F0F294FC0ED76EB1
:10005800180ED66E010E4226000E43224422452277
:10006800010E0001C327000EC423C523C62312C0F6
:1000780050F011C04FF010C04EF00FC04DF00EC040
:10008800F5FF0DC0F8FF0CC0F7FF0BC0F6FF0AC064
:10009800F4FF09C0F3FF08C0DAFF07C0D9FF06C0A4
:1000A800E2FF05C0E1FF04C0EAFF03C0E9FF02C0A8
:0E00B800FBFF01C0FAFF4D921100BAEF0CF0F1
:100600000043616C6962726174696F6E0050535689
:10061000657273696F6E00456E5573656400566F41
:100620006C7473005761747473004C454442004409
:10063000617461005265616400436F6E6600416DD4
:1006400070730032323200333333003434340045B7
:0F0650004E44004F666600536574004F6E000005
:10066000000E0001806F7CC01EF07DC01FF04F0E99
:10067000206E060E216E14EC0EF0E806D8A404D00D
:10068000010E0001806F4BD17CC01EF07DC01FF0B9
:10069000570E206E060E216E14EC0EF0E806D8A45C
:1006A00038D00A0E00017C251E6E000E7D211F6EC3
:1006B000010E206E060E216E14EC0EF0E806D8B482
:1006C0002ED10A0E00017C251E6E000E7D211F6EAC
:1006D000170E206E060E216E14EC0EF0E806D8A45C
:1006E0001ED1140E00017C251F6E000E7D21206E90
:1006F000C8EC07F01FC0C7F020C0C8F021C0C9F087
:1007000022C0CAF07EC039F07FC03AF057EC0DF03D
:1007100006D17CC01EF07DC01FF0340E206E060E88
:10072000216E14EC0EF0E806D8B4F9D07CC01EF0AF
:100730007DC01FF02F0E206E060E216E14EC0EF001
:10074000E806D8A456D00A0E00017C251E6E000EC5
:100750007D211F6E2A0E206E060E216E14EC0EF007
:10076000E806D8A4DCD0140E00017C251E6E000E15
:100770007D211F6E5B0E206E060E216E14EC0EF0B6
:10078000E806D8A413D07EC02FF07FC030F0570EFB
:10079000316E060E326E2A0E336E060E346E530E16
:1007A000356E060E366EA9EC08F0B9D0140E0001B5
:1007B0007C251E6E000E7D211F6E530E206E060ED0
:1007C000216E14EC0EF0E806D8A4A9D07EC02FF05C
:1007D0007FC030F0570E316E060E326E2A0E336E29
:1007E000060E346E5B0E356E060E366EA9EC08F002
:1007F00096D07CC01EF07DC01FF0390E206E060E14
:10080000216E14EC0EF0E806D8A489D00A0E00017F
:100810007C251E6E000E7D211F6E2A0E206E060E98
:10082000216E14EC0EF0E806D8A407D07EC035F097
:100830007FC036F0BEEC0EF072D00A0E00017C25AF
:100840001E6E000E7D211F6E240E206E060E216E80
:1008500014EC0EF0E806D8A407D07EC035F07FC0B7
:1008600036F0BEEC0EF05BD00A0E00017C251E6E49
:10087000000E7D211F6E170E206E060E216E14ECE9
:100880000EF0E806D8A407D07EC035F07FC036F061
:10089000BEEC0EF044D00A0E00017C251E6E000E48
:1008A0007D211F6E1E0E206E060E216E14EC0EF0C2
:1008B000E806D8A407D07EC035F07FC036F0BEEC85
:1008C0000EF02DD00A0E00017C251E6E000E7D213B
:1008D0001F6E3E0E206E060E216E14EC0EF0E80622
:1008E000D8A407D07EC035F07FC036F0BEEC0EF045
:1008F00016D00A0E00017C251E6E000E7D211F6E93
:100900000D0E206E060E216E14EC0EF0E806D8A433
:1009100006D07EC035F07FC036F0BEEC0EF0000190
:100920008051120082B436D04050D8A435D0010E88
:10093000406E000E486E42C049F043C04AF044C0C9
:100940004BF045C04CF0000E426E000E436E000EA0
:10095000446E000E456EE00E136ED40E146E0E0E35
:10096000156E000E166E49C017F04AC018F04BC045
:1009700019F04CC01AF059EC0BF013C0CBF014C0B6
:10098000CCF015C0CDF016C0CEF0000E476E010EB3
:10099000466E02D0000E406E4850D8A450D042504F
:1009A000495C43504A5844504B5845504C58D8B075
:1009B00046D046C013F047C014F0156A166AE80E18
:1009C000176E030E186E000E196E000E1A6E8FEC65
:1009D0000CF04250135C4350145844501558455085
:1009E0001658D8B02CD0475021E15A0E465CD8B0EA
:1009F0001DD0464A472AE00E136ED40E146E0E0E1A
:100A0000156E000E166E42C017F043C018F044C0B9
:100A100019F045C01AF059EC0BF013C0CBF014C01C
:100A2000CCF015C0CDF016C0CEF009D0000E0001FC
:100A3000CB6F000ECC6F000ECD6F000ECE6F480452
:100A4000D8A409D0000E0001CB6F000ECC6F000EB1
:100A5000CD6F000ECE6F80B230D03F50D8A41200C0
:100A6000010E3F6E800E0001BF27970EC023060EB9
:100A7000C123000EC2230ED0010EC727000EC823CB
:100A8000C923CA23A00EBF5F860EC05B010EC15BE7
:100A9000000EC25BC251F0E1A10EBF5D860EC059CF
:100AA000010EC159D8B0E8D7000EC36F000EC46F55
:100AB000000EC56F000EC66F1200000E3F6E1200D2
:100AC000000E236E000E226E000E216E000E206EB0
:100AD00021BE08D0215005E1050E205CD8B082D09F
:100AE00001D080D020C013F021C014F0000E166E8B
:100AF0000A0E156E53EC0EF013501924D96E1450D3
:100B00001A20DA6E000EDF6E204A212A21BEEAD7B3
:100B1000215068E1E1D7000E236E222A040E2264E0
:100B20005AD0040E226E57D020EE29F01B50D92641
:100B30001C50DA22DF501D6E1D50010DF3501B2496
:100B4000D96EF4501C20DA6E22500A0D19C01EF026
:100B50001AC01FF0F3501E26F4501F222350010D1F
:100B6000F3501E24E16EF4501F20E26EDFCFE7FF4A
:100B7000232A090E236402D0090E236E22500A0D87
:100B800019C01DF01AC01EF0F3501D26F4501E228D
:100B90002350010DF3501D24D96EF4501E20DA6E3F
:100BA000000EDF6E18D020EE29F01B50D9261C5005
:100BB000DA22DF501D6E1D50010DF3501B24D96E3B
:100BC000F4501C20DA6EDF50210AD8B404D01A0A7F
:100BD000D8B4A1D7A9D720EE29F01B50D9261C5094
:100BE000DA22DF2A20EE29F01B50D9261C50DA2207
:100BF000DF501D6E1D50010DF3501B24D96EF450B3
:100C00001C20DA6E2A0EDE18D8B4120020EE29F06D
:100C10001B50D9261C50DA22280EDF60120020EE6D
:100C200028F01B50D9261C50DA2210EE29F01B5058
:100C3000E1261C50E222DE50E618D8B41200B3D7E9
:100C4000000E0001716F000E706F000E736F000ECA
:100C5000726F000E776F000E766F000E746F20EECD
:100C600029F02050D9262150DA22010EDF6E63D000
:100C700020EE29F02050D9262150DA22DF50226EB2
:100C80002250010DF3502024D96EF4502120DA6E49
:100C9000DF50786F20EE29F02050D9262150DA223B
:100CA000DF2A7451D8B40BD0600E7625D96E000EB1
:100CB0007721DA6E78C0DFFF764B772B3CD020EEC1
:100CC00029F02050D9262150DA22DF50226E2250FE
:100CD000010DF3502024D96EF4502120DA6E240E39
:100CE000DE18D8A424D020EE29F02050D926215097
:100CF000DA22DF50226E2250010DF3502024D96EEB
:100D0000F4502120DA6E000EDF6E010E746F600E5B
:100D10007625D96E000E7721DA6E000EDF6E20EE9A
:100D200029F02050D9262150DA22DF2A04D0785128
:100D30007027000E71232A0E7819D8A499D7000EB7
:100D4000756F600E196E000E1A6E42EC08F019C035
:100D500072F01AC073F000017251701906E17351FC
:100D60007119D8A402D0010E756F75511200000ED2
:100D70001D6E000E1C6E000E1B6E000E1A6E35D01E
:100D80001C501324D96E1D501420DA6E1C501524EB
:100D9000186E1D501620196E18C0F6FF19C0F7FF07
:100DA000DE500900F55CD8B005D0000E1B6E010EB8
:100DB0001A6E19D01C501324D96E1D501420DA6EEF
:100DC000DF50176E1C501524186E1D501620196E1A
:100DD00018C0F6FF19C0F7FF0800F550175CD8B02F
:100DE00002D01A681B681C4A1D2A1C501324D96E95
:100DF0001D501420DA6EDF50D8B413D01C501524C7
:100E0000176E1D501620186E17C0F6FF18C0F7FF9A
:100E10000800F5500009D8B404D01A501B10D8B4FB
:100E2000AFD71C501324D96E1D501420DA6EDF503A
:100E3000D8A412D01C501524176E1D501620186E01
:100E400017C0F6FF18C0F7FF0800F5500009D8B426
:100E500003D01A681B681CD01C501324D96E1D5077
:100E60001420DA6EDF50D8B413D01C501524176E3E
:100E70001D501620186E17C0F6FF18C0F7FF0800A7
:100E8000F5500009D8A404D0000E1B6E010E1A6E96
:100E90001AC013F01BC014F0120022C028F023C0A7
:100EA00029F024C02AF025C02BF028C013F029C057
:100EB00014F02AC015F02BC016F026C017F027C07A
:100EC00018F0000E18BEFF0E196E1A6E59EC0BF0DA
:100ED00013C028F014C029F015C02AF016C02BF05A
:100EE000204A212A285029102A102B10D8A4DDD7F7
:100EF00020C0D9FF21C0DAFF000EDF6E2006D8A087
:100F0000210622C013F023C014F024C015F025C020
:100F100016F026C017F027C018F0000E18BEFF0EFE
:100F2000196E1A6ED0EC0BF013502C6E22C013F019
:100F300023C014F024C015F025C016F026C017F009
:100F400027C018F0000E18BEFF0E196E1A6E59EC6D
:100F50000BF013C022F014C023F015C024F016C00B
:100F600025F0090E2C6402D0070E2C26300E2C26FC
:100F700020C0D9FF21C0DAFF2CC0DFFF2006D8A097
:100F800021062250231024102510D8B41200B9D7FE
:100F90001FC0D9FF20C0DAFFDF502C6E1F4A202A65
:100FA000200E2C18D8B4F4D7090E2C18D8B4F0D7CA
:100FB000000E286E000E296E000E2A6E000E2B6E9B
:100FC000000E276E2D0E2C18D8A402D0272A27D069
:100FD0002B0E2C18D8A42BD022D028C013F029C057
:100FE00014F02AC015F02BC016F00A0E176E000E72
:100FF000186E000E196E000E1A6E8FEC0CF02CC0DD
:1010000023F0D00E232623501324286E000E142024
:10101000296E000E15202A6E000E16202B6E1FC0A2
:10102000D9FF20C0DAFFDF502C6E1F4A202A2C5037
:1010300097EC0EF0D8B0D1D72750D8B41AD028C02A
:1010400023F029C024F02AC025F02BC026F0231E4F
:10105000241E251E261E232A000E24222522262297
:1010600023C01FF024C020F025C021F026C022F0AC
:10107000120028C01FF029C020F02AC021F02BC088
:1010800022F0120002D0194A1A2A19C0D9FF1AC038
:10109000DAFF200EDE18D8B4F6D719C0D9FF1AC06F
:1010A000DAFF090EDE18D8B4EED7000E1F6E000E60
:1010B0001E6E000E1D6E19C0D9FF1AC0DAFF2D0E6C
:1010C000DE18D8A402D01D2A24D019C0D9FF1AC016
:1010D000DAFF2B0EDE18D8A41ED01BD01EC013F0D2
:1010E0001FC014F0000E166E0A0E156E53EC0EF0B3
:1010F00019C0D9FF1AC0DAFFDF501B6E1C6A1350EB
:101100001B2614501C22D00E1B241E6EFF0E1C200A
:101110001F6E194A1A2A19C0D9FF1AC0DAFFDF5008
:1011200097EC0EF0D8B0DAD71D50D8B40DD01EC051
:101130001BF01FC01CF01B1E1C1E1B4A1C2A1BC0C0
:1011400019F01CC01AF012001EC019F01FC01AF0CE
:1011500012002FC013F030C014F0230E156E34ECC3
:101160000CF02FC013F030C014F0210E156E34ECCB
:101170000CF0000E386E000E376E2FC017F030C026
:1011800018F031C019F032C01AF0C7EC0AF017504D
:101190003726185038222FC013F030C014F03B0E01
:1011A000156E34EC0CF013503726145038222FC033
:1011B00017F030C018F033C019F034C01AF0C7EC83
:1011C0000AF017503726185038222FC013F030C0BD
:1011D00014F03B0E156E34EC0CF0135037261450FF
:1011E00038222FC017F030C018F035C019F036C0C3
:1011F0001AF0C7EC0AF017503726185038222FC0C3
:101200002BF030C02CF037C02DF038C02EF003EC9E
:101210000CF01200C9EC0EF0000E0001BC6F000EC5
:10122000BB6FBCBF06D0BC5116E10A0EBB5DD8B087
:1012300012D08A88000E146E0A0E136EE2EC0DF0C6
:101240008A98000E146E0A0E136EE2EC0DF0000187
:10125000BB4BBC2BE6D7A6EC0EF0010ECAEC09F096
:10126000000E0001BA6F000ECAEC09F066EC0EF039
:1012700092EC04F00001BA51D8A4F5D7C651C511BB
:1012800006E1E90EC35D030EC459D8A0ECD79AEC71
:101290000BF0010E0001BA6F000EBE6F000EBD6FA5
:1012A000BEBF06D0BE51DFE10A0EBD5DD8B0DBD7B0
:1012B0008A88000E146E030E136EE2EC0DF08A980D
:1012C000000E146E050E136EE2EC0DF00001BD4B26
:1012D000BE2BE6D7020E3D18D8A402D0000E3D6EFC
:1012E000190E136E000E146E2CEC0EF0E806D8A446
:1012F0004FD0210E1918D8A415D03D04D8B412D05F
:10130000010E3D6E20EE29F01650D9261750DA2234
:10131000000EDF6E20EE28F01650D9261750DA2284
:10132000000EDF6E3D04D8A42AD020EE28F016501F
:10133000D9261750DA22DF50186E1850010DF350DD
:101340001624D96EF4501720DA6E19C0DFFF20EE94
:1013500028F01650D9261750DA22DF2A20EE28F07E
:101360001650D9261750DA22270EDF6408D020EE57
:1013700028F01650D9261750DA22270EDF6E3D04CA
:10138000D8A406D02A0E1918D8A402D0020E3D6E99
:101390003D5012000001B96F0001B905D8A40ED06C
:1013A0007CEC0DF0000E0001FA6F000EFB6FD20E08
:1013B0007C6F000E7D6F78EC0AF01200000E166E46
:1013C000010E176E6AEC09F00001D06F1BD0000E01
:1013D000206E010E216E20EC06F0E806D8A41CD089
:1013E000000E0001816F010E826FD20E836F000E1E
:1013F000846FFBEC0DF0E806D8A40ED0010E0001BE
:10140000D16F0AD0D051000AD8B406D0010AD8B49E
:1014100003D0030AD8B4DBD7D20E156E000E166EB9
:1014200011EC0BF00001B86F81A003D0000ECF6F5C
:101430001200CF51D8A406D0D20E7C6F000E7D6F63
:1014400078EC0AF0010E0001CF6F12001CC020F0F2
:101450001DC021F020C013F021C014F01EC015F0F3
:101460001FC016F0E3EC0CF013C020F014C021F004
:101470001A4A1B2A20502110D8A4ECD71AC0D9FF31
:101480001BC0DAFF000EDF6E1A06D8A01B061CC0B8
:1014900013F01DC014F01EC015F01FC016F0C1ECF3
:1014A0000DF01350226E1CC013F01DC014F01EC0AE
:1014B00015F01FC016F0E3EC0CF013C01CF014C0C4
:1014C0001DF0090E226402D0070E2226300E2226BD
:1014D0001AC0D9FF1BC0DAFF22C0DFFF1A06D8A04E
:1014E0001B061C501D10D8A4D2D71A4A1B2A120062
:1014F0006C9A060E00017E6F300EE82EFED77E2F0E
:10150000FCD700F06C8A6C9E000E3E6E000120EE4F
:1015100029F07C51D9267D51DA22000EDF6E20EEB3
:1015200028F07C51D9267D51DA22000EDF6E3B4A2D
:101530003C2A19D07CC039F07DC03AF040EC0EF066
:1015400012007CC039F07DC03AF032EC0DF0120090
:101550007CC039F07DC03AF057EC0DF0000E3C6EC7
:10156000000E3B6E12003BC07EF03CC07FF00001DD
:101570007F51000AD8A4F2D77E51010AD8B4DAD735
:10158000030AD8B4DED7010AD8B4E2D7E7D7000EF1
:101590001E6E000E1D6E000E206E000E1F6E23D0FC
:1015A00017C013F018C014F01F5019241B6E2050E0
:1015B0001A201C6E1BC0F6FF1CC0F7FFF86A050E50
:1015C000F76403D00800F55005D0F6CFE1FFF7CF60
:1015D000E2FFE750156E34EC0CF013501D2614504A
:1015E0001E221F4A202A1F5019241B6E20501A2029
:1015F0001C6E1BC0F6FF1CC0F7FFF86A050EF764EF
:1016000003D00800F55005D0F6CFE1FFF7CFE2FF99
:10161000E7500009D8A4C4D71DC017F01EC018F0A9
:10162000120020EE28F01550D9261650DA2210EEBE
:1016300029F01550E1261650E222DE50E618D8A413
:1016400006D0010E196E000E78EC0EF030D0000EB0
:10165000196E20EE29F01550D9261650DA22DF50E7
:10166000176E1750010DF3501524D96EF450162043
:10167000DA6EDF5078EC0EF0E806D8A418D020EE31
:1016800029F01550D9261650DA22DF2A20EE29F04B
:101690001550D9261650DA22270EDF6408D020EE26
:1016A00029F01550D9261650DA22000EDF6E195097
:1016B0001200000E1B6E000E1C6E000E1D6E000E42
:1016C0001E6E1750181019101A10D8B42AD0010E17
:1016D0001F6E06D0D8901736183619361A361F2ABC
:1016E0001AAEF8D7D8901B361C361D361E3617504A
:1016F000135C18501458195015581A501658D8A081
:1017000009D01750135E1850145A1950155A1A5010
:10171000165A1B80D8901A321932183217321F2EDF
:10172000E1D71BC013F01CC014F01DC015F01EC083
:1017300016F01200949C949E949A94968B9E8B9A89
:101740008B961A0E186EF80EE82EFED7182EFCD7C0
:1017500000D08B9C1A0E186EF80EE82EFED7182EAD
:10176000FCD700D08B9E8B9A8B961A0E186EF80EB3
:10177000E82EFED7182EFCD700D08B8E8B8A8B8656
:101780001A0E186EF80EE82EFED7182EFCD700D0D1
:101790008B8C000E146E0A0E136EE2EC0DF012002C
:1017A0001750181019101A10D8B424D0010E1B6E3F
:1017B00006D0D8901736183619361A361B2A1AAEA4
:1017C000F8D71750135C18501458195015581A5060
:1017D0001658D8A008D01750135E1850145A195034
:1017E000155A1A50165AD8901A321932183217321E
:1017F0001B2EE7D713C013F014C014F015C015F05A
:1018000016C016F012002BC013F02CC014F03B0EC3
:10181000156E34EC0CF02BC013F02CC014F0240E19
:10182000156E34EC0CF0600E236E000E246E2DC08D
:1018300025F02EC026F0000E286E0A0E276EA0ECB2
:101840000DF02BC017F02CC018F0600E196E000EB2
:101850001A6EC7EC0AF02BC013F02CC014F02A0E3D
:10186000156E34EC0CF0120020EE28F01350D9263F
:101870001450DA22DF50166E1650010DF350132467
:10188000D96EF4501420DA6E15C0DFFF20EE28F078
:101890001350D9261450DA22DF2A20EE28F01350F4
:1018A000D9261450DA22270EDF6408D020EE28F063
:1018B0001350D9261450DA22000EDF6E15C013F033
:1018C000146A12002FC013F030C014F0230E156EEE
:1018D00034EC0CF02FC013F030C014F0210E156E54
:1018E00034EC0CF0000E346E000E336E2FC017F087
:1018F00030C018F031C019F032C01AF0C7EC0AF04D
:1019000017503326185034222FC02BF030C02CF043
:1019100033C02DF034C02EF003EC0CF01200000E9A
:101920001B6E000E1C6E000E1D6E000E1E6E13A0B0
:1019300008D017501B2618501C2219501D221A506F
:101940001E22D8901736183619361A36D890163205
:101950001532143213321350141015101610D8A467
:10196000E6D71BC013F01CC014F01DC015F01EC03C
:1019700016F01200A40EF66E1D0EF76E000EF86E35
:1019800000EE46F010EE07F00900F5CFEEFFE5504F
:10199000E150FAE101EE00F02A0EEE6AE806FDE100
:1019A00000EEBFF03D0EEE6AE806FDE100EE3BF012
:1019B0000B0EEE6AE806FDE14D904D92000EF86EBA
:1019C00000010AEF09F0000E196E000E186E155096
:1019D0001610D8B41CD0010E176E04D0D89015364E
:1019E0001636172A16AEFAD7D8901836193615506B
:1019F000135C16501458D8A005D01550135E16501D
:101A0000145A1880D89016321532172EEDD718C0F8
:101A100013F019C014F01200000EF26E000EF16EF9
:101A2000000EF06ED09E000E9E6E000EA16E000E97
:101A3000A46E000E7B6E000E7E6E000E9D6E000E7C
:101A4000A06E000EA36E000E7A6E000E7D6E000E6C
:101A50009F6E000EA26E000EA56E000E7C6E000E34
:101A60007F6E1200700E206E000E216ECBC022F031
:101A7000CCC023F0CDC024F0CEC025F0000E276EE0
:101A80000A0E266E4DEC07F039C02FF03AC030F048
:101A9000570E316E060E326E240E336E060E346E05
:101AA000700E356E000E366EA9EC08F01200700E46
:101AB000206E000E216EC7C022F0C8C023F0C9C03E
:101AC00024F0CAC025F0000E276E0A0E266E4DECDB
:101AD00007F039C02FF03AC030F0570E316E060EC5
:101AE000326E170E336E060E346E700E356E000EAB
:101AF000366EA9EC08F01200929092829496949A15
:101B0000949C949E0F0138938B8C8B868B8A8B8E42
:101B10006C9A39913993399539979380938293844C
:101B200093966D9E6D8C6C9E6C9C6C9A6C886C50C0
:101B3000F00B04096C6E000E696E69986C8A1200D5
:101B400023C029F024C02AF026AE0CD023C0D9FF30
:101B500024C0DAFF2D0EDF6E234A242A256C261EB0
:101B6000D8B0262A23C01AF024C01BF025C01CF0D0
:101B700026C01DF027C01EF028C01FF026EC0AF07A
:101B8000120015501610D8B418D0010E176E04D0DC
:101B9000D89015361636172A16AEFAD71550135C9C
:101BA00016501458D8A004D01550135E1650145A6D
:101BB000D89016321532172EF1D713C013F014C077
:101BC00014F01200000E176E000E166E09D0340EBF
:101BD000156EF20EE82EFED7152EFCD7164A172AE0
:101BE0001350165C1750800A156E1450800A155851
:101BF000D8B01200ECD7850E196E000E1A6E81C097
:101C00001BF082C01CF060EC05F0850E00017C6FBB
:101C1000000E7D6F83C07EF084C07FF030EC03F057
:101C20000001B76FB75112001EC013F01FC014F0AF
:101C300020C015F021C016F0B7EC06F013C022F05A
:101C400014C023F022502310D8A402D0010E01D0DA
:101C5000000E246E24501200000E156E6DA00CD0E4
:101C600013C0D9FF14C0DAFF6FCFDFFF010E156E6E
:101C70006C9E000E3E6E02D0000E156E15501200C6
:101C800039C02FF03AC030F0570E316E060E326E6A
:101C90000D0E336E060E346E4B0E356E060E366E1E
:101CA000A9EC08F0120013501502F3CF17F0F4CF8F
:101CB00018F013501602F350182614501502F35062
:101CC000182617C013F018C014F0120082B40CD0FC
:101CD00089804150D8A41200010E416E81A802D023
:101CE0008A9812008A8812008990000E416E1200B4
:101CF000136E000E146E3E50D8A406D013C06FFFB2
:101D0000010E3E6E010E01D0000E146E1450120032
:101D1000C290000E0F01386F000E396F000E3A6F3F
:101D200093988A9894849282929089901200156E6A
:101D3000000E146E3A0E156005D02F0E156402D0F9
:101D4000010E146E14C013F013301200D59ED59CF2
:101D5000D59AD596D550F80B0109D56EF28AF28E38
:101D6000D58E1200D39ED388D38AD38C030ED31280
:101D7000D298D296D2949B8E9B9C120035C02FF0A5
:101D800036C030F04F0E316E060E326E62EC0CF043
:101D90001200B2EC0EF088EC0EF00CEC0DF09AECA8
:0B1DA0000BF01200010001FFFFFF7FAD
:020000040020DA
:08000000FFFFFFFFFFFFFFFF00
:020000040030CA
:0E000000FF081F3CFFBF81FF0FC00FE00F4045
:00000001FF
