:040000006DEF00F0B0
:100008004D82FACF01F0FBCF02F0E9CF03F0EACF3F
:1000180004F0E1CF05F0E2CF06F0D9CF07F0DACF50
:1000280008F0F3CF09F0F4CF0AF0F6CF0BF0F7CFD2
:100038000CF0F8CF0DF0F5CF0EF04DC00FF04EC01C
:1000480010F04FC011F050C012F0F294FC0ED76EB1
:10005800180ED66E010E0001E027000EE123E22300
:10006800E323010EE427000EE523E623E723010E30
:10007800E827000EE923EA23EB23010EEC27000E04
:10008800ED23EE23EF2312C050F011C04FF010C043
:100098004EF00FC04DF00EC0F5FF0DC0F8FF0CC0BC
:1000A800F7FF0BC0F6FF0AC0F4FF09C0F3FF08C052
:1000B800DAFF07C0D9FF06C0E2FF05C0E1FF04C0B0
:1000C800EAFF03C0E9FF02C0FBFF01C0FAFF4D923F
:0600D80011007AEF0FF0A9
:100600000043616C6962726174696F6E0050535689
:10061000657273696F6E00456E5573656400566F41
:100620006C7473005761747473004C4544420052FB
:1006300065616400436F6E6600416D707300323215
:1006400032003333330034343400454E44005365B4
:0306500074000033
:10065400000E3B6E7CC01EF07DC01FF04A0E206E63
:10066400060E216EC5EC0FF0E806D8A403D0010EE7
:100674003B6ED1D07CC01EF07DC01FF04E0E206EAC
:10068400060E216EC5EC0FF0E806D8A438D00A0E89
:1006940000017C251E6E000E7D211F6E010E206E52
:1006A400060E216EC5EC0FF0E806D8B4B4D00A0EDD
:1006B40000017C251E6E000E7D211F6E170E206E1C
:1006C400060E216EC5EC0FF0E806D8A4A4D0140ED3
:1006D40000017C251F6E000E7D21206EA1EC06F02A
:1006E4001FC03DF020C03EF021C03FF022C040F0CA
:1006F4007EC039F07FC03AF0B2EC0EF08CD07CC0F2
:100704001EF07DC01FF02F0E206E060E216EC5EC6C
:100714000FF0E806D8B47FD07CC01EF07DC01FF077
:10072400340E206E060E216EC5EC0FF0E806D8A438
:1007340072D00A0E00017C251E6E000E7D211F6EF4
:10074400240E206E060E216EC5EC0FF0E806D8A428
:1007540007D07EC035F07FC036F097EC10F05BD048
:100764000A0E00017C251E6E000E7D211F6E170EE1
:10077400206E060E216EC5EC0FF0E806D8A407D053
:100784007EC035F07FC036F097EC10F044D00A0EEE
:1007940000017C251E6E000E7D211F6E1E0E206E34
:1007A400060E216EC5EC0FF0E806D8A407D07EC073
:1007B40035F07FC036F097EC10F02DD00A0E000112
:1007C4007C251E6E000E7D211F6E390E206E060ED6
:1007D400216EC5EC0FF0E806D8A407D07EC035F032
:1007E4007FC036F097EC10F016D00A0E00017C257D
:1007F4001E6E000E7D211F6E0D0E206E060E216EE4
:10080400C5EC0FF0E806D8A406D07EC035F07FC052
:1008140036F097EC10F03B50120080B63ED04A50B0
:10082400D8A43DD0000E226E000E216EC0EC10F054
:10083400010E4A6E000E146E000E136E93EC0FF050
:1008440013C02EF014C02FF015C030F016C031F0D4
:10085400000E146E000E136EDDEC0FF0000E146E1D
:10086400020E136EDDEC0FF02EC023F02FC024F027
:1008740030C025F031C026F0010E276E4BEC0CF091
:1008840023C045F024C046F02EC0F0F02FC0F1F094
:1008940030C0F2F031C0F3F002D0000E4A6E80B4E2
:1008A40059D04950D8A458D0010E496E000E146E88
:1008B400010E136E93EC0FF013C02AF014C02BF04A
:1008C40015C02CF016C02DF0000E146E010E136E20
:1008D400DDEC0FF0000E146E020E136EDDEC0FF063
:1008E4002AC023F02BC024F02CC025F02DC026F004
:1008F400000E276E4BEC0CF023C043F024C044F0F0
:10090400B00E0001F427D80EF523000EF623000ED6
:10091400F72314D0010E3D26000E3E223F22402232
:10092400A00EF45F860EF55B010EF65B000EF75B1E
:10093400000E226E030E216EABEC10F00001F75195
:10094400E9E1A10EF45D860EF559010EF659D8A021
:1009540003D0E0D7000E496E44BE0BD0F50E435CC5
:10096400010E4458D8A005D043C0F8F044C0F9F0B3
:1009740004D045C0F8F046C0F9F00001000EF9BFFC
:10098400FF0EFA6FFB6FF0C020F0F1C021F0F2C04F
:1009940022F0F3C023F0E9EC0AF01200000E236EFB
:1009A400000E226E000E216E000E206E21BE08D0B5
:1009B400215005E1050E205CD8B082D001D080D052
:1009C40020C013F021C014F0000E166E0A0E156E2E
:1009D4002EEC10F013501924D96E14501A20DA6E2C
:1009E400000EDF6E204A212A21BEEAD7215068E199
:1009F400E1D7000E236E222A040E22645AD0040E7C
:100A0400226E57D020EE29F01B50D9261C50DA2232
:100A1400DF501D6E1D50010DF3501B24D96EF45090
:100A24001C20DA6E22500A0D19C01EF01AC01FF0E5
:100A3400F3501E26F4501F222350010DF3501E24A0
:100A4400E16EF4501F20E26EDFCFE7FF232A090E88
:100A5400236402D0090E236E22500A0D19C01DF022
:100A64001AC01EF0F3501D26F4501E222350010D0F
:100A7400F3501D24D96EF4501E20DA6E000EDF6E82
:100A840018D020EE29F01B50D9261C50DA22DF5052
:100A94001D6E1D50010DF3501B24D96EF4501C2003
:100AA400DA6EDF50210AD8B404D01A0AD8B4A1D718
:100AB400A9D720EE29F01B50D9261C50DA22DF2AB0
:100AC40020EE29F01B50D9261C50DA22DF501D6E6F
:100AD4001D50010DF3501B24D96EF4501C20DA6E06
:100AE4002A0EDE18D8B4120020EE29F01B50D926A5
:100AF4001C50DA22280EDF60120020EE28F01B5072
:100B0400D9261C50DA2210EE29F01B50E1261C5085
:100B1400E222DE50E618D8B41200B3D7000E1D6EE0
:100B2400000E1C6E000E1B6E000E1A6E35D01C508B
:100B34001324D96E1D501420DA6E1C501524186E1F
:100B44001D501620196E18C0F6FF19C0F7FFDE50AD
:100B54000900F55CD8B005D0000E1B6E010E1A6EAC
:100B640019D01C501324D96E1D501420DA6EDF5096
:100B7400176E1C501524186E1D501620196E18C0BF
:100B8400F6FF19C0F7FF0800F550175CD8B002D083
:100B94001A681B681C4A1D2A1C501324D96E1D5048
:100BA4001420DA6EDF50D8B413D01C501524176EFD
:100BB4001D501620186E17C0F6FF18C0F7FF080066
:100BC400F5500009D8B404D01A501B10D8B4AFD7CC
:100BD4001C501324D96E1D501420DA6EDF50D8A493
:100BE40012D01C501524176E1D501620186E17C0F5
:100BF400F6FF18C0F7FF0800F5500009D8B403D079
:100C04001A681B681CD01C501324D96E1D50142064
:100C1400DA6EDF50D8B413D01C501524176E1D5053
:100C24001620186E17C0F6FF18C0F7FF0800F5501D
:100C34000009D8A404D0000E1B6E010E1A6E1AC04F
:100C440013F01BC014F0120022C028F023C029F0B6
:100C540024C02AF025C02BF028C013F029C014F0BA
:100C64002AC015F02BC016F026C017F027C018F0C4
:100C7400000E18BEFF0E196E1A6E0AEC0CF013C0AB
:100C840028F014C029F015C02AF016C02BF0204A11
:100C9400212A285029102A102B10D8A4DDD720C0CF
:100CA400D9FF21C0DAFF000EDF6E2006D8A021068E
:100CB40022C013F023C014F024C015F025C016F090
:100CC40026C017F027C018F0000E18BEFF0E196ECC
:100CD4001A6EFCEC0CF013502C6E22C013F023C0DF
:100CE40014F024C015F025C016F026C017F027C054
:100CF40018F0000E18BEFF0E196E1A6E0AEC0CF0F6
:100D040013C022F014C023F015C024F016C025F03F
:100D1400090E2C6402D0070E2C26300E2C2620C07F
:100D2400D9FF21C0DAFF2CC0DFFF2006D8A021069E
:100D34002250231024102510D8B41200B9D71FC094
:100D4400D9FF20C0DAFFDF502C6E1F4A202A200E64
:100D54002C18D8B4F4D7090E2C18D8B4F0D7000E38
:100D6400286E000E296E000E2A6E000E2B6E000EE9
:100D7400276E2D0E2C18D8A402D0272A27D02B0E8C
:100D84002C18D8A42BD022D028C013F029C014F0DA
:100D94002AC015F02BC016F00A0E176E000E186E3E
:100DA400000E196E000E1A6EEDEC0DF02CC023F03F
:100DB400D00E232623501324286E000E1420296EEF
:100DC400000E15202A6E000E16202B6E1FC0D9FFB0
:100DD40020C0DAFFDF502C6E1F4A202A2C506FEC03
:100DE40010F0D8B0D1D72750D8B41AD028C023F0E7
:100DF40029C024F02AC025F02BC026F0231E241E6F
:100E0400251E261E232A000E24222522262223C044
:100E14001FF024C020F025C021F026C022F01200CB
:100E240028C01FF029C020F02AC021F02BC022F0D6
:100E340012008BEC10F0A2EC10F0B2EC10F060ECAD
:100E440010F067EC0EF02FEC0DF0F2EC0FF0000E4A
:100E540001015B6F000E5A6F5BBF06D05B511EE150
:100E6400050E5A5DD8B01AD051EC10F0340E0001C2
:100E7400DF6FF10EE82EFED7DF2FFCD700D060EC39
:100E840010F0340E0001DF6FF10EE82EFED7DF2FD5
:100E9400FCD700D001015A4B5B2BDED7BCEC10F021
:100EA400000E246E640E236E7EEC10F00FEC04F042
:100EB400B8EC10F0000E146E030E136E93EC0FF0EA
:100EC40013C056F114C057F115C058F116C059F1AA
:100ED40056C113F057C114F058C115F059C116F09A
:100EE400F40E176E010E186E000E196E000E1A6EB7
:100EF400FCEC0CF01350141015101610D8A40DD0DF
:100F04000001FC51D8A4D2D7010EFC6F000E226E52
:100F1400010E216EABEC10F0C9D7000E0001FC6F7E
:100F2400C5D7000E00019B6F000E9A6F000E9D6FD7
:100F3400000E9C6F000EA16F000EA06F000E9E6F3E
:100F4400600EA26F000EA36F000EA66F010EA56FB8
:100F54003BD0A551A225D96EA651A321DA6EDF504C
:100F6400A46FA54BA62B9E51D8B40BD08A0EA025F6
:100F7400D96E000EA121DA6EA4C0DFFFA04BA12B15
:100F840023D0A551A225D96EA651A321DA6E240E31
:100F9400DE18D8A415D0A551A225D96EA651A32137
:100FA400DA6E000EDF6E010E9E6F8A0EA025D96EDA
:100FB400000EA121DA6E000EDF6EA54BA62B04D025
:100FC400A4519A27000E9B232A0EA419D8A4C1D792
:100FD400000E9F6F8A0E196E000E1A6E02EC08F056
:100FE40019C09CF01AC09DF000019C519A1906E1A9
:100FF4009D519B19D8A402D0010E9F6F9F511200DE
:1010040002D0194A1A2A19C0D9FF1AC0DAFF200ED1
:10101400DE18D8B4F6D719C0D9FF1AC0DAFF090E02
:10102400DE18D8B4EED7000E1F6E000E1E6E000E32
:101034001D6E19C0D9FF1AC0DAFF2D0EDE18D8A410
:1010440002D01D2A24D019C0D9FF1AC0DAFF2B0EF2
:10105400DE18D8A41ED01BD01EC013F01FC014F07D
:10106400000E166E0A0E156E2EEC10F019C0D9FF84
:101074001AC0DAFFDF501B6E1C6A13501B26145073
:101084001C22D00E1B241E6EFF0E1C201F6E194A3C
:101094001A2A19C0D9FF1AC0DAFFDF506FEC10F01A
:1010A400D8B0DAD71D50D8B40DD01EC01BF01FC065
:1010B4001CF01B1E1C1E1B4A1C2A1BC019F01CC042
:1010C4001AF012001EC019F01FC01AF0120001011C
:1010D400556F01015505D8A40ED0D7EC0EF0000EC3
:1010E4000101286F000E296F000E3B6E010E3C6E4D
:1010F4009BEC0AF012002A0E166E010E176E2BECF2
:1011040009F00001FE6F1ED02A0EA76F010EA86F12
:10111400000EA96F010EAA6F21EE2AF000EE60F016
:10112400290EDBCFEBFFE806FCE293EC07F00001AD
:10113400AB6F5CEC0FF0E806D8A40ED0010E0001F2
:10114400FF6F0AD0FE51000AD8B406D0010AD8B401
:1011540003D0030AD8B4D8D7000E156E010E166E4C
:1011640080EC0BF00101546F81A004D0000E00014B
:10117400FD6F12000001FD51D8A406D0000E3B6E95
:10118400010E3C6E9BEC0AF0010E0001FD6F120093
:101194002FC013F030C014F0230E156E92EC0DF036
:1011A4002FC013F030C014F0210E156E92EC0DF028
:1011B400000E386E000E376E2FC017F030C018F0D6
:1011C40031C019F032C01AF036EC0BF01750372644
:1011D400185038222FC013F030C014F03B0E156E97
:1011E40092EC0DF013503726145038222FC017F00C
:1011F40030C018F033C019F034C01AF036EC0BF0DC
:1012040017503726185038222FC013F030C014F06E
:101214003B0E156E92EC0DF0135037261450382205
:101224002FC017F030C018F035C019F036C01AF0CE
:1012340036EC0BF017503726185038222FC02BF0FD
:1012440030C02CF037C02DF038C02EF061EC0DF01A
:101254001200020E4B18D8A402D0000E4B6E190EC9
:10126400136E000E146E07EC10F0E806D8A44FD0ED
:10127400210E1918D8A415D04B04D8B412D0010EDD
:101284004B6E20EE29F01650D9261750DA22000EA4
:10129400DF6E20EE28F01650D9261750DA22000E01
:1012A400DF6E4B04D8A42AD020EE28F01650D9269D
:1012B4001750DA22DF50186E1850010DF35016241F
:1012C400D96EF4501720DA6E19C0DFFF20EE28F033
:1012D4001650D9261750DA22DF2A20EE28F01650AD
:1012E400D9261750DA22270EDF6408D020EE28F022
:1012F4001650D9261750DA22270EDF6E4B04D8A4D5
:1013040006D02A0E1918D8A402D0020E4B6E4B50E8
:1013140012001FC013F020C014F0000E166E0A0E47
:10132400156EC8EC0BF013C021F014C022F0000EAF
:101334001A6E000E196E000E1C6E000E1B6E000E4F
:101344001E6E000E1D6E3DEC0FF021C013F022C086
:1013540014F0ACEC0FF0000E1A6E010E196E000EB4
:101364001C6E000E1B6E000E1E6E000E1D6E3DECFC
:101374000FF021C013F022C014F0ACEC0FF0000EFB
:101384001A6E000E196E000E1C6E010E1B6E000EFE
:101394001E6E000E1D6E3DEC0FF021C013F022C036
:1013A40014F0ACEC0FF0000E1A6E000E196E000E65
:1013B4001C6E000E1B6E000E1E6E010E1D6E3DECAB
:1013C4000FF021C013F022C014F0ACEC0FF01200A7
:1013D4001FC013F020C014F0000E166E0A0E156E16
:1013E400C8EC0BF013C021F014C022F0000E1A6EEA
:1013F400000E196E000E1C6E000E1B6E000E1E6E8B
:10140400010E1D6E3DEC0FF021C013F022C014F04C
:10141400ACEC0FF0000E1A6E000E196E000E1C6E6E
:10142400010E1B6E000E1E6E000E1D6E3DEC0FF0C5
:1014340021C013F022C014F0ACEC0FF0000E1A6EB1
:10144400010E196E000E1C6E000E1B6E000E1E6E39
:10145400000E1D6E3DEC0FF021C013F022C014F0FD
:10146400ACEC0FF0000E1A6E000E196E000E1C6E1E
:10147400000E1B6E000E1E6E000E1D6E3DEC0FF076
:1014840021C013F022C014F0ACEC0FF012001CC009
:1014940020F01DC021F020C013F021C014F01EC0A4
:1014A40015F01FC016F018EC0EF013C020F014C095
:1014B40021F01A4A1B2A20502110D8A4ECD71AC0B4
:1014C400D9FF1BC0DAFF000EDF6E1A06D8A01B0678
:1014D4001CC013F01DC014F01EC015F01FC016F080
:1014E4001CEC0FF01350226E1CC013F01DC014F03E
:1014F4001EC015F01FC016F018EC0EF013C01CF03F
:1015040014C01DF0090E226402D0070E2226300EEC
:1015140022261AC0D9FF1BC0DAFF22C0DFFF1A0639
:10152400D8A01B061C501D10D8A4D2D71A4A1B2AB7
:1015340012006C9A060E00017C6F300EE82EFED766
:101544007C2FFCD700F06C8A6C9E000E4C6E20EE53
:1015540029F03B50D9263C50DA22000EDF6E20EEF3
:1015640028F03B50D9263C50DA22000EDF6E474A61
:10157400482A19D03BC039F03CC03AF01BEC10F0BB
:1015840012003BC039F03CC03AF08DEC0EF0120072
:101594003BC039F03CC03AF0B2EC0EF0000E486E9D
:1015A400000E476E120047C07CF048C07DF0000179
:1015B4007D51000AD8A4F2D77C51010AD8B4DAD7F5
:1015C400030AD8B4DED7010AD8B4E2D7E7D7000EAD
:1015D400146E020E136E93EC0FF013C024F014C0BB
:1015E40025F015C026F016C027F027500EE1910E05
:1015F400245C5F0E2558010E2658D8B006D0205022
:10160400211022102310D8A40AD0000E0001F86F74
:10161400000EF96F000EFA6F000EFB6F12002450DB
:10162400205C255021582650225827502358D8B0E2
:1016340012008C0E136EE70E146E010E156E000E62
:10164400166E24C017F025C018F026C019F027C064
:101654001AF00AEC0CF013C0F8F014C0F9F015C03D
:10166400FAF016C0FBF01200000E1E6E000E1D6E86
:10167400000E206E000E1F6E23D017C013F018C08A
:1016840014F01F5019241B6E20501A201C6E1BC00E
:10169400F6FF1CC0F7FFF86A050EF76403D00800D4
:1016A400F55005D0F6CFE9FFF7CFEAFFEF50156EFE
:1016B40092EC0DF013501D2614501E221F4A202AAE
:1016C4001F5019241B6E20501A201C6E1BC0F6FFDD
:1016D4001CC0F7FFF86A050EF76403D00800F55044
:1016E40005D0F6CFE9FFF7CFEAFFEF500009D8A401
:1016F400C4D71DC017F01EC018F0120020EE28F049
:101704001550D9261650DA2210EE29F01550E1268C
:101714001650E222DE50E618D8A406D0010E196E47
:10172400000E41EC10F030D0000E196E20EE29F0BE
:101734001550D9261650DA22DF50176E1750010DB6
:10174400F3501524D96EF4501620DA6EDF5041ECB4
:1017540010F0E806D8A418D020EE29F01550D926A8
:101764001650DA22DF2A20EE29F01550D926165019
:10177400DA22270EDF6408D020EE29F01550D9268E
:101784001650DA22000EDF6E19501200000E186E89
:1017940016AE06D0156C161ED8B0162A010E186E99
:1017A40014AE06D0136C141ED8B0142A010E181AE5
:1017B400000E1A6E000E196E15501610D8B41CD0F7
:1017C400010E176E04D0D89015361636172A16AEA9
:1017D400FAD7D89019361A361550135C1650145887
:1017E400D8A005D01550135E1650145A1980D890FD
:1017F40016321532172EEDD71850D8B404D0196C00
:101804001A1ED8B01A2A19C013F01AC014F0120004
:10181400000E1B6E000E1C6E000E1D6E000E1E6E62
:101824001750181019101A10D8B42AD0010E1F6EB0
:1018340006D0D8901736183619361A361F2A1AAE1B
:10184400F8D7D8901B361C361D361E361750135C3D
:1018540018501458195015581A501658D8A009D0B1
:101864001750135E1850145A1950155A1A50165A14
:101874001B80D8901A321932183217321F2EE1D732
:101884001BC013F01CC014F01DC015F01EC016F0D0
:1018940012002704D8A417D08C0E136EE70E146E12
:1018A400010E156E000E166E23C017F024C018F03A
:1018B40025C019F026C01AF00AEC0CF013C028F069
:1018C40014C029F01CD0C00E136E780E146E1E0EB8
:1018D400156E000E166E23C017F024C018F025C034
:1018E40019F026C01AF00AEC0CF013C028F014C04A
:1018F40029F0000E226E020E216EABEC10F028C00F
:1019040023F029C024F0000E24BEFF0E256E266E9F
:10191400120011D081A80DD009D01B501F6E206A6F
:101924001CD082A206D002D082A003D01B6A1B2A3C
:10193400F4D71B6AF2D719C01BF01AC01CF01C5054
:10194400000AD8A40AD01B50010AD8B4E3D7030A6A
:10195400D8B4E7D7010AD8B4E7D71F502010D8A4C9
:1019640004D0000E1E6E010E03D0000E1E6E000E7B
:101974001D6E19C013F01AC014F01DC015F01EC05E
:1019840016F041EC0EF01200949C949E9498949658
:101994008B9E8B988B981A0E186EF80EE82EFED735
:1019A400182EFCD700D08B9C1A0E186EF80EE82E59
:1019B400FED7182EFCD700D08B9E8B988B981A0ECE
:1019C400186EF80EE82EFED7182EFCD700D08B8E9A
:1019D4008B888B881A0E186EF80EE82EFED7182EF8
:1019E400FCD700D08B8C000E146E0A0E136EACEC78
:1019F4000FF012001750181019101A10D8B424D070
:101A0400010E1B6E06D0D8901736183619361A36C2
:101A14001B2A1AAEF8D71750135C185014581950D3
:101A240015581A501658D8A008D01750135E1850DD
:101A3400145A1950155A1A50165AD8901A32193283
:101A4400183217321B2EE7D713C013F014C014F04A
:101A540015C015F016C016F01200D59ED59CD59A67
:101A6400D596D550F80B0109D56EF28AF28ED58E33
:101A7400000E0001E06F000EE16F000EE26F000E39
:101A8400E36F000EE46F000EE56F000EE66F000ECC
:101A9400E76F000EE86F000EE96F000EEA6F000EAC
:101AA400EB6F000EEC6F000EED6F000EEE6F000E8C
:101AB400EF6FF294FC0ED76E180ED66E12002BC088
:101AC40013F02CC014F03B0E156E92EC0DF02BC0ED
:101AD40013F02CC014F0240E156E92EC0DF0600E71
:101AE400236E000E246E2DC025F02EC026F0000EAD
:101AF400286E0A0E276EFBEC0EF02BC017F02CC0DC
:101B040018F0600E196E000E1A6E36EC0BF02BC036
:101B140013F02CC014F02A0E156E92EC0DF0120086
:101B240020EE28F01350D9261450DA22DF50166E16
:101B34001650010DF3501324D96EF4501420DA6EAC
:101B440015C0DFFF20EE28F01350D9261450DA22F6
:101B5400DF2A20EE28F01350D9261450DA22270E5B
:101B6400DF6408D020EE28F01350D9261450DA226E
:101B7400000EDF6E15C013F0146A12002FC013F0AC
:101B840030C014F0230E156E92EC0DF02FC013F03C
:101B940030C014F0210E156E92EC0DF0000E346E70
:101BA400000E336E2FC017F030C018F031C019F09A
:101BB40032C01AF036EC0BF017503326185034228A
:101BC4002FC02BF030C02CF033C02DF034C02EF0D9
:101BD40061EC0DF01200000E1B6E000E1C6E000E68
:101BE4001D6E000E1E6E13A008D017501B26185031
:101BF4001C2219501D221A501E22D890173618364E
:101C040019361A36D890163215321432133213504C
:101C1400141015101610D8A4E6D71BC013F01CC05E
:101C240014F01DC015F01EC016F01200000E196E3F
:101C3400000E186E15501610D8B41CD0010E176E75
:101C440004D0D89015361636172A16AEFAD7D8907F
:101C5400183619361550135C16501458D8A005D0F0
:101C64001550135E1650145A1880D8901632153237
:101C7400172EEDD718C013F019C014F0120012D0AB
:101C840015B002D08A9801D08A88120015B002D00B
:101C94008B9201D08B82120015B002D08B9001D0B0
:101CA4008B80120013C017F014C018F01850000AEB
:101CB400D8A412001750010AD8B4E2D7030AD8B442
:101CC400E5D7010AD8A41200E7D7000EF26E000E81
:101CD400F16E000EF06ED09E000E9E6E000EA16E90
:101CE400000EA46E000E7B6E000E7E6E000E9D6EC6
:101CF400000EA06E000EA36E000E7A6E000E7D6EB6
:101D0400000E9F6E000EA26E000EA56E000E7C6E7D
:101D1400000E7F6E1200700E206E000E216EF8C051
:101D240022F0F9C023F0FAC024F0FBC025F0000E25
:101D3400276E0A0E266E26EC06F039C02FF03AC044
:101D440030F04E0E316E060E326E240E336E060ED9
:101D5400346E700E356E000E366ECAEC08F012004A
:101D6400700E206E000E216E3DC022F03EC023F0A6
:101D74003FC024F040C025F0000E276E0A0E266EE8
:101D840026EC06F039C02FF03AC030F04E0E316E1A
:101D9400060E326E170E336E060E346E700E356EEE
:101DA400000E366ECAEC08F012009290928294965D
:101DB400949A949C949E0F0138938B8C8B868B8A77
:101DC4008B8E6C9A39913993399539979380938294
:101DD400938493966D9E6D8C6C9E6C9C6C9A6C88AF
:101DE4006C50F00B04096C6E000E696E69986C8A75
:101DF400120023C029F024C02AF026AE0CD023C040
:101E0400D9FF24C0DAFF2D0EDF6E234A242A256C65
:101E1400261ED8B0262A23C01AF024C01BF025C0E1
:101E24001CF026C01DF027C01EF028C01FF049EC8E
:101E34000AF0120015501610D8B418D0010E176EFF
:101E440004D0D89015361636172A16AEFAD7155080
:101E5400135C16501458D8A004D01550135E1650B5
:101E6400145AD89016321532172EF1D713C013F026
:101E740014C014F01200000E146E010E136E19C07B
:101E840015F01AC016F041EC0EF0000E146E020E9E
:101E9400136E1BC015F01CC016F041EC0EF0000EC2
:101EA400146E030E136E1DC015F01EC016F041EC27
:101EB4000EF01200AC0E196E000E1A6EA7C01BF0C5
:101EC400A8C01CF0D0EC04F00001AB51D8B40CD085
:101ED400AC0E7C6F000E7D6FA9C07EF0AAC07FF0AF
:101EE4002AEC03F0000101D0010EDE6FDE51120076
:101EF40001EE00F0540EEE6AE806FDE100EEE0F0BB
:101F0400200EEE6AE806FDE100EE3DF0100EEE6AEA
:101F1400E806FDE14D904D92000EF86E00011BEFB6
:101F240007F0E00E176E000E186ED8901334D96EB9
:101F34001434DA6ED890D936DA361750D9261850B8
:101F4400DA22DECF13F0DECF14F0DECF15F0DECFD1
:101F540016F01200000E176E000E166E09D0340E25
:101F6400156EF20EE82EFED7152EFCD7164A172A48
:101F74001350165C1750800A156E1450800A1558B9
:101F8400D8B01200ECD71EC013F01FC014F020C04C
:101F940015F021C016F090EC05F013C022F014C027
:101FA40023F022502310D8A402D0010E01D0000E39
:101FB400246E24501200E00E156E000E166ED8909A
:101FC4001334D96E1434DA6ED890D936DA36155003
:101FD400D9261650DA22DE6ADE6ADE6ADD6A12006B
:101FE400928692849288000E0001F46F000EF56FC1
:101FF400000EF66F000EF76F000E146E640E136E73
:10200400ACEC0FF0C6EC0CF01200000E156E6DA0D7
:102014000CD013C0D9FF14C0DAFF6FCFDFFF010E5D
:10202400156E6C9E000E4C6E02D0000E156E15508F
:10203400120039C02FF03AC030F04E0E316E060E49
:10204400326E0D0E336E060E346E460E356E060E6F
:10205400366ECAEC08F0120013501502F3CF17F0D5
:10206400F4CF18F013501602F3501826145015022A
:10207400F350182617C013F018C014F01200136E92
:10208400000E146E4C50D8A406D013C06FFF010E7E
:102094004C6E010E01D0000E146E14501200000E8E
:1020A4001A6E010E196E000E1C6E010E1B6E000ED0
:1020B4001E6E010E1D6E3DEC0FF01200000E1A6E26
:1020C400000E196E000E1C6E000E1B6E000E1E6EAE
:1020D400000E1D6E3DEC0FF01200156E000E146E16
:1020E4003A0E156005D02F0E156402D0010E146E41
:1020F40014C013F01330120023C01FF024C020F0CA
:102104008BEC09F023C01FF024C020F0EAEC09F0A6
:102114001200D39ED388D38AD38C030ED312D298C1
:10212400D296D2949B8E9B9C120035C02FF036C061
:1021340030F04A0E316E060E326EC0EC0DF0120015
:10214400C290000E0F01386F000E396F000E3A6F07
:10215400120021C019F022C01AF08BEC0CF012000E
:1021640093989492949060EC10F01200000E69EC35
:0E21740008F01200010E69EC08F012001200D3
:020000040020DA
:08000000FFFFFFFFFFFFFFFF00
:020000040030CA
:0E000000FF081F3CFFBF81FF0FC00FE00F4045
:00000001FF
