:040000006DEF00F0B0
:100008004D82FACF01F0FBCF02F0E9CF03F0EACF3F
:1000180004F0E1CF05F0E2CF06F0D9CF07F0DACF50
:1000280008F0F3CF09F0F4CF0AF0F6CF0BF0F7CFD2
:100038000CF0F8CF0DF0F5CF0EF04DC00FF04EC01C
:1000480010F04FC011F050C012F0F294FC0ED76EB1
:10005800180ED66E010E00016027000E6123622380
:100068006323010E6427000E652366236723010EB0
:100078006827000E69236A236B23010E6C27000E84
:100088006D236E236F2312C050F011C04FF010C0C3
:100098004EF00FC04DF00EC0F5FF0DC0F8FF0CC0BC
:1000A800F7FF0BC0F6FF0AC0F4FF09C0F3FF08C052
:1000B800DAFF07C0D9FF06C0E2FF05C0E1FF04C0B0
:1000C800EAFF03C0E9FF02C0FBFF01C0FAFF4D923F
:0600D80011006CEF0EF0B8
:100600000043616C6962726174696F6E0050535689
:10061000657273696F6E00456E5573656400566F41
:100620006C7473005761747473004C4544420052FB
:1006300065616400436F6E6600416D707300323215
:1006400032003333330034343400454E44005365B4
:0306500074000033
:10065400000E3B6ECAC01EF0CBC01FF04A0E206EC7
:10066400060E216ED0EC0EF0E806D8A403D0010EDD
:100674003B6ED1D0CAC01EF0CBC01FF04E0E206E10
:10068400060E216ED0EC0EF0E806D8A438D00A0E7F
:100694000001CA251E6E000ECB211F6E010E206EB6
:1006A400060E216ED0EC0EF0E806D8B4B4D00A0ED3
:1006B4000001CA251E6E000ECB211F6E170E206E80
:1006C400060E216ED0EC0EF0E806D8A4A4D0140EC9
:1006D4000001CA251F6E000ECB21206EABEC06F084
:1006E4001FC03DF020C03EF021C03FF022C040F0CA
:1006F400CCC039F0CDC03AF0CCEC0DF08CD0CAC0EF
:100704001EF0CBC01FF02F0E206E060E216ED0EC13
:100714000EF0E806D8B47FD0CAC01EF0CBC01FF0DC
:10072400340E206E060E216ED0EC0EF0E806D8A42E
:1007340072D00A0E0001CA251E6E000ECB211F6E58
:10074400240E206E060E216ED0EC0EF0E806D8A41E
:1007540007D0CCC035F0CDC036F0A1EC0FF05BD0A3
:100764000A0E0001CA251E6E000ECB211F6E170E45
:10077400206E060E216ED0EC0EF0E806D8A407D049
:10078400CCC035F0CDC036F0A1EC0FF044D00A0E49
:100794000001CA251E6E000ECB211F6E1E0E206E98
:1007A400060E216ED0EC0EF0E806D8A407D0CCC01B
:1007B40035F0CDC036F0A1EC0FF02DD00A0E0001BB
:1007C400CA251E6E000ECB211F6E390E206E060E3A
:1007D400216ED0EC0EF0E806D8A407D0CCC035F0DA
:1007E400CDC036F0A1EC0FF016D00A0E0001CA25D8
:1007F4001E6E000ECB211F6E0D0E206E060E216E96
:10080400D0EC0EF0E806D8A406D0CCC035F0CDC0AC
:1008140036F0A1EC0FF03B50120080B63ED04A50A7
:10082400D8A43DD0000E226E000E216ECCEC0FF049
:10083400010E4A6E000E146E000E136E85EC0EF05F
:1008440013C02CF014C02DF015C02EF016C02FF0DC
:10085400000E146E000E136EE8EC0EF0000E146E13
:10086400020E136EE8EC0EF02CC020F02DC021F027
:100874002EC022F02FC023F0010E246EAEEC0BF03C
:1008840020C045F021C046F02CC070F02DC071F09E
:100894002EC072F02FC073F002D0000E4A6E80A4F6
:1008A40002D080B858D04950D8A457D0000E226E38
:1008B400010E216ECCEC0FF0010E496E000E146E89
:1008C400010E136E85EC0EF013C028F014C029F04D
:1008D40015C02AF016C02BF0000E146E010E136E14
:1008E400E8EC0EF0000E146E020E136EE8EC0EF03F
:1008F40028C020F029C021F02AC022F02BC023F008
:10090400000E246EAEEC0BF020C043F021C044F086
:10091400800E00017427970E7523060E7623000EB1
:1009240077230ED0010E3D26000E3E223F224022A8
:10093400A00E745F860E755B010E765B000E775B0E
:100944007751F0E1A10E745D860E7559010E76594A
:10095400D8A003D0E7D7000E496E44BE0BD0F50EE5
:10096400435C010E4458D8A005D043C07CF044C079
:100974007DF004D045C07CF046C07DF00001000E3F
:100984007DBFFF0E7E6F7F6F70C020F071C021F0BD
:1009940072C022F073C023F011EC0AF04E0E000175
:1009A4007C6F000E7D6F000E7E6F000E7F6F120055
:1009B400000E236E000E226E000E216E000E206EBD
:1009C40021BE08D0215005E1050E205CD8B082D0AC
:1009D40001D080D020C013F021C014F0000E166E98
:1009E4000A0E156E38EC0FF013501924D96E1450FA
:1009F4001A20DA6E000EDF6E204A212A21BEEAD7C1
:100A0400215068E1E1D7000E236E222A040E2264ED
:100A14005AD0040E226E57D020EE29F01B50D9264E
:100A24001C50DA22DF501D6E1D50010DF3501B24A3
:100A3400D96EF4501C20DA6E22500A0D19C01EF033
:100A44001AC01FF0F3501E26F4501F222350010D2C
:100A5400F3501E24E16EF4501F20E26EDFCFE7FF57
:100A6400232A090E236402D0090E236E22500A0D94
:100A740019C01DF01AC01EF0F3501D26F4501E229A
:100A84002350010DF3501D24D96EF4501E20DA6E4C
:100A9400000EDF6E18D020EE29F01B50D9261C5012
:100AA400DA22DF501D6E1D50010DF3501B24D96E48
:100AB400F4501C20DA6EDF50210AD8B404D01A0A8C
:100AC400D8B4A1D7A9D720EE29F01B50D9261C50A1
:100AD400DA22DF2A20EE29F01B50D9261C50DA2214
:100AE400DF501D6E1D50010DF3501B24D96EF450C0
:100AF4001C20DA6E2A0EDE18D8B4120020EE29F07B
:100B04001B50D9261C50DA22280EDF60120020EE7A
:100B140028F01B50D9261C50DA2210EE29F01B5065
:100B2400E1261C50E222DE50E618D8B41200B3D7F6
:100B3400000E1D6E000E1C6E000E1B6E000E1A6E53
:100B440035D01C501324D96E1D501420DA6E1C505D
:100B54001524186E1D501620196E18C0F6FF19C002
:100B6400F7FFDE500900F55CD8B005D0000E1B6E0F
:100B7400010E1A6E19D01C501324D96E1D50142066
:100B8400DA6EDF50176E1C501524186E1D50162097
:100B9400196E18C0F6FF19C0F7FF0800F550175C6E
:100BA400D8B002D01A681B681C4A1D2A1C50132492
:100BB400D96E1D501420DA6EDF50D8B413D01C50F7
:100BC4001524176E1D501620186E17C0F6FF18C096
:100BD400F7FF0800F5500009D8B404D01A501B10D0
:100BE400D8B4AFD71C501324D96E1D501420DA6E1C
:100BF400DF50D8A412D01C501524176E1D50162097
:100C0400186E17C0F6FF18C0F7FF0800F55000096A
:100C1400D8B403D01A681B681CD01C501324D96E96
:100C24001D501420DA6EDF50D8B413D01C50152494
:100C3400176E1D501620186E17C0F6FF18C0F7FF68
:100C44000800F5500009D8A404D0000E1B6E010E54
:100C54001A6E1AC013F01BC014F0120022C028F040
:100C640023C029F024C02AF025C02BF028C013F09B
:100C740029C014F02AC015F02BC016F026C017F0B6
:100C840027C018F0000E18BEFF0E196E1A6E32EC53
:100C94000BF013C028F014C029F015C02AF016C0B8
:100CA4002BF0204A212A285029102A102B10D8A4CE
:100CB400DDD720C0D9FF21C0DAFF000EDF6E200689
:100CC400D8A0210622C013F023C014F024C015F0CC
:100CD40025C016F026C017F027C018F0000E18BE65
:100CE400FF0E196E1A6EE4EC0BF013502C6E22C03A
:100CF40013F023C014F024C015F025C016F026C04C
:100D040017F027C018F0000E18BEFF0E196E1A6EE9
:100D140032EC0BF013C022F014C023F015C024F001
:100D240016C025F0090E2C6402D0070E2C26300EB6
:100D34002C2620C0D9FF21C0DAFF2CC0DFFF2006FB
:100D4400D8A021062250231024102510D8B4120054
:100D5400B9D71FC0D9FF20C0DAFFDF502C6E1F4A5D
:100D6400202A200E2C18D8B4F4D7090E2C18D8B485
:100D7400F0D7000E286E000E296E000E2A6E000EAB
:100D84002B6E000E276E2D0E2C18D8A402D0272A05
:100D940027D02B0E2C18D8A42BD022D028C013F087
:100DA40029C014F02AC015F02BC016F00A0E176ED5
:100DB400000E186E000E196E000E1A6E07EC0DF080
:100DC4002CC023F0D00E232623501324286E000EAB
:100DD4001420296E000E15202A6E000E16202B6E8C
:100DE4001FC0D9FF20C0DAFFDF502C6E1F4A202A13
:100DF4002C5079EC0FF0D8B0D1D72750D8B41AD0F2
:100E040028C023F029C024F02AC025F02BC026F0E6
:100E1400231E241E251E261E232A000E24222522DC
:100E2400262223C01FF024C020F025C021F026C0B4
:100E340022F0120028C01FF029C020F02AC021F09F
:100E44002BC022F0120095EC0FF0ACEC0FF0BCECD0
:100E54000FF06AEC0FF05BEC0DF017EC0CF052ECB9
:100E64000EF0000E0001DA6F000ED96FDABF06D063
:100E7400DA511EE1050ED95DD8B01AD05BEC0FF043
:100E8400340E0001D46FF10EE82EFED7D42FFCD718
:100E940000D06AEC0FF0340E0001D46FF10EE82E8E
:100EA400FED7D42FFCD700D00001D94BDA2BDED7E4
:100EB400C2EC0FF0000E246E640E236E88EC0FF06B
:100EC4000FEC04F0C8EC0FF0000E146E030E136E5A
:100ED40085EC0EF013C0D5F014C0D6F015C0D7F0D1
:100EE40016C0D8F0D5C013F0D6C014F0D7C015F092
:100EF400D8C016F0F40E176E010E186E000E196E9F
:100F0400000E1A6EE4EC0BF01350141015101610AA
:100F1400D8A40DD000018051D8A4D2D7010E806F7F
:100F2400000E226E010E216EB5EC0FF0C9D7000E33
:100F34000001806FC5D72FC013F030C014F0230E0A
:100F4400156EACEC0CF02FC013F030C014F0210E71
:100F5400156EACEC0CF0000E386E000E376E2FC020
:100F640017F030C018F031C019F032C01AF05EEC3E
:100F74000AF017503726185038222FC013F030C00B
:100F840014F03B0E156EACEC0CF0135037261450D5
:100F940038222FC017F030C018F033C019F034C015
:100FA4001AF05EEC0AF017503726185038222FC07A
:100FB40013F030C014F03B0E156EACEC0CF0135073
:100FC4003726145038222FC017F030C018F035C01F
:100FD40019F036C01AF05EEC0AF017503726185094
:100FE40038222FC02BF030C02CF037C02DF038C081
:100FF4002EF07BEC0CF01200020E4B18D8A402D099
:10100400000E4B6E190E136E000E146EFDEC0EF0F6
:10101400E806D8A44FD0210E1918D8A415D04B0433
:10102400D8B412D0010E4B6E20EE29F01650D926FA
:101034001750DA22000EDF6E20EE28F01650D92663
:101044001750DA22000EDF6E4B04D8A42AD020EE0B
:1010540028F01650D9261750DA22DF50186E18508F
:10106400010DF3501624D96EF4501720DA6E19C00E
:10107400DFFF20EE28F01650D9261750DA22DF2A97
:1010840020EE28F01650D9261750DA22270EDF64F6
:1010940008D020EE28F01650D9261750DA22270E51
:1010A400DF6E4B04D8A406D02A0E1918D8A402D097
:1010B400020E4B6E4B5012001FC013F020C014F0F0
:1010C400000E166E0A0E156EF0EC0AF013C021F035
:1010D40014C022F0000E1A6E000E196E000E1C6E63
:1010E400000E1B6E000E1E6E000E1D6E33EC0EF015
:1010F40021C013F022C014F09EEC0EF0000E1A6E04
:10110400010E196E000E1C6E000E1B6E000E1E6E7C
:10111400000E1D6E33EC0EF021C013F022C014F04B
:101124009EEC0EF0000E1A6E000E196E000E1C6E70
:10113400010E1B6E000E1E6E000E1D6E33EC0EF0C3
:1011440021C013F022C014F09EEC0EF0000E1A6EB3
:10115400000E196E000E1C6E000E1B6E000E1E6E2D
:10116400010E1D6E33EC0EF021C013F022C014F0FA
:101174009EEC0EF012001FC013F020C014F0000EFD
:10118400166E0A0E156EF0EC0AF013C021F014C0AE
:1011940022F0000E1A6E000E196E000E1C6E000E68
:1011A4001B6E000E1E6E010E1D6E33EC0EF021C080
:1011B40013F022C014F09EEC0EF0000E1A6E000E16
:1011C400196E000E1C6E010E1B6E000E1E6E000EBC
:1011D4001D6E33EC0EF021C013F022C014F09EEC0F
:1011E4000EF0000E1A6E010E196E000E1C6E000E2B
:1011F4001B6E000E1E6E000E1D6E33EC0EF021C031
:1012040013F022C014F09EEC0EF0000E1A6E000EC5
:10121400196E000E1C6E000E1B6E000E1E6E000E6C
:101224001D6E33EC0EF021C013F022C014F09EECBE
:101234000EF01200000E226E020E216EB5EC0FF0BD
:101244006C9A060E0001CA6F300EE82EFED7CA2F24
:10125400FCD700F06C8A6C9E000E4C6E20EE29F0D8
:101264003B50D9263C50DA22000EDF6E20EE28F0E7
:101274003B50D9263C50DA22000EDF6E474A482AFA
:1012840019D03BC039F03CC03AF025EC0FF0120005
:101294003BC039F03CC03AF0A7EC0DF012003BC063
:1012A40039F03CC03AF0CCEC0DF0000E486E000E64
:1012B400476E120047C0CAF048C0CBF00001CB51C2
:1012C400000AD8A4F2D7CA51010AD8B4DAD7030A5B
:1012D400D8B4DED7010AD8B4E2D7E7D71CC020F0CF
:1012E4001DC021F020C013F021C014F01EC015F061
:1012F4001FC016F032EC0DF013C020F014C021F022
:101304001A4A1B2A20502110D8A4ECD71AC0D9FF9E
:101314001BC0DAFF000EDF6E1A06D8A01B061CC025
:1013240013F01DC014F01EC015F01FC016F012EC0F
:101334000EF01350226E1CC013F01DC014F01EC01A
:1013440015F01FC016F032EC0DF013C01CF014C0E1
:101354001DF0090E226402D0070E2226300E22262A
:101364001AC0D9FF1BC0DAFF22C0DFFF1A06D8A0BB
:101374001B061C501D10D8A4D2D71A4A1B2A1200CF
:101384000001D36F0001D305D8A40BD0000EAC6FBD
:10139400000EAD6F840E3B6E000E3C6E1CEC09F02B
:1013A4001200330E166E010E176EFEEC07F00001EC
:1013B400826F11D0330ECE6F010ECF6F840ED06FBB
:1013C400000ED16FB7EC0EF0E806D8A40ED0010ED3
:1013D4000001836F0AD08251000AD8B406D0010AF2
:1013E400D8B403D0030AD8B4E5D7840E156E000E22
:1013F400166EA8EC0AF00001D26F81A003D0000E93
:10140400816F12008151D8A406D0840E3B6E000E69
:101414003C6E1CEC09F0010E0001816F1200000EFD
:10142400146E020E136E85EC0EF013C024F014C07B
:1014340025F015C026F016C027F027500EE1910EB6
:10144400245C5F0E2558010E2658D8B006D02050D3
:10145400211022102310D8A40AD0000E00017C6FA2
:10146400000E7D6F000E7E6F000E7F6F1200245001
:10147400205C255021582650225827502358D8B094
:101484001200E00E136ED40E146E0E0E156E000EC6
:10149400166E24C017F025C018F026C019F027C016
:1014A4001AF032EC0BF013C07CF014C07DF015C0C0
:1014B4007EF016C07FF01200000E1E6E000E1D6E30
:1014C400000E206E000E1F6E23D017C013F018C03C
:1014D40014F01F5019241B6E20501A201C6E1BC0C0
:1014E400F6FF1CC0F7FFF86A050EF76403D0080086
:1014F400F55005D0F6CFE1FFF7CFE2FFE750156EC8
:10150400ACEC0CF013501D2614501E221F4A202A46
:101514001F5019241B6E20501A201C6E1BC0F6FF8E
:101524001CC0F7FFF86A050EF76403D00800F550F5
:1015340005D0F6CFE1FFF7CFE2FFE7500009D8A4CA
:10154400C4D71DC017F01EC018F0120020EE28F0FA
:101554001550D9261650DA2210EE29F01550E1263E
:101564001650E222DE50E618D8A406D0010E196EF9
:10157400000E4BEC0FF030D0000E196E20EE29F067
:101584001550D9261650DA22DF50176E1750010D68
:10159400F3501524D96EF4501620DA6EDF504BEC5C
:1015A4000FF0E806D8A418D020EE29F01550D9265B
:1015B4001650DA22DF2A20EE29F01550D9261650CB
:1015C400DA22270EDF6408D020EE29F01550D92640
:1015D4001650DA22000EDF6E19501200000E186E3B
:1015E40016AE06D0156C161ED8B0162A010E186E4B
:1015F40014AE06D0136C141ED8B0142A010E181A97
:10160400000E1A6E000E196E15501610D8B41CD0A8
:10161400010E176E04D0D89015361636172A16AE5A
:10162400FAD7D89019361A361550135C1650145838
:10163400D8A005D01550135E1650145A1980D890AE
:1016440016321532172EEDD71850D8B404D0196CB1
:101654001A1ED8B01A2A19C013F01AC014F01200B6
:10166400000E1B6E000E1C6E000E1D6E000E1E6E14
:101674001750181019101A10D8B42AD0010E1F6E62
:1016840006D0D8901736183619361A361F2A1AAECD
:10169400F8D7D8901B361C361D361E361750135CEF
:1016A40018501458195015581A501658D8A009D063
:1016B4001750135E1850145A1950155A1A50165AC6
:1016C4001B80D8901A321932183217321F2EE1D7E4
:1016D4001BC013F01CC014F01DC015F01EC016F082
:1016E400120011D081A80DD009D01B501F6E206AA2
:1016F4001CD082A206D002D082A003D01B6A1B2A6F
:10170400F4D71B6AF2D719C01BF01AC01CF01C5086
:10171400000AD8A40AD01B50010AD8B4E3D7030A9C
:10172400D8B4E7D7010AD8B4E7D71F502010D8A4FB
:1017340004D0000E1E6E010E03D0000E1E6E000EAD
:101744001D6E19C013F01AC014F01DC015F01EC090
:1017540016F081EC0DF012002404D8A413D0E00E8E
:10176400136ED40E146E0E0E156E000E166E20C07F
:1017740017F021C018F022C019F023C01AF032EC7F
:101784000BF012D0E00E136ED40E146E0E0E156E06
:10179400000E166E20C017F021C018F022C019F0F8
:1017A40023C01AF032EC0BF013C025F014C026F05D
:1017B40025C020F026C021F0000E21BEFF0E226EAF
:1017C400236E12001750181019101A10D8B424D010
:1017D400010E1B6E06D0D8901736183619361A36F5
:1017E4001B2A1AAEF8D71750135C18501458195006
:1017F40015581A501658D8A008D01750135E185010
:10180400145A1950155A1A50165AD8901A321932B5
:10181400183217321B2EE7D713C013F014C014F07C
:1018240015C015F016C016F01200D59ED59CD59A99
:10183400D596D550F80B0109D56EF28AF28ED58E65
:10184400000E0001606F000E616F000E626F000EEB
:10185400636F000E646F000E656F000E666F000EFE
:10186400676F000E686F000E696F000E6A6F000EDE
:101874006B6F000E6C6F000E6D6F000E6E6F000EBE
:101884006F6FF294FC0ED76E180ED66E12008B9EFC
:101894008B988B981A0E186EF80EE82EFED7182E19
:1018A400FCD700D08B9C1A0E186EF80EE82EFED7CB
:1018B400182EFCD700D08B9E8B988B981A0E186E1E
:1018C400F80EE82EFED7182EFCD700D08B8E8B880E
:1018D4008B881A0E186EF80EE82EFED7182EFCD739
:1018E40000D08B8C000E146E0A0E136E9EEC0EF05C
:1018F40012002BC013F02CC014F03B0E156EACEC90
:101904000CF02BC013F02CC014F0240E156EACECAC
:101914000CF0AE0E236E000E246E2DC025F02EC0EA
:1019240026F0000E286E0A0E276EF1EC0DF02BC087
:1019340017F02CC018F0AE0E196E000E1A6E5EEC85
:101944000AF02BC013F02CC014F02A0E156EACEC68
:101954000CF0120020EE28F01350D9261450DA228D
:10196400DF50166E1650010DF3501324D96EF45047
:101974001420DA6E15C0DFFF20EE28F01350D926AC
:101984001450DA22DF2A20EE28F01350D9261450FE
:10199400DA22270EDF6408D020EE28F01350D9266F
:1019A4001450DA22000EDF6E15C013F0146A120010
:1019B4002FC013F030C014F0230E156EACEC0CF0F5
:1019C4002FC013F030C014F0210E156EACEC0CF0E7
:1019D400000E346E000E336E2FC017F030C018F0B6
:1019E40031C019F032C01AF05EEC0AF017503326F9
:1019F400185034222FC02BF030C02CF033C02DF0FF
:101A040034C02EF07BEC0CF01200000E1B6E000EA6
:101A14001C6E000E1D6E000E1E6E13A008D0175013
:101A24001B2618501C2219501D221A501E22D89011
:101A34001736183619361A36D8901632153214322B
:101A440013321350141015101610D8A4E6D71BC067
:101A540013F01CC014F01DC015F01EC016F01200C7
:101A6400000E196E000E186E15501610D8B41CD046
:101A7400010E176E04D0D89015361636172A16AEF6
:101A8400FAD7D890183619361550135C16501458D6
:101A9400D8A005D01550135E1650145A1880D8904B
:101AA40016321532172EEDD718C013F019C014F0E2
:101AB4001200000EF26E000EF16E000EF06ED09E5B
:101AC400000E9E6E000EA16E000EA46E000E7B6EC4
:101AD400000E7E6E000E9D6E000EA06E000EA36EB4
:101AE400000E7A6E000E7D6E000E9F6E000EA26ECA
:101AF400000EA56E000E7C6E000E7F6E120012D0DA
:101B040015B002D08A9801D08A88120015B002D08C
:101B14008B9201D08B82120015B002D08B9001D031
:101B24008B80120013C017F014C018F01850000A6C
:101B3400D8A412001750010AD8B4E2D7030AD8B4C3
:101B4400E5D7010AD8A41200E7D7BE0E206E000E16
:101B5400216E7CC022F07DC023F07EC024F07FC0C3
:101B640025F0000E276E0A0E266E30EC06F039C002
:101B74002FF03AC030F04E0E316E060E326E240E47
:101B8400336E060E346EBE0E356E000E366E9DEC50
:101B940007F01200BE0E206E000E216E3DC022F032
:101BA4003EC023F03FC024F040C025F0000E276E55
:101BB4000A0E266E30EC06F039C02FF03AC030F031
:101BC4004E0E316E060E326E170E336E060E346EE6
:101BD400BE0E356E000E366E9DEC07F0120023C06B
:101BE40029F024C02AF026AE0CD023C0D9FF24C08B
:101BF400DAFF2D0EDF6E234A242A256C261ED8B068
:101C0400262A23C01AF024C01BF025C01CF026C0CD
:101C14001DF027C01EF028C01FF070EC09F0120060
:101C240015501610D8B418D0010E176E04D0D890E1
:101C340015361636172A16AEFAD71550135C1650F9
:101C44001458D8A004D01550135E1650145AD890C6
:101C540016321532172EF1D713C013F014C014F036
:101C64001200000E146E010E136E19C015F01AC086
:101C740016F081EC0DF0000E146E020E136E1BC0F4
:101C840015F01CC016F081EC0DF0000E146E030E5E
:101C9400136E1DC015F01EC016F081EC0DF012007D
:101CA400928692849288949C949E949894968B8C19
:101CB400000E0001786F000E796F000E7A6F000E2F
:101CC4007B6F000E146E640E136E9EEC0EF049ECE6
:101CD4000CF0120001EE33F02A0EEE6AE806FDE184
:101CE40000EE60F04E0EEE6AE806FDE100EE3DF017
:101CF400100EEE6AE806FDE14D904D92000EF86E6E
:101D0400000125EF07F0600E176E000E186ED890D4
:101D14001334D96E1434DA6ED890D936DA361750B3
:101D2400D9261850DA22DECF13F0DECF14F0DECF3E
:101D340015F0DECF16F01200000E176E000E166EB0
:101D440009D0340E156EF20EE82EFED7152EFCD7F0
:101D5400164A172A1350165C1750800A156E145031
:101D6400800A1558D8B01200ECD7000E196E010E77
:101D74001A6ECEC01BF0CFC01CF0DAEC04F0000EDB
:101D84000001CA6F010ECB6FD0C0CCF0D1C0CDF032
:101D94002AEC03F00101326F325112001EC013F01D
:101DA4001FC014F020C015F021C016F09AEC05F005
:101DB40013C022F014C023F022502310D8A402D060
:101DC400010E01D0000E246E24501200600E156E18
:101DD400000E166ED8901334D96E1434DA6ED8907F
:101DE400D936DA361550D9261650DA22DE6ADE6A7A
:101DF400DE6ADD6A1200000E156E6DA00CD013C0F1
:101E0400D9FF14C0DAFF6FCFDFFF010E156E6C9E91
:101E1400000E4C6E02D0000E156E155012006C9A16
:101E240093809382938493966D9E6D8C6C9E6C9C30
:101E34006C9A6C886C50F00B04096C6E000E696E21
:101E440069986C8A120039C02FF03AC030F04E0EF7
:101E5400316E060E326E0D0E336E060E346E460E65
:101E6400356E060E366E9DEC07F012001350150207
:101E7400F3CF17F0F4CF18F013501602F3501826CE
:101E840014501502F350182617C013F018C014F09C
:101E94001200136E000E146E4C50D8A406D013C05A
:101EA4006FFF010E4C6E010E01D0000E146E145023
:101EB4001200000E1A6E010E196E000E1C6E010E39
:101EC4001B6E000E1E6E010E1D6E33EC0EF0120022
:101ED400000E1A6E000E196E000E1C6E000E1B6EA4
:101EE400000E1E6E000E1D6E33EC0EF01200156E09
:101EF400000E146E3A0E156005D02F0E156402D034
:101F0400010E146E14C013F01330120023C01FF01E
:101F140024C020F05EEC08F023C01FF024C020F0A1
:101F2400BDEC08F01200D39ED388D38AD38C030E61
:101F3400D312D298D296D2949B8E9B9C120035C019
:101F44002FF036C030F04A0E316E060E326EDAECE7
:101F54000CF01200C290000E0F01386F000E396FA2
:101F6400000E3A6F120021C019F022C01AF073EC6F
:101F74000BF012009398949294906AEC0FF0120074
:101F840011EC0FF0010EC2EC09F01200000EC2ECCD
:061F940009F0120012002A
:020000040020DA
:08000000FFFFFFFFFFFFFFFF00
:020000040030CA
:0E000000FF081F3CFFBF81FF0FC00FE00F4045
:00000001FF
