:040000003AEF09F0DA
:100600000043616C6962726174696F6E0050535689
:10061000657273696F6E00566F6C74730057617406
:100620007473004C4544420044617461005265613A
:100630006400436F6E6600416D70730032323200A9
:100640003333330034343400454E44004F66660083
:10065000536574003534004F6E000000000E1A6EB2
:1006600016C00DF015C00CF0060E0F6E480E0E6E83
:1006700098EC08F0196E1904D8A408D08AA802D002
:100680008A9801D08A88010E1A6E0DD116C00DF01D
:1006900015C00CF0060E0F6E500E0E6E98EC08F0A2
:1006A000196E1904D8A40DD00A0E15240C6E000E74
:1006B00016200D6E060E0F6E010E0E6E98EC08F0F1
:1006C000F2D016C00DF015C00CF0060E0F6E2D0EF8
:1006D0000E6E98EC08F0196E1904D8B4E4D016C068
:1006E0000DF015C00CF0060E0F6E280E0E6E98EC75
:1006F00008F0196E1904D8A456D00A0E15240C6EF1
:10070000000E16200D6E060E0F6E230E0E6E98EC68
:1007100008F0196E1904D8A4C6D0140E15240C6E56
:10072000000E16200D6E060E0F6E570E0E6E98EC14
:1007300008F0196E1904D8A413D018C00EF017C011
:100740000DF0060E106E500E0F6E060E126E230E7A
:10075000116E060E146E4C0E136ED4EC06F0A3D080
:10076000140E15240C6E000E16200D6E060E0F6E64
:100770004C0E0E6E98EC08F0196E1904D8A493D0A4
:1007800018C00EF017C00DF0060E106E500E0F6E52
:10079000060E126E230E116E060E146E570E136E99
:1007A000D4EC06F080D016C00DF015C00CF0060E8B
:1007B0000F6E320E0E6E98EC08F0196E1904D8A464
:1007C00072D00A0E15240C6E000E16200D6E060E49
:1007D0000F6E230E0E6E98EC08F0196E1904D8A453
:1007E00007D018C012F017C011F087EC09F05BD0E9
:1007F0000A0E15240C6E000E16200D6E060E0F6EDE
:100800001D0E0E6E98EC08F0196E1904D8A407D0CE
:1008100018C012F017C011F087EC09F044D00A0E8E
:1008200015240C6E000E16200D6E060E0F6E170EA0
:100830000E6E98EC08F0196E1904D8A407D018C0F1
:1008400012F017C011F087EC09F02DD00A0E152414
:100850000C6E000E16200D6E060E0F6E370E0E6E0D
:1008600098EC08F0196E1904D8A407D018C012F03B
:1008700017C011F087EC09F016D00A0E15240C6E83
:10088000000E16200D6E060E0F6E0D0E0E6E98ECFD
:1008900008F0196E1904D8A406D018C012F017C0B9
:1008A00011F087EC09F01A501200000E116E000EC4
:1008B000106E000E0F6E000E0E6E0F50800A800F2D
:1008C000050ED8B40E5CD8B07CD00EC001F00FC0BD
:1008D00002F0000E046E0A0E036E27EC09F00150C0
:1008E0000724D96E02500820DA6E000EDF6E0E4A21
:1008F0000F2AE3D7000E116E102A040E10645AD08E
:10090000040E106E57D020EE29F00950D9260A5057
:10091000DA22DF500B6E0B50010DF3500924D96E13
:10092000F4500A20DA6E10500A0D07C00CF008C00F
:100930000DF0F3500C26F4500D221150010DF35020
:100940000C24E16EF4500D20E26EDFCFE7FF112A98
:10095000090E116402D0090E116E10500A0D07C065
:100960000BF008C00CF0F3500B26F4500C22115081
:10097000010DF3500B24D96EF4500C20DA6E000EEA
:10098000DF6E18D020EE29F00950D9260A50DA225D
:10099000DF500B6E0B50010DF3500924D96EF4504B
:1009A0000A20DA6EDF50210AD8B404D01A0AD8B46B
:1009B000A1D7A9D720EE29F00950D9260A50DA226A
:1009C000DF2A20EE29F00950D9260A50DA22DF501A
:1009D0000B6E0B50010DF3500924D96EF4500A2010
:1009E000DA6EDF502A0AD8B4120020EE29F009503E
:1009F000D9260A50DA22DF500B6E280E0B5CD8B0D5
:100A0000120020EE29F00950D9260A50DA2210EE01
:100A100028F00950E1260A50E222E750DF62B2D7FF
:100A20001200000E0B6E000E0A6E000E096E000E14
:100A3000086E3BD003C005F004C006F00A5005263E
:100A40000B50062205C0F6FF06C0F7FF0800F5CFE1
:100A500007F00A500124D96E0B500220DA6EDF50E5
:100A6000075CD8B005D0000E096E010E086E1BD0D1
:100A70000A500124D96E0B500220DA6EDF50056E49
:100A800003C006F004C007F00A5006260B500722E8
:100A900006C0F6FF07C0F7FF0800F550055CD8B0A8
:100AA00002D0086809680A4A0B2A0A500124D96E44
:100AB0000B500220DA6EDF50D8B415D003C005F019
:100AC00004C006F00A5005260B50062205C0F6FFAA
:100AD00006C0F7FF0800F5500009D8B404D009504B
:100AE0000810D8B4A7D70A500124D96E0B500220A1
:100AF000DA6EDF50D8A414D003C005F004C006F0AD
:100B00000A5005260B50062205C0F6FF06C0F7FF67
:100B10000800F5500009D8B403D0086809681ED051
:100B20000A500124D96E0B500220DA6EDF50D8B47F
:100B300015D003C005F004C006F00A5005260B507E
:100B4000062205C0F6FF06C0F7FF0800F5500009B1
:100B5000D8A404D0000E096E010E086E08C001F082
:100B600009C002F012006C9A000E026E010E016EB6
:100B70007DEC08F06C8A6C9E000E596E20EE29F018
:100B80001750D9261850DA22000EDF6E20EE28F01A
:100B90001750D9261850DA22000EDF6E574A582A0D
:100BA0002FD018C016F017C015F0EEEC08F01200A8
:100BB00018C016F017C015F001EC09F0120018C0AB
:100BC00016F017C015F0DBEC08F0120018C016F094
:100BD00017C015F014EC09F0120018C014F017C07B
:100BE00013F078EC09F0120018C014F017C013F0DD
:100BF00069EC09F01200000E586E000E576E1200DC
:100C000057C019F058C01AF01A50000AD8A4F3D7E8
:100C10001950010AD8B4C5D7030AD8B4C9D7010AF4
:100C2000D8B4CDD7070AD8B4D1D7010AD8B4D5D70C
:100C3000030AD8B4D9D7DFD75D50020AD8A402D0AE
:100C4000000E5D6E000E026E070E016EC7EC08F01E
:100C5000066E0604D8A44FD00750210AD8A415D098
:100C60005D04D8B412D0010E5D6E20EE29F0045060
:100C7000D9260550DA22000EDF6E20EE28F004504F
:100C8000D9260550DA22000EDF6E5D04D8A42AD0E2
:100C900020EE28F00450D9260550DA22DF50066EE7
:100CA0000650010DF3500424D96EF4500520DA6E7D
:100CB00007C0DFFF20EE28F00450D9260550DA22C5
:100CC000DF2A20EE28F00450D9260550DA22270E1C
:100CD000DF6408D020EE28F00450D9260550DA222F
:100CE000270EDF6E5D04D8A406D007502A0AD8A4C8
:100CF00002D0020E5D6E5D501200546E5404D8A4F2
:100D00000FD0000E0001B26F000E0001B36F0001A2
:100D1000000E186E00018A0E176EB3EC05F012007B
:100D20000001000E056E0001600E046E1CEC06F062
:100D30005C6E15D00001000E1C6E0001600E1B6E73
:100D40000001000E1E6E00018A0E1D6EB0EC08F050
:100D5000526E5204D8A40DD0010E5A6E0AD05C50C7
:100D6000000AD8B406D0010AD8B403D0030AD8B414
:100D7000E1D70001000E046E00018A0E036E23EC21
:100D800007F0536E81A003D0000E5B6E12005B660D
:100D900008D00001000E186E00018A0E176EB3EC29
:100DA00005F0010E5B6E12000EC002F00DC001F0E6
:100DB000230E036E01EC08F00EC002F00DC001F02E
:100DC000230E036E01EC08F00EC002F00DC001F01E
:100DD000210E036E01EC08F00EC006F00DC005F008
:100DE00010C008F00FC007F0A8EC07F00EC002F02A
:100DF0000DC001F03B0E036E01EC08F00EC006F0D2
:100E00000DC005F012C008F011C007F0A8EC07F003
:100E10000EC002F00DC001F03B0E036E01EC08F0B5
:100E20000EC006F00DC005F014C008F013C007F0A6
:100E3000A8EC07F00EC002F00DC001F02A0E036E00
:100E400001EC08F0120020EE29F00350D9260450DE
:100E5000DA2210EE28F00350E1260450E222E75097
:100E6000DF6206D0010E076E000E5AEC09F031D099
:100E7000000E076E20EE29F00350D9260450DA2226
:100E8000DF50056E0550010DF3500324D96EF45068
:100E90000420DA6EDF505AEC09F0066E0604D8A47E
:100EA00018D020EE29F00350D9260450DA22DF2A88
:100EB00020EE29F00350D9260450DA22270EDF64F1
:100EC00008D020EE29F00350D9260450DA22000E73
:100ED000DF6E075012000EC002F00DC001F0230EAD
:100EE000036E01EC08F00EC002F00DC001F0230EFD
:100EF000036E01EC08F00EC002F00DC001F0210EEF
:100F0000036E01EC08F00EC006F00DC005F010C035
:100F100008F00FC007F0A8EC07F00EC002F00DC0FB
:100F200001F03B0E036E01EC08F00EC006F00DC0A0
:100F300005F012C008F011C007F0A8EC07F00EC0D1
:100F400002F00DC001F02A0E036E01EC08F0120051
:100F5000000E0C6E000E0B6E17D006C002F005C01E
:100F600001F007C009F008C00AF00B5009260C5028
:100F70000A2209C0F6FF0AC0F7FF0800F5CF03F008
:100F800001EC08F00B4A0C2A07C009F008C00AF06F
:100F90000B5009260C500A2209C0F6FF0AC0F7FFC1
:100FA0000800F5500009D8B41200D7D70EC002F0DF
:100FB0000DC001F0230E036E01EC08F00EC002F02C
:100FC0000DC001F0230E036E01EC08F00EC002F01C
:100FD0000DC001F0210E036E01EC08F00EC006F00A
:100FE0000DC005F010C008F00FC007F0A8EC07F026
:100FF0000EC002F00DC001F02A0E036E01EC08F0E5
:10100000120020EE28F00150D9260250DA22DF50DB
:10101000046E0450010DF3500124D96EF4500220E7
:10102000DA6E03C0DFFF20EE28F00150D92602500F
:10103000DA22DF2A20EE28F00150D9260250DA22E7
:10104000270EDF64120020EE28F00150D92602504E
:10105000DA22000EDF6E120092909282939894969C
:10106000949A949C949E0F0138938B8C8B868B8AD8
:101070008B8E6C9A0F0139910F0139930F013995BD
:101080000F01399793809382938493966D9E6D8C14
:101090006C9E6C9C6C9A6C886C50F00B04096C6EA6
:1010A000000E696E69986C8A1200929092829398F1
:1010B0009496949A949C949E0F0138938B8C8B8673
:1010C0008B8A8B8E000E086E000E076E050E075C75
:1010D000000E0858D8B012008A88000E026E190E51
:1010E000016E7DEC08F08A98000E026E190E016EFA
:1010F0007DEC08F0074A082AE9D7000E046E000EBE
:10110000036E0FD0000E066E000E056E640E055CB9
:10111000000E0658D8B003D0054A062AF7D7034A6E
:10112000042A0150035C02500458D8B01200EAD7D8
:101130000DC002F00CC001F00FC004F00EC003F0AF
:1011400011EC05F001C010F002C011F011501010A8
:10115000D8A402D0010E01D0000E126E125012005F
:10116000000E086E1F0E076E1CC00AF01BC009F0AF
:1011700055EC04F0000E166E1F0E156E1EC018F012
:101180001DC017F02EEC03F0516E51501200000EEE
:10119000036E6DA00CD001C0D9FF02C0DAFF6FCF83
:1011A000DFFF010E036E6C9E000E596E02D0000E22
:1011B000036E0350120016C00EF015C00DF0060E9F
:1011C000106E500E0F6E060E126E170E116E060E7A
:1011D000146E3C0E136ED4EC06F0120016C00EF026
:1011E00015C00DF0060E106E500E0F6E060E126E2C
:1011F0000D0E116E060E146E440E136ED4EC06F036
:10120000120016C00EF015C00DF0060E106E500E36
:101210000F6E060E126E1D0E116E060E146E540E1B
:10122000136ED4EC06F0120016C00EF015C00DF0CF
:10123000060E106E500E0F6E060E126E370E116EE9
:10124000060E146E400E136ED4EC06F01200015020
:101250000302F3CF05F0F4CF06F001500402F3507F
:10126000062602500302F350062605C001F006C010
:1012700002F0120000EE60F0540EEE6AE806FDE1A6
:1012800000EE57F0070EEE6AE806FDE1000EF86E7C
:1012900000014BEF09F0000E566E000E556E55EC36
:1012A00008F02CEC08F0010E7DEC06F0000E7DEC51
:1012B00006F0FCD7016E000E026E596606D001C022
:1012C0006FFF010E596E010E01D0000E026E02502A
:1012D000120014C00EF013C00DF0060E106E2D0E8D
:1012E0000F6E060E126E230E116E6BEC07F01200DD
:1012F00014C00EF013C00DF0060E106E2D0E0F6E02
:10130000060E126E010E116E6BEC07F0120012C089
:101310000EF011C00DF0060E106E480E0F6ED6ECDA
:0413200007F01200C0
:020000040020DA
:08000000FFFFFFFFFFFFFFFF00
:020000040030CA
:0E000000FF081F3CFFBF81FF0FC00FE00F4045
:00000001FF
