:04000000E9EF09F02B
:100600000043616C6962726174696F6E0050535689
:10061000657273696F6E00566F6C74730057617406
:100620007473004C4544420044617461005265613A
:100630006400436F6E6600416D70730032323200A9
:100640003333330034343400454E44004F66660083
:10065000536574004F6E0000000E196E15C00CF04B
:1006600016C00DF0480E0E6E060E0F6E47EC09F028
:10067000E806D8A408D08AA802D08A9801D08A882F
:10068000010E196E01D115C00CF016C00DF0500E00
:100690000E6E060E0F6E47EC09F0E806D8A40DD0DA
:1006A0000A0E15240C6E000E16200D6E010E0E6E35
:1006B000060E0F6E47EC09F0E7D015C00CF016C01F
:1006C0000DF02D0E0E6E060E0F6E47EC09F0E806CB
:1006D000D8B4DAD015C00CF016C00DF0280E0E6E8E
:1006E000060E0F6E47EC09F0E806D8A453D00A0EA8
:1006F00015240C6E000E16200D6E230E0E6E060EC7
:100700000F6E47EC09F0E806D8A4BED0140E1524ED
:100710000C6E000E16200D6E540E0E6E060E0F6E31
:1007200047EC09F0E806D8A413D017C00DF018C0A4
:100730000EF0500E0F6E060E106E230E116E060E8A
:10074000126E4C0E136E060E146EB9EC06F09CD0B1
:10075000140E15240C6E000E16200D6E4C0E0E6E2F
:10076000060E0F6E47EC09F0E806D8A48DD017C02E
:100770000DF018C00EF0500E0F6E060E106E230E08
:10078000116E060E126E540E136E060E146EB9EC38
:1007900006F07AD015C00CF016C00DF0320E0E6EB9
:1007A000060E0F6E47EC09F0E806D8A46DD00A0ECD
:1007B00015240C6E000E16200D6E230E0E6E060E06
:1007C0000F6E47EC09F0E806D8A407D017C011F067
:1007D00018C012F028EC0AF057D00A0E15240C6E3F
:1007E000000E16200D6E1D0E0E6E060E0F6E47ECDF
:1007F00009F0E806D8A407D017C011F018C012F00D
:1008000028EC0AF041D00A0E15240C6E000E1620BA
:100810000D6E170E0E6E060E0F6E47EC09F0E80611
:10082000D8A407D017C011F018C012F028EC0AF0B5
:100830002BD00A0E15240C6E000E16200D6E370EEE
:100840000E6E060E0F6E47EC09F0E806D8A407D02E
:1008500017C011F018C012F028EC0AF015D00A0EDB
:1008600015240C6E000E16200D6E0D0E0E6E060E6B
:100870000F6E47EC09F0E806D8A406D017C011F0B7
:1008800018C012F028EC0AF019501200000E116E78
:10089000000E106E000E0F6E000E0E6E0FBE08D012
:1008A0000F5005E1050E0E5CD8B082D001D080D08B
:1008B0000EC001F00FC002F0000E046E0A0E036EAF
:1008C000D6EC09F001500724D96E02500820DA6EE8
:1008D000000EDF6E0E4A0F2A0FBEEAD70F5068E1F6
:1008E000E1D7000E116E102A040E10645AD0040EC7
:1008F000106E57D020EE29F00950D9260A50DA227E
:10090000DF500B6E0B50010DF3500924D96EF450DB
:100910000A20DA6E10500A0D07C00CF008C00DF066
:10092000F3500C26F4500D221150010DF3500C24FD
:10093000E16EF4500D20E26EDFCFE7FF112A090EC1
:10094000116402D0090E116E10500A0D07C00BF091
:1009500008C00CF0F3500B26F4500C221150010D7E
:10096000F3500B24D96EF4500C20DA6E000EDF6EBB
:1009700018D020EE29F00950D9260A50DA22DF508B
:100980000B6E0B50010DF3500924D96EF4500A2060
:10099000DA6EDF50210AD8B404D01A0AD8B4A1D72D
:1009A000A9D720EE29F00950D9260A50DA22DF2AE9
:1009B00020EE29F00950D9260A50DA22DF500B6EBA
:1009C0000B50010DF3500924D96EF4500A20DA6E51
:1009D0002A0EDE18D8B4120020EE29F00950D926CC
:1009E0000A50DA22280EDF60120020EE28F00950AB
:1009F000D9260A50DA2210EE29F00950E1260A50D1
:100A0000E222DE50E618D8B41200B3D7000E0B6E07
:100A1000000E0A6E000E096E000E086E35D00A50E8
:100A20000124D96E0B500220DA6E0A500324066EA0
:100A30000B500420076E06C0F6FF07C0F7FFDE501C
:100A40000900F55CD8B005D0000E096E010E086EE5
:100A500019D00A500124D96E0B500220DA6EDF50F3
:100A6000056E0A500324066E0B500420076E06C064
:100A7000F6FF07C0F7FF0800F550055CD8B002D0BC
:100A8000086809680A4A0B2A0A500124D96E0B50DB
:100A90000220DA6EDF50D8B413D00A500324056E5A
:100AA0000B500420066E05C0F6FF06C0F7FF0800D5
:100AB000F5500009D8B404D008500910D8B4AFD705
:100AC0000A500124D96E0B500220DA6EDF50D8A4F0
:100AD00012D00A500324056E0B500420066E05C088
:100AE000F6FF06C0F7FF0800F5500009D8B403D0A0
:100AF000086809681CD00A500124D96E0B500220E6
:100B0000DA6EDF50D8B413D00A500324056E0B50B0
:100B10000420066E05C0F6FF06C0F7FF0800F5507A
:100B20000009D8A404D0000E096E010E086E08C09A
:100B300001F009C002F012006C9A060E206E300E11
:100B4000E82EFED7202EFCD700D06C8A6C9E000EBB
:100B50005B6E20EE29F01E50D9261F50DA22000EBF
:100B6000DF6E20EE28F01E50D9261F50DA22000E2C
:100B7000DF6E594A5A2A2FD01EC015F01FC016F03A
:100B8000B0EC09F012001EC015F01FC016F0EAEC20
:100B900008F012001EC015F01FC016F09DEC09F001
:100BA00012001EC015F01FC016F0C3EC09F01200B1
:100BB0001EC013F01FC014F019EC0AF012001EC082
:100BC00013F01FC014F00AEC0AF01200000E5A6E67
:100BD000000E596E120059C020F05AC021F0215069
:100BE000000AD8A4F3D72050010AD8B4C5D7030A05
:100BF000D8B4C9D7010AD8B4CDD7070AD8B4D1D749
:100C0000010AD8B4D5D7030AD8B4D9D7DFD7020E92
:100C10005F18D8A402D0000E5F6E070E016E000EA2
:100C2000026E76EC09F0E806D8A44FD0210E071822
:100C3000D8A415D05F04D8B412D0010E5F6E20EE98
:100C400029F00450D9260550DA22000EDF6E20EE7E
:100C500028F00450D9260550DA22000EDF6E5F041A
:100C6000D8A42AD020EE28F00450D9260550DA2244
:100C7000DF50066E0650010DF3500424D96EF45077
:100C80000520DA6E07C0DFFF20EE28F00450D926D9
:100C90000550DA22DF2A20EE28F00450D92605502C
:100CA000DA22270EDF6408D020EE28F00450D9267F
:100CB0000550DA22270EDF6E5F04D8A406D02A0E74
:100CC0000718D8A402D0020E5F6E5F5012000AC04F
:100CD0000EF00BC00FF00EC001F00FC002F00CC000
:100CE00003F00DC004F098EC08F001C00EF002C053
:100CF0000FF0084A092A0E500F10D8A4ECD708C0EC
:100D0000D9FF09C0DAFF000EDF6E0806D8A0090679
:100D10000AC001F00BC002F00CC003F00DC004F0DB
:100D20000DEC09F00150106E0AC001F00BC002F08A
:100D30000CC003F00DC004F098EC08F001C00AF0FC
:100D400002C00BF0090E106402D0070E1026300E00
:100D5000102608C0D9FF09C0DAFF10C0DFFF08065F
:100D6000D8A009060A500B10D8A4D2D7084A092ADD
:100D700012000DC001F00EC002F0230E036E6DECE8
:100D800008F00DC001F00EC002F0230E036E6DECF2
:100D900008F00DC001F00EC002F0210E036E6DECE4
:100DA00008F00DC005F00EC006F00FC007F010C02F
:100DB00008F09BEC07F00DC001F00EC002F03B0EF6
:100DC000036E6DEC08F00DC005F00EC006F011C00A
:100DD00007F012C008F09BEC07F00DC001F00EC048
:100DE00002F03B0E036E6DEC08F00DC005F00EC076
:100DF00006F013C007F014C008F09BEC07F00DC01C
:100E000001F00EC002F02A0E036E6DEC08F0120025
:100E1000526E5204D8A40DD0000E0001B26F000E25
:100E20000001B36F8A0E1E6E000E1F6E9CEC05F063
:100E30001200600E046E000E056E07EC06F05E6E8A
:100E400010D0600E1A6E000E1B6E8A0E1C6E000E05
:100E50001D6E5FEC09F0E806D8A40DD0010E5C6EA3
:100E60000AD05E50000AD8B406D0010AD8B403D024
:100E7000030AD8B4E6D78A0E036E000E046E53EC54
:100E800007F0516E81A003D0000E5D6E12005D5020
:100E9000D8A406D08A0E1E6E000E1F6E9CEC05F0C4
:100EA000010E5D6E120020EE28F00350D92604508A
:100EB000DA2210EE29F00350E1260450E222DE503F
:100EC000E618D8A406D0010E076E000EFAEC09F061
:100ED00030D0000E076E20EE29F00350D9260450C2
:100EE000DA22DF50056E0550010DF3500324D96E50
:100EF000F4500420DA6EDF50FAEC09F0E806D8A4CA
:100F000018D020EE29F00350D9260450DA22DF2A27
:100F100020EE29F00350D9260450DA22270EDF6490
:100F200008D020EE29F00350D9260450DA22000E12
:100F3000DF6E07501200000E0C6E000E0B6E1FD0FD
:100F400005C001F006C002F00B500724096E0C50DA
:100F500008200A6E09C0F6FF0AC0F7FFF86A050EFE
:100F6000F76403D00800F55005D0F6CFE1FFF7CFC6
:100F7000E2FFE750036E6DEC08F00B4A0C2A0B50B1
:100F80000724096E0C5008200A6E09C0F6FF0AC03B
:100F9000F7FFF86A050EF76403D00800F55005D096
:100FA000F6CFE1FFF7CFE2FFE7500009D8B4120017
:100FB000C7D70DC001F00EC002F0230E036E6DEC1A
:100FC00008F00DC001F00EC002F0230E036E6DECB0
:100FD00008F00DC001F00EC002F0210E036E6DECA2
:100FE00008F00DC005F00EC006F00FC007F010C0ED
:100FF00008F09BEC07F00DC001F00EC002F03B0EB4
:10100000036E6DEC08F00DC005F00EC006F011C0C7
:1010100007F012C008F09BEC07F00DC001F00EC005
:1010200002F02A0E036E6DEC08F01200000E546EF2
:10103000000E536E8AEC09F0C1EC08F0000E566EFB
:10104000000E556E56BE06D0565015E10A0E555C80
:10105000D8B011D08A88000E026E0A0E016E2EECF6
:1010600009F08A98000E026E0A0E016E2EEC09F04D
:10107000554A562AE7D7010E08EC07F0000E08EC97
:1010800007F0FCD70DC001F00EC002F0230E036E76
:101090006DEC08F00DC001F00EC002F0230E036EDF
:1010A0006DEC08F00DC001F00EC002F0210E036ED1
:1010B0006DEC08F00DC005F00EC006F00FC007F093
:1010C00010C008F09BEC07F00DC001F00EC002F05C
:1010D0002A0E036E6DEC08F0120020EE28F001508D
:1010E000D9260250DA22DF50046E0450010DF3506D
:1010F0000124D96EF4500220DA6E03C0DFFF20EE27
:1011000028F00150D9260250DA22DF2A20EE28F0FA
:101110000150D9260250DA22270EDF64120020EE99
:1011200028F00150D9260250DA22000EDF6E12009C
:10113000000E066E000E056E03500410D8B41CD0CD
:10114000010E076E04D0D89003360436072A04AE89
:10115000FAD7D890053606360350015C0450025881
:10116000D8A005D00350015E0450025A0580D890E3
:1011700004320332072EEDD705C001F006C002F09D
:1011800012009290928293989496949A949C949E32
:101190000F0138938B8C8B868B8A8B8E6C9A0F0108
:1011A00039910F0139930F0139950F0139979380C8
:1011B0009382938493966D9E6D8C6C9E6C9C6C9ABE
:1011C0006C886C50F00B04096C6E000E696E6998A7
:1011D0006C8A1200170E086E000E096E57C00AF0D6
:1011E00058C00BF0000E0D6E0A0E0C6E67EC06F088
:1011F00015C00DF016C00EF0500E0F6E060E106EDC
:101200001D0E116E060E126E170E136E000E146E6A
:10121000B9EC06F0574A582A120003500410D8B40B
:1012200018D0010E056E04D0D89003360436052A76
:1012300004AEFAD70350015C04500258D8A004D081
:101240000350015E0450025AD89004320332052E36
:10125000F1D701C001F002C002F01200000E056ECD
:10126000000E046E09D0340E036EF20EE82EFED787
:10127000032EFCD7044A052A0150045C0550800A5D
:10128000036E0250800A0358D8B01200ECD70CC08D
:1012900001F00DC002F00EC003F00FC004F006EC28
:1012A00005F001C010F002C011F010501110D8A4C8
:1012B00002D0010E01D0000E126E125012001E0E4E
:1012C000076E000E086E1AC009F01BC00AF046EC4B
:1012D00004F01E0E156E000E166E1CC017F01DC019
:1012E00018F02CEC03F0506E50501200000E036EFC
:1012F0006DA00CD001C0D9FF02C0DAFF6FCFDFFFB5
:10130000010E036E6C9E000E5B6E02D0000E036E2B
:1013100003501200D39ED388D38AD38C030ED312EA
:10132000D298D296D2949B8E9B9C929092829398C4
:10133000949C0F0138938B8C120015C00DF016C0D1
:101340000EF0500E0F6E060E106E170E116E060E7A
:10135000126E3C0E136E060E146EB9EC06F01200FF
:1013600015C00DF016C00EF0500E0F6E060E106E6A
:101370000D0E116E060E126E440E136E060E146ED6
:10138000B9EC06F0120015C00DF016C00EF0500EAC
:101390000F6E060E106E370E116E060E126E400E98
:1013A000136E060E146EB9EC06F012000150030223
:1013B000F3CF05F0F4CF06F001500402F3500626F7
:1013C00002500302F350062605C001F006C002F0E9
:1013D000120000EE60F0540EEE6AE806FDE100EE49
:1013E00057F0090EEE6AE806FDE1000EF86E000106
:1013F00016EF08F0016E000E026E5B50D8A406D006
:1014000001C06FFF010E5B6E010E01D0000E026E77
:101410000250120013C00DF014C00EF02D0E0F6E0E
:10142000060E106E230E116E060E126ED9EC07F02A
:10143000120013C00DF014C00EF02D0E0F6E060E2C
:10144000106E010E116E060E126ED9EC07F012002E
:1014500011C00DF012C00EF0480E0F6E060E106E89
:0614600042EC08F012004E
:020000040020DA
:08000000FFFFFFFFFFFFFFFF00
:020000040030CA
:0E000000FF081F3CFFBF81FF0FC00FE00F4045
:00000001FF
