:040000004EEF00F0CF
:10000800FACF01F0FBCF02F0E9CF03F0EACF04F01A
:10001800E1CF05F0E2CF06F0D9CF07F0DACF08F04C
:10002800F3CF09F0F4CF0AF0F6CF0BF0F7CF0CF0CE
:10003800F8CF0DF0F5CF0EF0F294FC0ED76E180E37
:10004800D66E010E4A26000E4B224C224D22010E7E
:100058004E26000E4F22502251220EC0F5FF0DC031
:10006800F8FF0CC0F7FF0BC0F6FF0AC0F4FF09C089
:10007800F3FF08C0DAFF07C0D9FF06C0E2FF05C0DA
:10008800E1FF04C0EAFF03C0E9FF02C0FBFF01C0B3
:08009800FAFF11006FEF0CF0FC
:100600000043616C6962726174696F6E0050535689
:10061000657273696F6E00456E5573656400566F41
:100620006C7473005761747473004C454442004409
:10063000617461005265616400436F6E6600416DD4
:1006400070730032323200333333003434340045B7
:100650004E44004F666600536574004F6E00000004
:10066000000E326E2DC01BF02CC01AF0060E1D6E4F
:100670004F0E1C6E0BEC0CF0306E3004D8A403D07F
:10068000010E326E52D12DC01BF02CC01AF0060E96
:100690001D6E570E1C6E0BEC0CF0306E3004D8A49F
:1006A0003BD00A0E2C241A6E000E2D201B6E060E57
:1006B0001D6E010E1C6E0BEC0CF0306E3004D8B4C5
:1006C00034D10A0E2C241A6E000E2D201B6E060E3D
:1006D0001D6E170E1C6E0BEC0CF0306E3004D8A49F
:1006E00024D1140E2C24306E000E2D20316E30C01B
:1006F0001BF031C01CF0FEEC06F01BC03AF01CC031
:100700003BF01DC03CF01EC03DF02FC024F02EC0B9
:1007100023F077EC0BF009D12DC01BF02CC01AF0A0
:10072000060E1D6E340E1C6E0BEC0CF0306E300499
:10073000D8B4FBD02DC01BF02CC01AF0060E1D6ED5
:100740002F0E1C6E0BEC0CF0306E3004D8A456D07B
:100750000A0E2C241A6E000E2D201B6E060E1D6E26
:100760002A0E1C6E0BEC0CF0306E3004D8A4DDD0D9
:10077000140E2C241A6E000E2D201B6E060E1D6EFC
:100780005B0E1C6E0BEC0CF0306E3004D8A413D052
:100790002FC01CF02EC01BF0060E1E6E570E1D6ED5
:1007A000060E206E2A0E1F6E060E226E530E216E4E
:1007B0008CEC08F0BAD0140E2C241A6E000E2D20EA
:1007C0001B6E060E1D6E530E1C6E0BEC0CF0306E85
:1007D0003004D8A4AAD02FC01CF02EC01BF0060EE7
:1007E0001E6E570E1D6E060E206E2A0E1F6E060E12
:1007F000226E5B0E216E8CEC08F097D02DC01BF0A2
:100800002CC01AF0060E1D6E390E1C6E0BEC0CF08F
:10081000306E3004D8A489D00A0E2C241A6E000E33
:100820002D201B6E060E1D6E2A0E1C6E0BEC0CF09E
:10083000306E3004D8A407D02FC020F02EC01FF097
:10084000C8EC0CF072D00A0E2C241A6E000E2D206B
:100850001B6E060E1D6E240E1C6E0BEC0CF0306E23
:100860003004D8A407D02FC020F02EC01FF0C8EC51
:100870000CF05BD00A0E2C241A6E000E2D201B6E7D
:10088000060E1D6E170E1C6E0BEC0CF0306E300455
:10089000D8A407D02FC020F02EC01FF0C8EC0CF059
:1008A00044D00A0E2C241A6E000E2D201B6E060E4C
:1008B0001D6E1E0E1C6E0BEC0CF0306E3004D8A4B6
:1008C00007D02FC020F02EC01FF0C8EC0CF02DD0A8
:1008D0000A0E2C241A6E000E2D201B6E060E1D6EA5
:1008E0003E0E1C6E0BEC0CF0306E3004D8A407D01A
:1008F0002FC020F02EC01FF0C8EC0CF016D00A0E4E
:100900002C241A6E000E2D201B6E060E1D6E0D0E71
:100910001C6E0BEC0CF0306E3004D8A406D02FC047
:1009200020F02EC01FF0C8EC0CF032501200000E68
:100930001F6E000E1E6E000E1D6E000E1C6E1D50F2
:10094000800A800F050ED8B41C5CD8B07CD01CC0C7
:100950000FF01DC010F0000E126E0A0E116E4AEC60
:100960000CF00F501524D96E10501620DA6E000EC0
:10097000DF6E1C4A1D2AE3D7000E1F6E1E2A040ECE
:100980001E645AD0040E1E6E57D020EE29F0175068
:10099000D9261850DA22DF50196E1950010DF35084
:1009A0001724D96EF4501820DA6E1E500A0D15C0A7
:1009B0001AF016C01BF0F3501A26F4501B221F50D9
:1009C000010DF3501A24E16EF4501B20E26EDFCFCC
:1009D000E7FF1F2A090E1F6402D0090E1F6E1E506A
:1009E0000A0D15C019F016C01AF0F3501926F4506C
:1009F0001A221F50010DF3501924D96EF4501A20F9
:100A0000DA6E000EDF6E18D020EE29F01750D926CE
:100A10001850DA22DF50196E1950010DF3501724C7
:100A2000D96EF4501820DA6EDF50210AD8B404D001
:100A30001A0AD8B4A1D7A9D720EE29F01750D92681
:100A40001850DA22DF2A20EE29F01750D926185044
:100A5000DA22DF50196E1950010DF3501724D96EA8
:100A6000F4501820DA6EDF502A0AD8B4120020EEB3
:100A700029F01750D9261850DA22DF50196E280EA7
:100A8000195CD8B0120020EE29F01750D926185062
:100A9000DA2210EE28F01750E1261850E222E75033
:100AA000DF62B2D71200000E196E000E186E000E33
:100AB000176E000E166E3BD011C013F012C014F06A
:100AC000185013261950142213C0F6FF14C0F7FF54
:100AD0000800F5CF15F018500F24D96E19501020CA
:100AE000DA6EDF50155CD8B005D0000E176E010E1F
:100AF000166E1BD018500F24D96E19501020DA6EC4
:100B0000DF50136E11C014F012C015F018501426E7
:100B10001950152214C0F6FF15C0F7FF0800F55054
:100B2000135CD8B002D016681768184A192A1850F2
:100B30000F24D96E19501020DA6EDF50D8B415D0BA
:100B400011C013F012C014F01850132619501422BB
:100B500013C0F6FF14C0F7FF0800F5500009D8B421
:100B600004D017501610D8B4A7D718500F24D96E38
:100B700019501020DA6EDF50D8A414D011C013F031
:100B800012C014F0185013261950142213C0F6FF87
:100B900014C0F7FF0800F5500009D8B403D0166858
:100BA00017681ED018500F24D96E19501020DA6E15
:100BB000DF50D8B415D011C013F012C014F0185083
:100BC00013261950142213C0F6FF14C0F7FF0800B3
:100BD000F5500009D8A404D0000E176E010E166E51
:100BE00016C00FF017C010F01200000E246E000E99
:100BF000236E000E216E000E206E000E226E82A467
:100C00002DD046662DD0010E466E010E0F6E000EE1
:100C1000106E000E116E000E126E4AC013F04BC023
:100C200014F04CC015F04DC016F0B1EC09F00FC037
:100C30001CF010C01DF011C01EF012C01FF01CC02F
:100C400023F01DC024F0010E226E000E4A6E000E2D
:100C50004B6E000E4C6E000E4D6E02D0000E466EB6
:100C600080A232D0476630D0010E476E050E0F6E5F
:100C7000000E106E000E116E000E126E4EC013F0BC
:100C80004FC014F050C015F051C016F0B1EC09F08F
:100C90000FC01CF010C01DF011C01EF012C01FF0DC
:100CA0001CC020F01DC021F0050E3A26000E3B228C
:100CB0003C223D22010E226E000E4E6E000E4F6E43
:100CC000000E506E000E516E2204D8A41200245063
:100CD000800AF36E800EF35C000ED8B4235CD8B0AB
:100CE00005D023C03EF024C03FF0120020C03EF0EB
:100CF00021C03FF012001EC028F01FC029F020C004
:100D00002AF021C02BF028C00FF029C010F02AC013
:100D100011F02BC012F022C013F023C014F0000E0B
:100D200014BEFF0E156E166EB1EC09F00FC028F060
:100D300010C029F011C02AF012C02BF01C4A1D2A45
:100D40002B50281029102A10D8A4DDD71CC0D9FF99
:100D50001DC0DAFF000EDF6E1C06D8A01D061EC0E7
:100D60000FF01FC010F020C011F021C012F022C0FF
:100D700013F023C014F0000E14BEFF0E156E166E95
:100D8000F2EC09F00FC024F010C025F011C026F0DD
:100D900012C027F024502C6E1EC00FF01FC010F0A0
:100DA00020C011F021C012F022C013F023C014F0B3
:100DB000000E14BEFF0E156E166EB1EC09F00FC0DA
:100DC0001EF010C01FF011C020F012C021F0090E5B
:100DD0002C6402D0070E2C26300E2C261CC0D9FF06
:100DE0001DC0DAFF2CC0DFFF1C06D8A01D06215055
:100DF0001E101F102010D8B41200B1D71BC0D9FF8D
:100E00001CC0DAFFDF50296E1B4A1C2A2950200A19
:100E1000D8B4F4D72950090AD8B4F0D7000E256EFB
:100E2000000E266E000E276E000E286E000E246E39
:100E300029502D0AD8A402D0242A2FD029502B0AB9
:100E4000D8A433D02AD025C00FF026C010F027C078
:100E500011F028C012F00A0E136E000E146E000E70
:100E6000156E000E166EABEC0AF00FC01FF010C02E
:100E700020F011C021F012C022F029C023F0D00EC2
:100E8000232623501F24256E000E2020266E000EE0
:100E90002120276E000E2220286E1BC0D9FF1CC007
:100EA000DAFFDF50296E1B4A1C2A295091EC0CF006
:100EB000D8B0C9D72450D8B41AD025C01FF026C046
:100EC00020F027C021F028C022F01F1E201E211E66
:100ED000221E1F2A000E2022212222221FC01BF0C8
:100EE00020C01CF021C01DF022C01EF0120025C041
:100EF0001BF026C01CF027C01DF028C01EF01200F9
:100F00004950020AD8A402D0000E496E000E106E9D
:100F1000150E0F6E23EC0CF0146E1404D8A44FD0F1
:100F20001550210AD8A415D04904D8B412D0010E06
:100F3000496E20EE29F01250D9261350DA22000E05
:100F4000DF6E20EE28F01250D9261350DA22000E60
:100F5000DF6E4904D8A42AD020EE28F01250D926FA
:100F60001350DA22DF50146E1450010DF350122486
:100F7000D96EF4501320DA6E15C0DFFF20EE28F092
:100F80001250D9261350DA22DF2A20EE28F0125010
:100F9000D9261350DA22270EDF6408D020EE28F07D
:100FA0001250D9261350DA22270EDF6E4904D8A436
:100FB00006D015502A0AD8A402D0020E496E495014
:100FC0001200396E3904D8A411D029EC0BF0000EB0
:100FD0000001B26F000E0001B36F0001000E306E11
:100FE00000018A0E2F6EDBEC08F012000001000EEB
:100FF000136E0001600E126E80EC07F0456E15D086
:101000000001000E346E0001600E336E0001000E10
:10101000366E00018A0E356EB9EC0BF0376E370470
:10102000D8A40DD0010E436E0AD04550000AD8B4A2
:1010300006D0010AD8B403D0030AD8B4E1D700011E
:10104000000E126E00018A0E116E27EC09F0386E48
:1010500081A003D0000E446E1200446608D0000147
:10106000000E306E00018A0E2F6EDBEC08F0010ED0
:10107000446E120018C01CF019C01DF01CC00FF007
:101080001DC010F01AC011F01BC012F000EC0BF0E4
:101090000FC01CF010C01DF0164A172A1D501C105E
:1010A000D8A4ECD716C0D9FF17C0DAFF000EDF6E48
:1010B0001606D8A0170618C00FF019C010F01AC0F5
:1010C00011F01BC012F098EC0BF00F501E6E18C000
:1010D0000FF019C010F01AC011F01BC012F000EC94
:1010E0000BF00FC018F010C019F0090E1E6402D0EA
:1010F000070E1E26300E1E2616C0D9FF17C0DAFFB7
:101100001EC0DFFF1606D8A0170619501810D8A465
:10111000D2D7164A172A12001CC010F01BC00FF0BD
:10112000230E116E80EC0AF01CC010F01BC00FF0F3
:10113000230E116E80EC0AF01CC010F01BC00FF0E3
:10114000210E116E80EC0AF01CC014F01BC013F0CD
:101150001EC016F01DC015F06FEC09F01CC010F099
:101160001BC00FF03B0E116E80EC0AF01CC014F097
:101170001BC013F020C016F01FC015F06FEC09F073
:101180001CC010F01BC00FF03B0E116E80EC0AF07B
:101190001CC014F01BC013F022C016F021C015F0C3
:1011A0006FEC09F01CC010F01BC00FF02A0E116E7E
:1011B00080EC0AF012006C9A060E316E300EE82EAA
:1011C000FED7312EFCD700D06C8A6C9E000E426E8A
:1011D00020EE29F02F50D9263050DA22000EDF6E93
:1011E00020EE28F02F50D9263050DA22000EDF6E84
:1011F000404A412A19D030C024F02FC023F037ECE8
:101200000CF0120030C02EF02FC02DF0D6EC0AF0FA
:10121000120030C024F02FC023F077EC0BF0000E4A
:10122000416E000E406E120040C031F041C032F0FD
:101230003250000AD8A4F3D73150010AD8B4DBD712
:10124000030AD8B4DFD7010AD8B4E3D7E8D720EE31
:1012500029F01150D9261250DA2210EE28F0115040
:10126000E1261250E222E750DF6206D0010E156E31
:10127000000EA1EC0CF031D0000E156E20EE29F01E
:101280001150D9261250DA22DF50136E1350010D7F
:10129000F3501124D96EF4501220DA6EDF50A1EC15
:1012A0000CF0146E1404D8A418D020EE29F01150BC
:1012B000D9261250DA22DF2A20EE29F01150D92641
:1012C0001250DA22270EDF6408D020EE29F01150E8
:1012D000D9261250DA22000EDF6E15501200000ED1
:1012E0001A6E000E196E21D014C010F013C00FF04A
:1012F00015C017F016C018F0195017261A501822EA
:1013000017C0F6FF18C0F7FFF86A050EF76403D0A0
:101310000800F55005D0F6CFE1FFF7CFE2FFE75028
:10132000116E80EC0AF0194A1A2A15C017F016C07F
:1013300018F0195017261A50182217C0F6FF18C0B7
:10134000F7FFF86A050EF76403D00800F55005D0E2
:10135000F6CFE1FFF7CFE2FFE7500009D8B4120063
:10136000C3D7000E176E000E186E000E196E000E19
:101370001A6E1650131014101510D8B42AD0010E7E
:101380001B6E06D0D89013361436153616361B2A27
:1013900016AEF8D7D8901736183619361A361350B5
:1013A0000F5C145010581550115816501258D8A0F0
:1013B00009D013500F5E1450105A1550115A165080
:1013C000125A1780D89016321532143213321B2E4F
:1013D000E1D717C00FF018C010F019C011F01AC0F3
:1013E00012F012001650131014101510D8B424D097
:1013F000010E176E06D0D8901336143615361636F1
:10140000172A16AEF8D713500F5C14501058155009
:10141000115816501258D8A008D013500F5E14500F
:10142000105A1550115A1650125AD89016321532B9
:1014300014321332172EE7D70FC00FF010C010F080
:1014400011C011F012C012F01200D3EC0CF0000E1B
:101450000001E86F000E0001E76F0001E851800A0B
:10146000800F0A0ED8B4E75DD8B012D08A88000E7B
:10147000106E0A0E0F6EF2EC0BF08A98000E106ED2
:101480000A0E0F6EF2EC0BF00001E74BE82BE5D7EC
:10149000B0EC0CF0010EE1EC07F0000EE1EC07F00F
:1014A00080EC0CF0F5EC05F0F8D71CC010F01BC078
:1014B0000FF0230E116E80EC0AF01CC010F01BC060
:1014C0000FF0230E116E80EC0AF01CC010F01BC050
:1014D0000FF0210E116E80EC0AF01CC014F01BC03E
:1014E00013F01EC016F01DC015F06FEC09F01CC003
:1014F00010F01BC00FF02A0E116E80EC0AF01200E3
:1015000020EE28F00F50D9261050DA22DF50126E4C
:101510001250010DF3500F24D96EF4501020DA6EE2
:1015200011C0DFFF20EE28F00F50D9261050DA222C
:10153000DF2A20EE28F00F50D9261050DA22270E8D
:10154000DF64120020EE28F00F50D9261050DA2266
:10155000000EDF6E1200000E176E000E186E000EE9
:10156000196E000E1A6E0FA008D0135017261450D3
:1015700018221550192216501A22D89013361436F4
:1015800015361636D8901232113210320F321250F0
:101590000F1010101110D8A4E6D717C00FF018C004
:1015A00010F019C011F01AC012F012000001000E64
:1015B0001D6E0001B40E1C6E3EC01EF03FC01FF039
:1015C000000E1FBEFF0E206E216E000E236E0A0E4F
:1015D000226E7BEC06F02EC01CF02DC01BF0060E18
:1015E0001E6E570E1D6E060E206E240E1F6E00011D
:1015F000000E226E0001B40E216E8CEC08F0120079
:10160000000E156E000E146E12501110D8B41CD0BE
:10161000010E136E04D0D89011361236132A12AE72
:10162000FAD7D8901436153611500F5C1250105856
:10163000D8A005D011500F5E1250105A1480D890C7
:1016400012321132132EEDD714C00FF015C010F066
:101650001200929092829496949A949C949E0F0178
:1016600038938B8C8B868B8A8B8E6C9A0F01399179
:101670000F0139930F0139950F01399793809382A8
:10168000938493966D9E6D8C6C9E6C9C6C9A6C880A
:101690006C50F00B04096C6E000E696E69986C8AD0
:1016A0001200000EF26E000EF16E000EF06ED09E73
:1016B000000E9E6E000EA16E000EA46E000E7B6EDC
:1016C000000E7E6E000E9D6E000EA06E000EA36ECC
:1016D000000E7A6E000E7D6E000E9F6E000EA26EE2
:1016E000000EA56E000E7C6E000E7F6E1200000EC6
:1016F000176E250E166E3AC018F03BC019F0000E9A
:101700001B6E0A0E1A6E3AEC08F024C01CF023C0BF
:101710001BF0060E1E6E570E1D6E060E206E170E67
:101720001F6E000E226E250E216E8CEC08F012004A
:1017300012501110D8B418D0010E136E04D0D890E6
:1017400011361236132A12AEFAD711500F5C12500E
:101750001058D8A004D011500F5E1250105AD890D3
:1017600012321132132EF1D70FC00FF010C010F04B
:1017700012000001000E166E0001B40E156E34C08A
:1017800018F033C017F097EC04F00001000E2D6E36
:101790000001B40E2C6E36C02FF035C02EF030ECA8
:1017A00003F00001E66F0001E65112008B9C060E6B
:1017B000146E300EE82EFED7142EFCD700D08B8E80
:1017C0008B8A8B86060E146E300EE82EFED7142EF2
:1017D000FCD700D08B8C000E106E0A0E0F6EF2EC50
:1017E0000BF01200000E136E000E126E09D0340EB4
:1017F000116EF20EE82EFED7112EFCD7124A132AD4
:101800001350800A116E0F50125C1050800A11584C
:10181000D8B01200ECD71BC010F01AC00FF01DC0DA
:1018200012F01CC011F053EC05F00FC01EF010C0F8
:101830001FF01F501E10D8A402D0010E01D0000EC0
:10184000206E20501200000E116E6DA00CD00FC043
:10185000D9FF10C0DAFF6FCFDFFF010E116E6C9E53
:10186000000E426E02D0000E116E1150120024C004
:101870001CF023C01BF0060E1E6E570E1D6E060ECA
:10188000206E0D0E1F6E060E226E4B0E216E8CEC1E
:1018900008F012000F501102F3CF13F0F4CF14F040
:1018A0000F501202F350142610501102F350142658
:1018B00013C00FF014C010F01200C290000E0F0100
:1018C000386F000E0F01396F000E0F013A6F9398B9
:1018D0008A989484928292908990949C120000EE4F
:1018E00060F0540EEE6AE806FDE100EE3AF0180EE4
:1018F000EE6AE806FDE1000EF86E000125EF0AF041
:1019000080A20BD0898048661200010E486E81A823
:1019100002D08A9812008A8812008990000E486EC0
:101920001200116E000E106E3A0E115CD8B005D088
:101930002F0E116402D0010E106E10C00FF00F3088
:1019400012000F6E000E106E426606D00FC06FFFC1
:10195000010E426E010E01D0000E106E10501200EA
:10196000D59ED59CD59AD596D550F80B0109D56E44
:10197000F28AF28ED58E1200D39ED388D38AD38C6E
:10198000030ED312D298D296D2949B8E9B9C1200B7
:1019900020C01CF01FC01BF0060E1E6E4F0E1D6EE9
:1019A00055EC0AF01200BCEC0CF05DEC0CF051ECC4
:0819B0000BF0D6EC0BF0120065
:020000040020DA
:08000000FFFFFFFFFFFFFFFF00
:020000040030CA
:0E000000FF081F3CFFBF81FF0FC00FE00F4045
:00000001FF
