:04000000F8EF09F01C
:100600000043616C6962726174696F6E0050535689
:10061000657273696F6E00566F6C74730057617406
:100620007473004C4544420044617461005265613A
:100630006400436F6E6600416D70730032323200A9
:100640003333330034343400454E44004F66660083
:10065000536574004F6E0000000E1A6E16C00DF048
:1006600015C00CF0060E0F6E480E0E6E69EC09F008
:10067000196E1904D8A408D08AA802D08A9801D08B
:100680008A88010E1A6E0DD116C00DF015C00CF03F
:10069000060E0F6E500E0E6E69EC09F0196E1904FD
:1006A000D8A40DD00A0E15240C6E000E16200D6E67
:1006B000060E0F6E010E0E6E69EC09F0F2D016C038
:1006C0000DF015C00CF0060E0F6E2D0E0E6E69ECBF
:1006D00009F0196E1904D8B4E4D016C00DF015C095
:1006E0000CF0060E0F6E280E0E6E69EC09F0196EF6
:1006F0001904D8A456D00A0E15240C6E000E16202C
:100700000D6E060E0F6E230E0E6E69EC09F0196E5B
:100710001904D8A4C6D0140E15240C6E000E162091
:100720000D6E060E0F6E540E0E6E69EC09F0196E0A
:100730001904D8A413D018C00EF017C00DF0060E7F
:10074000106E500E0F6E060E126E230E116E060EF8
:10075000146E4C0E136E24EC07F0A3D0140E152467
:100760000C6E000E16200D6E060E0F6E4C0E0E6EE9
:1007700069EC09F0196E1904D8A493D018C00EF0D2
:1007800017C00DF0060E106E500E0F6E060E126E94
:10079000230E116E060E146E540E136E24EC07F029
:1007A00080D016C00DF015C00CF0060E0F6E320E84
:1007B0000E6E69EC09F0196E1904D8A472D00A0EF5
:1007C00015240C6E000E16200D6E060E0F6E230EF5
:1007D0000E6E69EC09F0196E1904D8A407D018C080
:1007E00012F017C011F045EC0AF05BD00A0E152488
:1007F0000C6E000E16200D6E060E0F6E1D0E0E6E88
:1008000069EC09F0196E1904D8A407D018C012F0C9
:1008100017C011F045EC0AF044D00A0E15240C6EF6
:10082000000E16200D6E060E0F6E170E0E6E69EC82
:1008300009F0196E1904D8A407D018C012F017C017
:1008400011F045EC0AF02DD00A0E15240C6E000EA6
:1008500016200D6E060E0F6E370E0E6E69EC09F047
:10086000196E1904D8A407D018C012F017C011F0DF
:1008700045EC0AF016D00A0E15240C6E000E162058
:100880000D6E060E0F6E0D0E0E6E69EC09F0196EF0
:100890001904D8A406D018C012F017C011F045EC06
:1008A0000AF01A501200000E116E000E106E000EAB
:1008B0000F6E000E0E6E0F50800A800F050ED8B41A
:1008C0000E5CD8B07CD00EC001F00FC002F0000E5C
:1008D000046E0A0E036EE5EC09F001500724D96E90
:1008E00002500820DA6E000EDF6E0E4A0F2AE3D7A0
:1008F000000E116E102A040E10645AD0040E106EF1
:1009000057D020EE29F00950D9260A50DA22DF50BC
:100910000B6E0B50010DF3500924D96EF4500A20D0
:10092000DA6E10500A0D07C00CF008C00DF0F3503D
:100930000C26F4500D221150010DF3500C24E16EE1
:10094000F4500D20E26EDFCFE7FF112A090E11648B
:1009500002D0090E116E10500A0D07C00BF008C02E
:100960000CF0F3500B26F4500C221150010DF350F3
:100970000B24D96EF4500C20DA6E000EDF6E18D006
:1009800020EE29F00950D9260A50DA22DF500B6EEA
:100990000B50010DF3500924D96EF4500A20DA6E81
:1009A000DF50210AD8B404D01A0AD8B4A1D7A9D7E5
:1009B00020EE29F00950D9260A50DA22DF2A20EE4B
:1009C00029F00950D9260A50DA22DF500B6E0B505D
:1009D000010DF3500924D96EF4500A20DA6EDF506D
:1009E0002A0AD8B4120020EE29F00950D9260A505C
:1009F000DA22DF500B6E280E0B5CD8B0120020EE0E
:100A000029F00950D9260A50DA2210EE28F00950B0
:100A1000E1260A50E222E750DF62B2D71200000E50
:100A20000B6E000E0A6E000E096E000E086E3BD0B3
:100A300003C005F004C006F00A5005260B5006223C
:100A400005C0F6FF06C0F7FF0800F5CF07F00A5013
:100A50000124D96E0B500220DA6EDF50075CD8B04B
:100A600005D0000E096E010E086E1BD00A5001243D
:100A7000D96E0B500220DA6EDF50056E03C006F00F
:100A800004C007F00A5006260B50072206C0F6FFE6
:100A900007C0F7FF0800F550055CD8B002D0086821
:100AA00009680A4A0B2A0A500124D96E0B50022009
:100AB000DA6EDF50D8B415D003C005F004C006F0DC
:100AC0000A5005260B50062205C0F6FF06C0F7FFA8
:100AD0000800F5500009D8B404D009500810D8B463
:100AE000A7D70A500124D96E0B500220DA6EDF50CE
:100AF000D8A414D003C005F004C006F00A5005269F
:100B00000B50062205C0F6FF06C0F7FF0800F5509F
:100B10000009D8B403D0086809681ED00A5001241F
:100B2000D96E0B500220DA6EDF50D8B415D003C056
:100B300005F004C006F00A5005260B50062205C039
:100B4000F6FF06C0F7FF0800F5500009D8A404D04E
:100B5000000E096E010E086E08C001F009C002F017
:100B600012006C9A000E026E010E016E4EEC09F03E
:100B70006C8A6C9E000E5B6E20EE29F01E50D9260A
:100B80001F50DA22000EDF6E20EE28F01E50D9260C
:100B90001F50DA22000EDF6E594A5A2A2FD01FC08A
:100BA00016F01EC015F0BFEC09F012001FC016F0C1
:100BB0001EC015F00AEC09F012001FC016F01EC08E
:100BC00015F0ACEC09F012001FC016F01EC015F0B5
:100BD000D2EC09F012001FC014F01EC013F036EC66
:100BE0000AF012001FC014F01EC013F027EC0AF028
:100BF0001200000E5A6E000E596E120059C020F0FD
:100C00005AC021F02150000AD8A4F3D72050010A7D
:100C1000D8B4C5D7030AD8B4C9D7010AD8B4CDD738
:100C2000070AD8B4D1D7010AD8B4D5D7030AD8B4A3
:100C3000D9D7DFD75F50020AD8A402D0000E5F6E6A
:100C4000000E026E070E016E98EC09F0066E0604A7
:100C5000D8A44FD00750210AD8A415D05F04D8B427
:100C600012D0010E5F6E20EE29F00450D9260550F7
:100C7000DA22000EDF6E20EE28F00450D92605504F
:100C8000DA22000EDF6E5F04D8A42AD020EE28F00E
:100C90000450D9260550DA22DF50066E0650010DA9
:100CA000F3500424D96EF4500520DA6E07C0DFFF3C
:100CB00020EE28F00450D9260550DA22DF2A20EE53
:100CC00028F00450D9260550DA22270EDF6408D018
:100CD00020EE28F00450D9260550DA22270EDF6EC8
:100CE0005F04D8A406D007502A0AD8A402D0020E66
:100CF0005F6E5F501200546E5404D8A40FD0000EE3
:100D00000001B26F000E0001B36F0001000E1F6EF4
:100D100000018A0E1E6EB1EC05F012000001000EFB
:100D2000056E0001600E046E1AEC06F05E6E15D0C2
:100D30000001000E1C6E0001600E1B6E0001000E13
:100D40001E6E00018A0E1D6E81EC09F0526E520477
:100D5000D8A40DD0010E5C6E0AD05E50000AD8B443
:100D600006D0010AD8B403D0030AD8B4E1D70001F1
:100D7000000E046E00018A0E036E73EC07F0536ED2
:100D800081A003D0000E5D6E12005D6608D00001E8
:100D9000000E1F6E00018A0E1E6EB1EC05F0010EF2
:100DA0005D6E12000AC00EF00BC00FF00EC001F015
:100DB0000FC002F00CC003F00DC004F090EC08F07E
:100DC00001C00EF002C00FF0084A092A0F500E10A1
:100DD000D8A4ECD708C0D9FF09C0DAFF000EDF6E37
:100DE0000806D8A009060AC001F00BC002F00CC02A
:100DF00003F00DC004F02DEC09F00150106E0AC094
:100E000001F00BC002F00CC003F00DC004F090EC38
:100E100008F001C00AF002C00BF0090E106402D005
:100E2000070E1026300E102608C0D9FF09C0DAFFC1
:100E300010C0DFFF0806D8A009060B500A10D8A47E
:100E4000D2D7084A092A12000EC002F00DC001F0E4
:100E5000230E036E65EC08F00EC002F00DC001F029
:100E6000230E036E65EC08F00EC002F00DC001F019
:100E7000210E036E65EC08F00EC006F00DC005F003
:100E800010C008F00FC007F0BBEC07F00EC002F076
:100E90000DC001F03B0E036E65EC08F00EC006F0CD
:100EA0000DC005F012C008F011C007F0BBEC07F050
:100EB0000EC002F00DC001F03B0E036E65EC08F0B1
:100EC0000EC006F00DC005F014C008F013C007F006
:100ED000BBEC07F00EC002F00DC001F02A0E036E4D
:100EE00065EC08F0120020EE29F00350D9260450DA
:100EF000DA2210EE28F00350E1260450E222E750F7
:100F0000DF6206D0010E076E000E18EC0AF031D039
:100F1000000E076E20EE29F00350D9260450DA2285
:100F2000DF50056E0550010DF3500324D96EF450C7
:100F30000420DA6EDF5018EC0AF0066E0604D8A41E
:100F400018D020EE29F00350D9260450DA22DF2AE7
:100F500020EE29F00350D9260450DA22270EDF6450
:100F600008D020EE29F00350D9260450DA22000ED2
:100F7000DF6E07501200000E0C6E000E0B6E21D0BB
:100F800006C002F005C001F007C009F008C00AF071
:100F90000B5009260C500A2209C0F6FF0AC0F7FFC1
:100FA000F86A050EF76403D00800F55005D0F6CFB7
:100FB000E1FFF7CFE2FFE750036E65EC08F00B4A64
:100FC0000C2A07C009F008C00AF00B5009260C5083
:100FD0000A2209C0F6FF0AC0F7FFF86A050EF76497
:100FE00003D00800F55005D0F6CFE1FFF7CFE2FFC0
:100FF000E7500009D8B41200C3D70EC002F00DC0EC
:1010000001F0230E036E65EC08F00EC002F00DC077
:1010100001F0230E036E65EC08F00EC002F00DC067
:1010200001F0210E036E65EC08F00EC006F00DC055
:1010300005F010C008F00FC007F0BBEC07F00EC0C1
:1010400002F00DC001F03B0E036E65EC08F00EC01F
:1010500006F00DC005F012C008F011C007F0BBEC9F
:1010600007F00EC002F00DC001F02A0E036E65EC11
:1010700008F012000EC002F00DC001F0230E036E46
:1010800065EC08F00EC002F00DC001F0230E036EF7
:1010900065EC08F00EC002F00DC001F0210E036EE9
:1010A00065EC08F00EC006F00DC005F010C008F0A9
:1010B0000FC007F0BBEC07F00EC002F00DC001F04E
:1010C0002A0E036E65EC08F0120020EE28F00150A5
:1010D000D9260250DA22DF50046E0450010DF3507D
:1010E0000124D96EF4500220DA6E03C0DFFF20EE37
:1010F00028F00150D9260250DA22DF2A20EE28F00B
:101100000150D9260250DA22270EDF64120020EEA9
:1011100028F00150D9260250DA22000EDF6E1200AC
:10112000000E066E000E056E04500310D8B41CD0DD
:10113000010E076E04D0D89003360436072A04AE99
:10114000FAD7D890053606360350015C0450025891
:10115000D8A005D00350015E0450025A0580D890F3
:1011600004320332072EEDD705C001F006C002F0AD
:1011700012009290928293989496949A949C949E42
:101180000F0138938B8C8B868B8A8B8E6C9A0F0118
:1011900039910F0139930F0139950F0139979380D8
:1011A0009382938493966D9E6D8C6C9E6C9C6C9ACE
:1011B0006C886C50F00B04096C6E000E696E6998B7
:1011C0006C8A12009290928293989496949A949C2E
:1011D000949E0F0138938B8C8B868B8A8B8E000E9E
:1011E000086E000E076E050E075C000E0858D8B09A
:1011F00012008A88000E026E190E016E4EEC09F084
:101200008A98000E026E190E016E4EEC09F0074A24
:10121000082AE9D7000E096E170E086E57C00AF0AB
:1012200058C00BF0000E0D6E0A0E0C6ED2EC06F0DC
:1012300016C00EF015C00DF0060E106E500E0F6E9B
:10124000060E126E1D0E116E000E146E170E136E2A
:1012500024EC07F0574A582A120004500310D8B45F
:1012600018D0010E056E04D0D89003360436052A36
:1012700004AEFAD70350015C04500258D8A004D041
:101280000350015E0450025AD89004320332052EF6
:10129000F1D701C001F002C002F01200000E046E8E
:1012A000000E036E0FD0000E066E000E056E640E6B
:1012B000055C000E0658D8B003D0054A062AF7D7B9
:1012C000034A042A0150035C02500458D8B01200AB
:1012D000EAD70DC002F00CC001F00FC004F00EC040
:1012E00003F00FEC05F001C010F002C011F0115036
:1012F0001010D8A402D0010E01D0000E126E1250B0
:101300001200000E086E1F0E076E1CC00AF01BC0F4
:1013100009F053EC04F0000E166E1F0E156E1EC081
:1013200018F01DC017F02CEC03F0516E5150120054
:10133000000E036E6DA00CD001C0D9FF02C0DAFF11
:101340006FCFDFFF010E036E6C9E000E5B6E02D04E
:10135000000E036E0350120016C00EF015C00DF003
:10136000060E106E500E0F6E060E126E170E116ED8
:10137000060E146E3C0E136E24EC07F0120016C01D
:101380000EF015C00DF0060E106E500E0F6E060E0C
:10139000126E0D0E116E060E146E440E136E24ECBA
:1013A00007F0120016C00EF015C00DF0060E106EFC
:1013B000500E0F6E060E126E370E116E060E146E64
:1013C000400E136E24EC07F0120001500302F3CF1D
:1013D00005F0F4CF06F001500402F3500626025047
:1013E0000302F350062605C001F006C002F0120009
:1013F00000EE60F0540EEE6AE806FDE100EE57F0F4
:10140000090EEE6AE806FDE1000EF86E000109EF34
:101410000AF0000E566E000E556EE2EC08F0B9ECC4
:1014200008F0010E7BEC06F0000E7BEC06F0FCD71A
:10143000016E000E026E5B6606D001C06FFF010EEA
:101440005B6E010E01D0000E026E0250120014C03D
:101450000EF013C00DF0060E106E2D0E0F6E060E60
:10146000126E230E116EFDEC07F0120014C00EF088
:1014700013C00DF0060E106E2D0E0F6E060E126EBE
:10148000010E116EFDEC07F0120012C00EF011C03B
:101490000DF0060E106E480E0F6E3AEC08F01200BA
:020000040020DA
:08000000FFFFFFFFFFFFFFFF00
:020000040030CA
:0E000000FF081F3CFFBF81FF0FC00FE00F4045
:00000001FF
