:0400000050EF00F0CD
:100008004982FACF01F0FBCF02F0E9CF03F0EACF43
:1000180004F0E1CF05F0E2CF06F0D9CF07F0DACF50
:1000280008F0F3CF09F0F4CF0AF0F6CF0BF0F7CFD2
:100038000CF0F8CF0DF0F5CF0EF0F294FC0ED76E61
:10004800180ED66E010E4126000E4222432244228B
:10005800010E4526000E4622472248220EC0F5FF13
:100068000DC0F8FF0CC0F7FF0BC0F6FF0AC0F4FF85
:1000780009C0F3FF08C0DAFF07C0D9FF06C0E2FFD6
:1000880005C0E1FF04C0EAFF03C0E9FF02C0FBFFAF
:0C00980001C0FAFF4992110056EF0AF077
:100600000043616C6962726174696F6E0050535689
:10061000657273696F6E00456E5573656400566F41
:100620006C7473005761747473004C454442004409
:10063000617461005265616400436F6E6600416DD4
:1006400070730032323200333333003434340045B7
:100650004E44004F666600536574004F6E00000004
:10066000000E276E23C01AF024C01BF04F0E1C6E24
:10067000060E1D6E2AEC0AF0E806D8A403D0010E7F
:10068000276E17D123C01AF024C01BF0570E1C6E22
:10069000060E1D6E2AEC0AF0E806D8A40DD00A0E4C
:1006A00023241A6E000E24201B6E010E1C6E060EF3
:1006B0001D6E2AEC0AF0FDD023C01AF024C01BF0F6
:1006C000340E1C6E060E1D6E2AEC0AF0E806D8B435
:1006D000F0D023C01AF024C01BF02F0E1C6E060EA3
:1006E0001D6E2AEC0AF0E806D8A453D00A0E232483
:1006F0001A6E000E24201B6E2A0E1C6E060E1D6E36
:100700002AEC0AF0E806D8A4D4D0140E23241A6EDA
:10071000000E24201B6E5B0E1C6E060E1D6E2AEC56
:100720000AF0E806D8A413D025C01BF026C01CF0A0
:10073000570E1D6E060E1E6E2A0E1F6E060E206EC2
:10074000530E216E060E226ED1EC06F0B2D0140EBE
:1007500023241A6E000E24201B6E530E1C6E060EF0
:100760001D6E2AEC0AF0E806D8A4A3D025C01BF021
:1007700026C01CF0570E1D6E060E1E6E2A0E1F6E32
:10078000060E206E5B0E216E060E226ED1EC06F078
:1007900090D023C01AF024C01BF0390E1C6E060E38
:1007A0001D6E2AEC0AF0E806D8A483D00A0E232492
:1007B0001A6E000E24201B6E2A0E1C6E060E1D6E75
:1007C0002AEC0AF0E806D8A407D025C01FF026C0FE
:1007D00020F0C9EC0AF06DD00A0E23241A6E000E28
:1007E00024201B6E240E1C6E060E1D6E2AEC0AF0D1
:1007F000E806D8A407D025C01FF026C020F0C9EC19
:100800000AF057D00A0E23241A6E000E24201B6E05
:10081000170E1C6E060E1D6E2AEC0AF0E806D8A410
:1008200007D025C01FF026C020F0C9EC0AF041D047
:100830000A0E23241A6E000E24201B6E1E0E1C6E40
:10084000060E1D6E2AEC0AF0E806D8A407D025C0D3
:100850001FF026C020F0C9EC0AF02BD00A0E23248A
:100860001A6E000E24201B6E3E0E1C6E060E1D6EB0
:100870002AEC0AF0E806D8A407D025C01FF026C04D
:1008800020F0C9EC0AF015D00A0E23241A6E000ECF
:1008900024201B6E0D0E1C6E060E1D6E2AEC0AF037
:1008A000E806D8A406D025C01FF026C020F0C9EC69
:1008B0000AF027501200000E1F6E000E1E6E000E72
:1008C0001D6E000E1C6E1DBE08D01D5005E1050EEC
:1008D0001C5CD8B082D001D080D01CC00FF01DC0ED
:1008E00010F0000E126E0A0E116E7CEC0AF00F5022
:1008F0001524D96E10501620DA6E000EDF6E1C4AD9
:100900001D2A1DBEEAD71D5068E1E1D7000E1F6EFB
:100910001E2A040E1E645AD0040E1E6E57D020EEFE
:1009200029F01750D9261850DA22DF50196E1950C5
:10093000010DF3501724D96EF4501820DA6E1E50B2
:100940000A0D15C01AF016C01BF0F3501A26F45009
:100950001B221F50010DF3501A24E16EF4501B208E
:10096000E26EDFCFE7FF1F2A090E1F6402D0090ED7
:100970001F6E1E500A0D15C019F016C01AF0F35064
:100980001926F4501A221F50010DF3501924D96E64
:10099000F4501A20DA6E000EDF6E18D020EE29F027
:1009A0001750D9261850DA22DF50196E1950010D50
:1009B000F3501724D96EF4501820DA6EDF50210A54
:1009C000D8B404D01A0AD8B4A1D7A9D720EE29F0F8
:1009D0001750D9261850DA22DF2A20EE29F01750B6
:1009E000D9261850DA22DF50196E1950010DF35034
:1009F0001724D96EF4501820DA6E2A0EDE18D8B4F7
:100A0000120020EE29F01750D9261850DA22280EAD
:100A1000DF60120020EE28F01750D9261850DA2295
:100A200010EE29F01750E1261850E222DE50E618A9
:100A3000D8B41200B3D7000E196E000E186E000E57
:100A4000176E000E166E35D018500F24D96E19503F
:100A50001020DA6E18501124146E19501220156EE1
:100A600014C0F6FF15C0F7FFDE500900F55CD8B0E2
:100A700005D0000E176E010E166E19D018500F24F7
:100A8000D96E19501020DA6EDF50136E18501124F1
:100A9000146E19501220156E14C0F6FF15C0F7FF22
:100AA0000800F550135CD8B002D016681768184AD1
:100AB000192A18500F24D96E19501020DA6EDF5001
:100AC000D8B413D018501124136E19501220146E7C
:100AD00013C0F6FF14C0F7FF0800F5500009D8B4A2
:100AE00004D016501710D8B4AFD718500F24D96EB1
:100AF00019501020DA6EDF50D8A412D018501124EB
:100B0000136E19501220146E13C0F6FF14C0F7FFB5
:100B10000800F5500009D8B403D0166817681CD037
:100B200018500F24D96E19501020DA6EDF50D8B447
:100B300013D018501124136E19501220146E13C0C4
:100B4000F6FF14C0F7FF0800F5500009D8A404D040
:100B5000000E176E010E166E16C00FF017C010F0C3
:100B60001200000E206E000E1F6E000E1D6E000E95
:100B70001C6E000E1E6E82A426D03E50D8A425D036
:100B8000010E3E6E010E0F6E000E106E000E116E05
:100B9000000E126E41C013F042C014F043C015F0B5
:100BA00044C016F001EC08F00FC01FF010C020F098
:100BB000010E1E6E000E416E000E426E000E436E60
:100BC000000E446E02D0000E3E6E80A229D03F502F
:100BD000D8A426D0010E3F6E050E0F6E000E106ECB
:100BE000000E116E000E126E45C013F046C014F0D8
:100BF00047C015F048C016F001EC08F00FC01CF01B
:100C000010C01DF0050E3426000E3522010E1E6E9A
:100C1000000E456E000E466E000E476E000E486ECA
:100C20001E04D8A4120020AE05D01FC036F020C08C
:100C300037F012001CC036F01DC037F01200020E53
:100C40004018D8A402D0000E406E150E0F6E000E94
:100C5000106E42EC0AF0E806D8A44FD0210E151809
:100C6000D8A415D04004D8B412D0010E406E20EEA6
:100C700029F01250D9261350DA22000EDF6E20EE32
:100C800028F01250D9261350DA22000EDF6E4004ED
:100C9000D8A42AD020EE28F01250D9261350DA22F8
:100CA000DF50146E1450010DF3501224D96EF4501D
:100CB0001320DA6E15C0DFFF20EE28F01250D9267F
:100CC0001350DA22DF2A20EE28F01250D9261350D2
:100CD000DA22270EDF6408D020EE28F01250D92641
:100CE0001350DA22270EDF6E4004D8A406D02A0E55
:100CF0001518D8A402D0020E406E4050120018C041
:100D00001CF019C01DF01CC00FF01DC010F01AC05F
:100D100011F01BC012F002EC09F00FC01CF010C063
:100D20001DF0164A172A1C501D10D8A4ECD716C067
:100D3000D9FF17C0DAFF000EDF6E1606D8A017061F
:100D400018C00FF019C010F01AC011F01BC012F03B
:100D5000BBEC09F00F501E6E18C00FF019C010F058
:100D60001AC011F01BC012F002EC09F00FC018F00D
:100D700010C019F0090E1E6402D0070E1E26300E98
:100D80001E2616C0D9FF17C0DAFF1EC0DFFF1606E9
:100D9000D8A0170618501910D8A4D2D7164A172A67
:100DA00012001BC00FF01CC010F0230E116ED7EC08
:100DB00008F01BC00FF01CC010F0230E116ED7EC12
:100DC00008F01BC00FF01CC010F0210E116ED7EC04
:100DD00008F01BC013F01CC014F01DC015F01EC09D
:100DE00016F042EC08F01BC00FF01CC010F03B0ED8
:100DF000116ED7EC08F01BC013F01CC014F01FC01C
:100E000015F020C016F042EC08F01BC00FF01CC01B
:100E100010F03B0E116ED7EC08F01BC013F01CC095
:100E200014F021C015F022C016F042EC08F01BC0EF
:100E30000FF01CC010F02A0E116ED7EC08F0120053
:100E4000316E3104D8A40FD02BEC09F0000E000154
:100E5000B26F000E0001B36F8A0E2C6E000E2D6E65
:100E60006DEC07F01200600E126E000E136E1FEC98
:100E700006F03D6E10D0600E286E000E296E8A0EB0
:100E80002A6E000E2B6E11EC0AF0E806D8A40DD0E5
:100E9000010E3B6E0AD03D50000AD8B406D0010ABC
:100EA000D8B403D0030AD8B4E6D78A0E116E000E68
:100EB000126EB9EC07F0306E81A003D0000E3C6ECC
:100EC00012003C50D8A406D08A0E2C6E000E2D6E57
:100ED0006DEC07F0010E3C6E12006C9A060E2E6E41
:100EE000300EE82EFED72E2EFCD700D06C8A6C9EDA
:100EF000000E3A6E20EE29F02C50D9262D50DA2221
:100F0000000EDF6E20EE28F02C50D9262D50DA226C
:100F1000000EDF6E384A392A19D02CC023F02DC0BC
:100F200024F069EC0AF012002CC023F02DC024F04C
:100F300079EC09F012002CC023F02DC024F09AECBB
:100F400009F0000E396E000E386E120038C02EF017
:100F500039C02FF02F50000AD8A4F3D72E50010A21
:100F6000D8B4DBD7030AD8B4DFD7010AD8B4E3D7A3
:100F7000E8D720EE28F01150D9261250DA2210EED0
:100F800029F01150E1261250E222DE50E618D8A4D2
:100F900006D0010E156E000EA1EC0AF030D0000E46
:100FA000156E20EE29F01150D9261250DA22DF50AA
:100FB000136E1350010DF3501124D96EF45012200A
:100FC000DA6EDF50A1EC0AF0E806D8A418D020EEC3
:100FD00029F01150D9261250DA22DF2A20EE29F00A
:100FE0001150D9261250DA22270EDF6408D020EEE5
:100FF00029F01150D9261250DA22000EDF6E15505A
:101000001200000E176E000E186E000E196E000E04
:101010001A6E1350141015101610D8B42AD0010EE1
:101020001B6E06D0D89013361436153616361B2A8A
:1010300016AEF8D7D8901736183619361A36135018
:101040000F5C145010581550115816501258D8A053
:1010500009D013500F5E1450105A1550115A1650E3
:10106000125A1780D89016321532143213321B2EB2
:10107000E1D717C00FF018C010F019C011F01AC056
:1010800012F01200000E1A6E000E196E1FD013C05F
:101090000FF014C010F019501524176E1A501620B6
:1010A000186E17C0F6FF18C0F7FFF86A050EF76450
:1010B00003D00800F55005D0F6CFE1FFF7CFE2FFEF
:1010C000E750116ED7EC08F0194A1A2A1950152466
:1010D000176E1A501620186E17C0F6FF18C0F7FFCB
:1010E000F86A050EF76403D00800F55005D0F6CF76
:1010F000E1FFF7CFE2FFE7500009D8B41200C7D7ED
:10110000D4EC0AF0000E336E000E326E33BE06D001
:10111000335015E10A0E325CD8B011D08A88000E27
:10112000106E0A0E0F6EF8EC09F08A98000E106E21
:101130000A0E0F6EF8EC09F0324A332AE7D7B1EC09
:101140000AF0010E20EC07F0000E20EC07F0DDECB9
:101150000AF0B1EC05F0F8D71BC00FF01CC010F07E
:10116000230E116ED7EC08F01BC00FF01CC010F05E
:10117000230E116ED7EC08F01BC00FF01CC010F04E
:10118000210E116ED7EC08F01BC013F01CC014F038
:101190001DC015F01EC016F042EC08F01BC00FF089
:1011A0001CC010F02A0E116ED7EC08F0120020EED1
:1011B00028F00F50D9261050DA22DF50126E12504C
:1011C000010DF3500F24D96EF4501020DA6E11C0C7
:1011D000DFFF20EE28F00F50D9261050DA22DF2A48
:1011E00020EE28F00F50D9261050DA22270EDF64A7
:1011F000120020EE28F00F50D9261050DA22000EEF
:10120000DF6E1200000E146E000E136E11501210DD
:10121000D8B41CD0010E156E04D0D89011361236F9
:10122000152A12AEFAD7D8901336143611500F5C27
:1012300012501058D8A005D011500F5E1250105AFD
:101240001380D89012321132152EEDD713C00FF043
:1012500014C010F01200929092829496949A949CEA
:10126000949E0F0138938B8C8B868B8A8B8E6C9A15
:101270000F0139910F0139930F0139950F013997FA
:1012800093809382938493966D9E6D8C6C9E6C9CE0
:101290006C9A6C886C50F00B04096C6E000E696ED1
:1012A00069986C8A1200000EF26E000EF16E000E4C
:1012B000F06ED09E000E9E6E000EA16E000EA46E0B
:1012C000000E7B6E000E7E6E000E9D6E000EA06EF8
:1012D000000EA36E000E7A6E000E7D6E000E9F6EE5
:1012E000000EA26E000EA56E000E7C6E000E7F6ECC
:1012F0001200250E166E000E176E36C018F037C09D
:1013000019F0000E1B6E0A0E1A6E7FEC06F023C059
:101310001BF024C01CF0570E1D6E060E1E6E240E10
:101320001F6E060E206E250E216E000E226ED1EC71
:1013300006F01200250E166E000E176E34C018F05F
:1013400035C019F0000E1B6E0A0E1A6E7FEC06F007
:1013500023C01BF024C01CF0570E1D6E060E1E6E1F
:10136000170E1F6E060E206E250E216E000E226EC9
:10137000D1EC06F0120011501210D8B418D0010EA2
:10138000136E04D0D89011361236132A12AEFAD743
:1013900011500F5C12501058D8A004D011500F5E9D
:1013A0001250105AD89012321132132EF1D70FC0AA
:1013B0000FF010C010F012008B9C060E146E300E51
:1013C000E82EFED7142EFCD700D08B8E8B8A8B860E
:1013D000060E146E300EE82EFED7142EFCD700D069
:1013E0008B8C000E106E0A0E0F6EF8EC09F01200D6
:1013F000000E136E000E126E09D0340E116EF20E36
:10140000E82EFED7112EFCD7124A132A0F50125C79
:101410001350800A116E1050800A1158D8B0120073
:10142000ECD7B40E156E000E166E28C017F029C04A
:1014300018F05BEC04F0B40E236E000E246E2AC08C
:1014400025F02BC026F030EC03F00001E66F000120
:10145000E65112001AC00FF01BC010F01CC011F0B2
:101460001DC012F01BEC05F00FC01EF010C01FF0E5
:101470001E501F10D8A402D0010E01D0000E206E05
:1014800020501200000E116E6DA00CD00FC0D9FFBD
:1014900010C0DAFF6FCFDFFF010E116E6C9E000EE1
:1014A0003A6E02D0000E116E1150120000EE60F084
:1014B000540EEE6AE806FDE100EE34F0150EEE6A19
:1014C000E806FDE149904992000EF86E000180EFB8
:1014D00008F023C01BF024C01CF0570E1D6E060E32
:1014E0001E6E0D0E1F6E060E206E4B0E216E060E2A
:1014F000226ED1EC06F012000F501102F3CF13F060
:10150000F4CF14F00F501202F350142610501102B1
:10151000F350142613C00FF014C010F01200C29044
:10152000000E0F01386F000E0F01396F000E0F0112
:101530003A6F93988A989484928292908990949C1E
:1015400012000F6E000E106E3A50D8A406D00FC0D5
:101550006FFF010E3A6E010E01D0000E106E10509A
:101560001200D59ED59CD59AD596D550F80B010979
:10157000D56EF28AF28ED58E1200D39ED388D38A8E
:10158000D38C030ED312D298D296D2949B8E9B9C6E
:1015900012001FC01BF020C01CF04F0E1D6E060E67
:1015A0001E6EACEC08F01200BDEC0AF08FEC0AF0F5
:1015B00053EC09F0DCEC09F0120080A202D0898023
:0615C000120089901200E8
:020000040020DA
:08000000FFFFFFFFFFFFFFFF00
:020000040030CA
:0E000000FF081F3CFFBF81FF0FC00FE00F4045
:00000001FF
