:0400000092EF3FF04C
:107F24000001B0EF3FF0000E046E000E036E0FD0A0
:107F3400000E066E000E056E065007E1640E055C29
:107F4400D8B003D0054A062AF7D7034A042A0150B9
:107F5400035C02500458D8B01200EAD7000E0A6E2F
:107F6400000E096ED7EC3FF080A202D08980FCD7C6
:107F7400899009500A10D8A40CD08A88000E0A6E81
:107F8400010E096E000E026E640E016E95EC3FF058
:107F9400EBD78A98000E0A6E000E096E000E026E70
:107FA400640E016E95EC3FF0DFD792909282939825
:107FB4009496949A949C949E0F0138938B8C8B8600
:107FC4008B8A8B8E000E086E000E076E085015E12A
:107FD4000F0E075CD8B012008A88000E026E190ECC
:107FE400016E95EC3FF08A98000E026E190E016E38
:0C7FF40095EC3FF0074A082AE9D712007C
:020000040020DA
:08000000FFFFFFFFFFFFFFFF00
:020000040030CA
:0E000000FF39193CFFBD85FF0FC00FE00F4018
:00000001FF
