:0400000050EF00F0CD
:100008005182FACF01F0FBCF02F0E9CF03F0EACF3B
:1000180004F0E1CF05F0E2CF06F0D9CF07F0DACF50
:1000280008F0F3CF09F0F4CF0AF0F6CF0BF0F7CFD2
:100038000CF0F8CF0DF0F5CF0EF0F294FC0ED76E61
:10004800180ED66E010E4D26000E4E224F2250225B
:10005800010E4926000E4A224B224C220EC0F5FF03
:100068000DC0F8FF0CC0F7FF0BC0F6FF0AC0F4FF85
:1000780009C0F3FF08C0DAFF07C0D9FF06C0E2FFD6
:1000880005C0E1FF04C0EAFF03C0E9FF02C0FBFFAF
:0C00980001C0FAFF5192110011EF0CF0B2
:100600000043616C6962726174696F6E0050535689
:10061000657273696F6E00456E5573656400566F41
:100620006C7473005761747473004C454442004409
:10063000617461005265616400436F6E6600416DD4
:1006400070730032323200333333003434340045B7
:0F0650004E44004F666600536574004F6E000005
:10066000000E376EB4C01AF0B5C01BF04F0E1C6EF2
:10067000060E1D6EE5EC0BF0E806D8A403D0010EC3
:10068000376E57D1B4C01AF0B5C01BF0570E1C6EB0
:10069000060E1D6EE5EC0BF0E806D8A43BD00A0E62
:1006A0000001B4251A6E000E0001B5211B6E010E6B
:1006B0001C6E060E1D6EE5EC0BF0E806D8B439D1C1
:1006C0000A0E0001B4251A6E000E0001B5211B6E42
:1006D000170E1C6E060E1D6EE5EC0BF0E806D8A496
:1006E00028D1140E0001B4251B6E000E0001B521A7
:1006F0001C6E7CEC06F01BC039F01CC03AF01DC02B
:100700003BF01EC03CF0B6C029F0B7C02AF04AEC5E
:100710000BF00FD1B4C01AF0B5C01BF0340E1C6E34
:10072000060E1D6EE5EC0BF0E806D8B402D1B4C09D
:100730001AF0B5C01BF02F0E1C6E060E1D6EE5ECF8
:100740000BF0E806D8A459D00A0E0001B4251A6EA1
:10075000000E0001B5211B6E2A0E1C6E060E1D6ECA
:10076000E5EC0BF0E806D8A4E4D0140E0001B425A3
:100770001A6E000E0001B5211B6E5B0E1C6E060E7C
:100780001D6EE5EC0BF0E806D8A413D0B6C01BF044
:10079000B7C01CF0570E1D6E060E1E6E2A0E1F6E81
:1007A000060E206E530E216E060E226EC8EC08F067
:1007B000C0D0140E0001B4251A6E000E0001B52140
:1007C0001B6E530E1C6E060E1D6EE5EC0BF0E8065C
:1007D000D8A4AFD0B6C01BF0B7C01CF0570E1D6E2A
:1007E000060E1E6E2A0E1F6E060E206E5B0E216E0A
:1007F000060E226EC8EC08F09CD0B4C01AF0B5C04A
:100800001BF0390E1C6E060E1D6EE5EC0BF0E806B3
:10081000D8A48FD00A0E0001B4251A6E000E000174
:10082000B5211B6E2A0E1C6E060E1D6EE5EC0BF03C
:10083000E806D8A407D0B6C01FF0B7C020F0A4ECDB
:100840000CF077D00A0E0001B4251A6E000E0001DC
:10085000B5211B6E240E1C6E060E1D6EE5EC0BF012
:10086000E806D8A407D0B6C01FF0B7C020F0A4ECAB
:100870000CF05FD00A0E0001B4251A6E000E0001C4
:10088000B5211B6E170E1C6E060E1D6EE5EC0BF0EF
:10089000E806D8A407D0B6C01FF0B7C020F0A4EC7B
:1008A0000CF047D00A0E0001B4251A6E000E0001AC
:1008B000B5211B6E1E0E1C6E060E1D6EE5EC0BF0B8
:1008C000E806D8A407D0B6C01FF0B7C020F0A4EC4B
:1008D0000CF02FD00A0E0001B4251A6E000E000194
:1008E000B5211B6E3E0E1C6E060E1D6EE5EC0BF068
:1008F000E806D8A407D0B6C01FF0B7C020F0A4EC1B
:100900000CF017D00A0E0001B4251A6E000E00017B
:10091000B5211B6E0D0E1C6E060E1D6EE5EC0BF068
:10092000E806D8A406D0B6C01FF0B7C020F0A4ECEB
:100930000CF037501200000E1F6E000E1E6E000EDF
:100940001D6E000E1C6E1DBE08D01D5005E1050E6B
:100950001C5CD8B082D001D080D01CC00FF01DC06C
:1009600010F0000E126E0A0E116E37EC0CF00F50E4
:100970001524D96E10501620DA6E000EDF6E1C4A58
:100980001D2A1DBEEAD71D5068E1E1D7000E1F6E7B
:100990001E2A040E1E645AD0040E1E6E57D020EE7E
:1009A00029F01750D9261850DA22DF50196E195045
:1009B000010DF3501724D96EF4501820DA6E1E5032
:1009C0000A0D15C01AF016C01BF0F3501A26F45089
:1009D0001B221F50010DF3501A24E16EF4501B200E
:1009E000E26EDFCFE7FF1F2A090E1F6402D0090E57
:1009F0001F6E1E500A0D15C019F016C01AF0F350E4
:100A00001926F4501A221F50010DF3501924D96EE3
:100A1000F4501A20DA6E000EDF6E18D020EE29F0A6
:100A20001750D9261850DA22DF50196E1950010DCF
:100A3000F3501724D96EF4501820DA6EDF50210AD3
:100A4000D8B404D01A0AD8B4A1D7A9D720EE29F077
:100A50001750D9261850DA22DF2A20EE29F0175035
:100A6000D9261850DA22DF50196E1950010DF350B3
:100A70001724D96EF4501820DA6E2A0EDE18D8B476
:100A8000120020EE29F01750D9261850DA22280E2D
:100A9000DF60120020EE28F01750D9261850DA2215
:100AA00010EE29F01750E1261850E222DE50E61829
:100AB000D8B41200B3D7000E196E000E186E000ED7
:100AC000176E000E166E35D018500F24D96E1950BF
:100AD0001020DA6E18501124146E19501220156E61
:100AE00014C0F6FF15C0F7FFDE500900F55CD8B062
:100AF00005D0000E176E010E166E19D018500F2477
:100B0000D96E19501020DA6EDF50136E1850112470
:100B1000146E19501220156E14C0F6FF15C0F7FFA1
:100B20000800F550135CD8B002D016681768184A50
:100B3000192A18500F24D96E19501020DA6EDF5080
:100B4000D8B413D018501124136E19501220146EFB
:100B500013C0F6FF14C0F7FF0800F5500009D8B421
:100B600004D016501710D8B4AFD718500F24D96E30
:100B700019501020DA6EDF50D8A412D0185011246A
:100B8000136E19501220146E13C0F6FF14C0F7FF35
:100B90000800F5500009D8B403D0166817681CD0B7
:100BA00018500F24D96E19501020DA6EDF50D8B4C7
:100BB00013D018501124136E19501220146E13C044
:100BC000F6FF14C0F7FF0800F5500009D8A404D0C0
:100BD000000E176E010E166E16C00FF017C010F043
:100BE0001200000E206E000E1F6E000E1D6E000E15
:100BF0001C6E000E1E6E82B426D04750D8A425D09D
:100C0000010E476E010E0F6E000E106E000E116E7B
:100C1000000E126E4DC013F04EC014F04FC015F010
:100C200050C016F05FEC09F00FC01FF010C020F0AC
:100C3000010E1E6E000E4D6E000E4E6E000E4F6EBB
:100C4000000E506E02D0000E476E80B22BD0465080
:100C5000D8A428D0010E466E050E0F6E000E106E41
:100C6000000E116E000E126E49C013F04AC014F04F
:100C70004BC015F04CC016F05FEC09F00FC01CF033
:100C800010C01DF0050E3926000E3A223B223C22F0
:100C9000010E1E6E000E496E000E4A6E000E4B6E67
:100CA000000E4C6E1E04D8A40BD020AE05D01FC081
:100CB0003FF020C040F004D01CC03FF01DC040F009
:100CC0004C504B1006E1110E495C270E4A58D8A033
:100CD0000ED0010E3926000E3A223B223C22000E95
:100CE000496E000E4A6E000E4B6E000E4C6E000EEA
:100CF000406E400E3F6E12001BC0D9FF1CC0DAFFD1
:100D0000DF50286E1B4A1C2A200E2818D8B4F4D7AE
:100D1000090E2818D8B4F0D7000E246E000E256EE8
:100D2000000E266E000E276E000E236E2D0E281864
:100D3000D8A405D0232A2AD01B4A1C2A2ED02B0E39
:100D40002818D8A42AD022D024C00FF025C010F033
:100D500026C011F027C012F00A0E136E000E146E9A
:100D6000000E156E000E166ECEEC0AF028C01FF0B5
:100D7000D00E1F261F500F24246E000E1020256E4B
:100D8000000E1120266E000E1220276E1BC0D9FF08
:100D90001CC0DAFFDF50286ECFD728507DEC0CF056
:100DA000D8B0D2D72350D8B41AD024C01FF025C051
:100DB00020F026C021F027C022F01F1E201E211E79
:100DC000221E1F2A000E2022212222221FC01BF0D9
:100DD00020C01CF021C01DF022C01EF0120024C053
:100DE0001BF025C01CF026C01DF027C01EF012000D
:100DF0001EC024F01FC025F020C026F021C027F01F
:100E000024C00FF025C010F026C011F027C012F04A
:100E100022C013F023C014F0000E14BEFF0E156E96
:100E2000166E5FEC09F00FC024F010C025F011C061
:100E300026F012C027F01C4A1D2A24502510261027
:100E40002710D8A4DDD71CC0D9FF1DC0DAFF000EC3
:100E5000DF6E1C06D8A01D061EC00FF01FC010F0CC
:100E600020C011F021C012F022C013F023C014F0F2
:100E7000000E14BEFF0E156E166E14EC0AF00F5025
:100E8000286E1EC00FF01FC010F020C011F021C04E
:100E900012F022C013F023C014F0000E14BEFF0E97
:100EA000156E166E5FEC09F00FC01EF010C01FF03B
:100EB00011C020F012C021F0090E286402D0070EE4
:100EC0002826300E28261CC0D9FF1DC0DAFF28C0F6
:100ED000DFFF1C06D8A01D061E501F102010211079
:100EE000D8B41200B9D7020E4118D8A402D0000E0F
:100EF000416E150E0F6E000E106EFDEC0BF0E80645
:100F0000D8A44FD0210E1518D8A415D04104D8B4B8
:100F100012D0010E416E20EE29F01250D926135046
:100F2000DA22000EDF6E20EE28F01250D926135080
:100F3000DA22000EDF6E4104D8A42AD020EE28F079
:100F40001250D9261350DA22DF50146E1450010DBE
:100F5000F3501224D96EF4501320DA6E15C0DFFF5F
:100F600020EE28F01250D9261350DA22DF2A20EE84
:100F700028F01250D9261350DA22270EDF6408D049
:100F800020EE28F01250D9261350DA22270EDF6EF9
:100F90004104D8A406D02A0E1518D8A402D0020EF7
:100FA000416E415012000001F06F0001F005D8A41D
:100FB0000FD022EC0BF0000E0001886F000E000134
:100FC000896F600E376E000E386E79EC08F01200F3
:100FD0008A0E126E000E136E73EC07F0436E14D07F
:100FE0008A0E0001B86F000E0001B96F600E00019B
:100FF000BA6F000E0001BB6FB1EC0BF0E806D8A48D
:101000000DD0010E446E0AD04350000AD8B406D069
:10101000010AD8B403D0030AD8B4E2D7600E116E27
:10102000000E126E17EC09F00001EF6F81A003D0E3
:10103000000E426E12004250D8A406D0600E376EE9
:10104000000E386E79EC08F0010E426E120018C0E6
:101050001CF019C01DF01CC00FF01DC010F01AC00C
:1010600011F01BC012F0F9EC0AF00FC01CF010C018
:101070001DF0164A172A1C501D10D8A4ECD716C014
:10108000D9FF17C0DAFF000EDF6E1606D8A01706CC
:1010900018C00FF019C010F01AC011F01BC012F0E8
:1010A00090EC0BF00F501E6E18C00FF019C010F02E
:1010B0001AC011F01BC012F0F9EC0AF00FC018F0C2
:1010C00010C019F0090E1E6402D0070E1E26300E45
:1010D0001E2616C0D9FF17C0DAFF1EC0DFFF160696
:1010E000D8A0170618501910D8A4D2D7164A172A14
:1010F00012006C9A060E0001B46F300EE82EFED777
:10110000B42FFCD700F06C8A6C9E000E456E20EE6A
:1011100029F03750D9263850DA22000EDF6E20EE43
:1011200028F03750D9263850DA22000EDF6E3D4ABB
:101130003E2A19D037C023F038C024F024EC0CF03C
:10114000120037C023F038C024F06FEC0BF012000F
:1011500037C029F038C02AF04AEC0BF0000E3E6E82
:10116000000E3D6E12003DC0B4F03EC0B5F000016F
:10117000B551000AD8A4F2D70001B451010AD8B47D
:10118000D9D7030AD8B4DDD7010AD8B4E1D7E6D756
:101190001BC00FF01CC010F0230E116EA3EC0AF060
:1011A0001BC00FF01CC010F0230E116EA3EC0AF050
:1011B0001BC00FF01CC010F0210E116EA3EC0AF042
:1011C0001BC013F01CC014F01DC015F01EC016F09B
:1011D000A0EC09F01BC00FF01CC010F03B0E116E0C
:1011E000A3EC0AF01BC013F01CC014F01FC015F0D4
:1011F00020C016F0A0EC09F01BC00FF01CC010F0CE
:101200003B0E116EA3EC0AF01BC013F01CC014F0CF
:1012100021C015F022C016F0A0EC09F01BC00FF0A1
:101220001CC010F02A0E116EA3EC0AF0120020EE82
:1012300028F01150D9261250DA2210EE29F0115060
:10124000E1261250E222DE50E618D8A406D0010EA4
:10125000156E000E6DEC0CF030D0000E156E20EE09
:1012600029F01150D9261250DA22DF50136E135094
:10127000010DF3501124D96EF4501220DA6EDF50B4
:101280006DEC0CF0E806D8A418D020EE29F011502F
:10129000D9261250DA22DF2A20EE29F01150D92661
:1012A0001250DA22270EDF6408D020EE29F0115008
:1012B000D9261250DA22000EDF6E15501200000EF1
:1012C000176E000E186E000E196E000E1A6E135077
:1012D000141015101610D8B42AD0010E1B6E06D0AB
:1012E000D89013361436153616361B2A16AEF8D794
:1012F000D8901736183619361A3613500F5C14501A
:1013000010581550115816501258D8A009D0135023
:101310000F5E1450105A1550115A1650125A178059
:10132000D89016321532143213321B2EE1D717C063
:101330000FF018C010F019C011F01AC012F012000E
:10134000000E1A6E000E196E1FD013C00FF014C0DD
:1013500010F019501524176E1A501620186E17C069
:10136000F6FF18C0F7FFF86A050EF76403D008000F
:10137000F55005D0F6CFE1FFF7CFE2FFE750116E51
:10138000A3EC0AF0194A1A2A19501524176E1A509C
:101390001620186E17C0F6FF18C0F7FFF86A050E82
:1013A000F76403D00800F55005D0F6CFE1FFF7CF82
:1013B000E2FFE7500009D8B41200C7D7949C949E6E
:1013C000949A94968B9E8B9A8B961A0E146EF80EA6
:1013D000E82EFED7142EFCD700D08B9C1A0E146E6C
:1013E000F80EE82EFED7142EFCD700D08B9E8B9AD9
:1013F0008B961A0E146EF80EE82EFED7142EFCD71C
:1014000000D08B8E8B8A8B861A0E146EF80EE82E07
:10141000FED7142EFCD700D08B8C000E106E0A0E57
:101420000F6ECCEC0BF012001350141015101610A8
:10143000D8B424D0010E176E06D0D89013361436C7
:1014400015361636172A16AEF8D713500F5C1450FF
:1014500010581550115816501258D8A008D01350D3
:101460000F5E1450105A1550115A1650125AD89037
:101470001632153214321332172EE7D70FC00FF081
:1014800010C010F011C011F012C012F01200AFEC39
:101490000CF0000E0001F26F000EF16F0001F2BFC0
:1014A00008D00001F25117E10A0E0001F15DD8B039
:1014B00012D08A88000E106E0A0E0F6ECCEC0BF064
:1014C0008A98000E106E0A0E0F6ECCEC0BF0000125
:1014D000F14BF22BE3D78CEC0CF0010ED3EC07F0C0
:1014E000000ED3EC07F04AEC0CF0F1EC05F0F8D765
:1014F0001BC00FF01CC010F0230E116EA3EC0AF0FD
:101500001BC00FF01CC010F0230E116EA3EC0AF0EC
:101510001BC00FF01CC010F0210E116EA3EC0AF0DE
:101520001BC013F01CC014F01DC015F01EC016F037
:10153000A0EC09F01BC00FF01CC010F02A0E116EB9
:10154000A3EC0AF0120020EE28F00F50D92610501C
:10155000DA22DF50126E1250010DF3500F24D96EB3
:10156000F4501020DA6E11C0DFFF20EE28F00F508B
:10157000D9261050DA22DF2A20EE28F00F50D92683
:101580001050DA22270EDF64120020EE28F00F50F0
:10159000D9261050DA22000EDF6E1200000E176EF0
:1015A000000E186E000E196E000E1A6E0FA008D0F5
:1015B00013501726145018221550192216501A22AB
:1015C000D8901336143615361636D890123211329A
:1015D00010320F320F50101011101210D8A4E6D78D
:1015E00017C00FF018C010F019C011F01AC012F097
:1015F0001200000E156E000E146E11501210D8B4A9
:101600001CD0010E136E04D0D89011361236132A56
:1016100012AEFAD7D8901436153611500F5C12500E
:101620001058D8A005D011500F5E1250105A1480D7
:10163000D89012321132132EEDD714C00FF015C00E
:1016400010F01200929092829496949A949C949E98
:101650000F0138938B8C8B868B8A8B8E6C9A0F0143
:1016600039910F0139930F0139950F013997938003
:101670009382938493966D9E6D8C6C9E6C9C6C9AF9
:101680006C886C50F00B04096C6E000E696E6998E2
:101690006C8A12002B0E1C6E000E1D6E39C01EF0DF
:1016A0003AC01FF03BC020F03CC021F0000E236E7A
:1016B0000A0E226EF8EC06F029C01BF02AC01CF0BE
:1016C000570E1D6E060E1E6E170E1F6E060E206E36
:1016D0002B0E216E000E226EC8EC08F01200250EB3
:1016E000166E000E176E3FC018F040C019F0000EC5
:1016F0001B6E0A0E1A6E27EC08F023C01BF024C0E4
:101700001CF0570E1D6E060E1E6E240E1F6E060E6A
:10171000206E250E216E000E226EC8EC08F012001D
:1017200011501210D8B418D0010E136E04D0D890F6
:1017300011361236132A12AEFAD711500F5C12501E
:101740001058D8A004D011500F5E1250105AD890E3
:1017500012321132132EF1D70FC00FF010C010F05B
:101760001200BC0E156E000E166EB8C017F0B9C090
:1017700018F09BEC04F0BC0E0001B46F000E0001E9
:10178000B56FBAC0B6F0BBC0B7F030EC03F00001E3
:10179000EE6F0001EE511200000E136E000E126E7D
:1017A00009D0340E116EF20EE82EFED7112EFCD7A2
:1017B000124A132A0F50125C1350800A116E1050F7
:1017C000800A1158D8B01200ECD71AC00FF01BC015
:1017D00010F01CC011F01DC012F05BEC05F00FC042
:1017E0001EF010C01FF01E501F10D8A402D0010E12
:1017F00001D0000E206E20501200000E116E6DA060
:101800000CD00FC0D9FF10C0DAFF6FCFDFFF010E81
:10181000116E6C9E000E456E02D0000E116E1150BE
:10182000120000EE60F0540EEE6AE806FDE100EEF4
:1018300039F0180EEE6AE806FDE151905192000E63
:10184000F86E000147EF0AF023C01BF024C01CF023
:10185000570E1D6E060E1E6E0D0E1F6E060E206EAE
:101860004B0E216E060E226EC8EC08F012000F50CF
:101870001102F3CF13F0F4CF14F00F501202F35013
:10188000142610501102F350142613C00FF014C088
:1018900010F0120080B20CD089804850D8A41200F9
:1018A000010E486E81A802D08A9812008A88120020
:1018B0008990000E486E1200C290000E0F01386F22
:1018C000000E0F01396F000E0F013A6F93988A983E
:1018D000948492829290899012000F6E000E106E86
:1018E0004550D8A406D00FC06FFF010E456E010E03
:1018F00001D0000E106E10501200116E000E106E0E
:101900003A0E116005D02F0E116402D0010E106E38
:1019100010C00FF00F301200D59ED59CD59AD596E9
:10192000D550F80B0109D56EF28AF28ED58E1200D1
:10193000D39ED388D38AD38C030ED312D298D29657
:10194000D2949B8E9B9C12001FC01BF020C01CF0E9
:101950004F0E1D6E060E1E6E78EC0AF0120098EC0B
:0C1960000CF05CEC0CF0DEEC09F0120066
:020000040020DA
:08000000FFFFFFFFFFFFFFFF00
:020000040030CA
:0E000000FF081F3CFFBF81FF0FC00FE00F4045
:00000001FF
