:0400000061EF00F0BC
:100008004D82FACF01F0FBCF02F0E9CF03F0EACF3F
:1000180004F0E1CF05F0E2CF06F0D9CF07F0DACF50
:1000280008F0F3CF09F0F4CF0AF0F6CF0BF0F7CFD2
:100038000CF0F8CF0DF0F5CF0EF04DC00FF04EC01C
:1000480010F04FC011F050C012F0F294FC0ED76EB1
:10005800180ED66E010E4426000E4522462247226F
:10006800010E00016427000E65236623672312C072
:1000780050F011C04FF010C04EF00FC04DF00EC040
:10008800F5FF0DC0F8FF0CC0F7FF0BC0F6FF0AC064
:10009800F4FF09C0F3FF08C0DAFF07C0D9FF06C0A4
:1000A800E2FF05C0E1FF04C0EAFF03C0E9FF02C0A8
:0E00B800FBFF01C0FAFF4D92110076EF0BF036
:100600000043616C6962726174696F6E0050535689
:10061000657273696F6E00456E5573656400566F41
:100620006C7473005761747473004C454442004409
:10063000617461005265616400436F6E6600416DD4
:1006400070730032323200333333003434340045B7
:0F0650004E44004F666600536574004F6E000005
:100660004204D8A409D0000E0001746F000E756F0B
:10067000000E766F000E776F80B2AAD04A50D8A4D1
:10068000A9D0010E4A6E000E426E64C03AF065C0F9
:100690003BF066C03CF067C03DF0000E0001646FA7
:1006A000000E656F000E666F000E676F640E236E9E
:1006B000000E246E000E256E000E266E3EC02CF03D
:1006C0003FC02DF040C02EF041C02FF0040ED89056
:1006D0002C362D362E362F36E82EF9D72CC013F0B7
:1006E0002DC014F02EC015F02FC016F0100E176E8E
:1006F0000E0E186E000E196E000E1A6E38EC0CF00D
:1007000013C01FF014C020F015C021F016C022F055
:10071000F7EC0AF01FC030F020C031F021C032F0F9
:1007200022C033F030C01FF031C020F032C021F0C1
:1007300033C022F03AC023F03BC024F03CC025F087
:100740003DC026F0F7EC0AF01FC06CF020C06DF041
:1007500021C06EF022C06FF03EC02CF03FC02DF0E3
:1007600040C02EF041C02FF0040ED8902C362D360C
:100770002E362F36E82EF9D72C50000160272D5049
:10078000000161232E50000162232F5000016323DA
:1007900010D0010E00016827000E69236A236B2325
:1007A000A00E0001605F860E615B010E625B000EB1
:1007B000635B00016351EDE1A10E0001605D860EF7
:1007C00000016159010E00016259D8A003D0E1D7A0
:1007D000000E4B6E82B463D04B50D8A462D0010E91
:1007E0004B6E000E426E44C0D0F045C0D1F046C002
:1007F000D2F047C0D3F0000E446E000E456E000EDE
:10080000466E000E476E640E236E000E246E000EC0
:10081000256E000E266E3EC013F03FC014F040C09F
:1008200015F041C016F0100E176E0E0E186E000E69
:10083000196E000E1A6E38EC0CF013C01FF014C0C5
:1008400020F015C021F016C022F0F7EC0AF01FC00E
:1008500030F020C031F021C032F022C033F030C07F
:100860001FF031C020F032C021F033C022F0D0C0E0
:1008700023F0D1C024F0D2C025F0D3C026F0F7EC8D
:100880000AF01FC070F020C071F021C072F022C0C9
:1008900073F0000E0001D56F010ED46F02D0000E70
:1008A0004B6E4250D8A483D044500001D05D4550D7
:1008B0000001D15946500001D25947500001D35987
:1008C000D8B075D0D4C013F0D5C014F0156A166A2C
:1008D000E80E176E030E186E000E196E000E1A6EDB
:1008E00038EC0CF04450135C4550145846501558E1
:1008F00047501658D8B05BD00001D5514FE15A0E81
:100900000001D45DD8B04AD00001D44BD52B640E81
:10091000236E000E246E000E256E000E266E3EC065
:1009200013F03FC014F040C015F041C016F0100E97
:10093000176E0E0E186E000E196E000E1A6E38EC41
:100940000CF013C01FF014C020F015C021F016C029
:1009500022F0F7EC0AF01FC030F020C031F021C0C7
:1009600032F022C033F030C01FF031C020F032C06E
:1009700021F033C022F044C023F045C024F046C02B
:1009800025F047C026F0F7EC0AF01FC074F020C035
:1009900075F021C076F022C077F009D0000E00017A
:1009A000746F000E756F000E766F000E776F4250F9
:1009B000D8A412003D503C1019E1A00E3A5C0F0E75
:1009C0003B58D8B013D0C4C03EF0C5C03FF0C6C03D
:1009D00040F0C7C041F06CC074F06DC075F06EC0DF
:1009E00076F06FC077F0010E436E1200C4C03EF087
:1009F000C5C03FF0C6C040F0C7C041F03D503C10FC
:100A00000FE1E80E3A5C800E3B58D8B009D0C8C060
:100A10003EF0C9C03FF0CAC040F0CBC041F011D099
:100A20003D503C100EE1400E3A5C9C0E3B58D8B055
:100A300008D0CCC03EF0CDC03FF0CEC040F0CFC01B
:100A400041F070C074F071C075F072C076F073C080
:100A500077F0000E436E1200000E396EB5C01EF026
:100A6000B6C01FF04F0E206E060E216E59EC0DF031
:100A7000E806D8A403D0010E396E57D1B5C01EF0D8
:100A8000B6C01FF0570E206E060E216E59EC0DF009
:100A9000E806D8A43BD00A0E0001B5251E6E000E54
:100AA0000001B6211F6E010E206E060E216E59EC5C
:100AB0000DF0E806D8B439D10A0E0001B5251E6E36
:100AC000000E0001B6211F6E170E206E060E216E5D
:100AD00059EC0DF0E806D8A428D1140E0001B52574
:100AE0001F6E000E0001B621206E68EC08F01FC0DA
:100AF00068F020C069F021C06AF022C06BF0B7C076
:100B0000A7F0B8C0A8F000EC0DF00FD1B5C01EF0F2
:100B1000B6C01FF0340E206E060E216E59EC0DF09B
:100B2000E806D8B402D1B5C01EF0B6C01FF02F0E33
:100B3000206E060E216E59EC0DF0E806D8A459D0AF
:100B40000A0E0001B5251E6E000E0001B6211F6EB3
:100B50002A0E206E060E216E59EC0DF0E806D8A480
:100B6000E4D0140E0001B5251E6E000E0001B62162
:100B70001F6E5B0E206E060E216E59EC0DF0E8061E
:100B8000D8A413D0B7C01FF0B8C020F0570E216E04
:100B9000060E226E2A0E236E060E246E530E256E4E
:100BA000060E266E60EC0AF0C0D0140E0001B525CA
:100BB0001E6E000E0001B6211F6E530E206E060E33
:100BC000216E59EC0DF0E806D8A4AFD0B7C01FF0E5
:100BD000B8C020F0570E216E060E226E2A0E236E2C
:100BE000060E246E5B0E256E060E266E60EC0AF075
:100BF0009CD0B5C01EF0B6C01FF0390E206E060E98
:100C0000216E59EC0DF0E806D8A48FD00A0E000131
:100C1000B5251E6E000E0001B6211F6E2A0E206E35
:100C2000060E216E59EC0DF0E806D8A407D0B7C027
:100C300023F0B8C024F00AEC0EF077D00A0E0001C1
:100C4000B5251E6E000E0001B6211F6E240E206E0B
:100C5000060E216E59EC0DF0E806D8A407D0B7C0F7
:100C600023F0B8C024F00AEC0EF05FD00A0E0001A9
:100C7000B5251E6E000E0001B6211F6E170E206EE8
:100C8000060E216E59EC0DF0E806D8A407D0B7C0C7
:100C900023F0B8C024F00AEC0EF047D00A0E000191
:100CA000B5251E6E000E0001B6211F6E1E0E206EB1
:100CB000060E216E59EC0DF0E806D8A407D0B7C097
:100CC00023F0B8C024F00AEC0EF02FD00A0E000179
:100CD000B5251E6E000E0001B6211F6E3E0E206E61
:100CE000060E216E59EC0DF0E806D8A407D0B7C067
:100CF00023F0B8C024F00AEC0EF017D00A0E000161
:100D0000B5251E6E000E0001B6211F6E0D0E206E61
:100D1000060E216E59EC0DF0E806D8A406D0B7C037
:100D200023F0B8C024F00AEC0EF039501200000E87
:100D3000236E000E226E000E216E000E206E21BE6C
:100D400008D0215005E1050E205CD8B082D001D03A
:100D500080D020C013F021C014F0000E166E0A0ED1
:100D6000156EAFEC0DF013501924D96E14501A20E3
:100D7000DA6E000EDF6E204A212A21BEEAD721500A
:100D800068E1E1D7000E236E222A040E22645AD0B5
:100D9000040E226E57D020EE29F01B50D9261C508D
:100DA000DA22DF501D6E1D50010DF3501B24D96E49
:100DB000F4501C20DA6E22500A0D19C01EF01AC021
:100DC0001FF0F3501E26F4501F222350010DF35044
:100DD0001E24E16EF4501F20E26EDFCFE7FF232ACE
:100DE000090E236402D0090E236E22500A0D19C089
:100DF0001DF01AC01EF0F3501D26F4501E22235081
:100E0000010DF3501D24D96EF4501E20DA6E000E31
:100E1000DF6E18D020EE29F01B50D9261C50DA22A4
:100E2000DF501D6E1D50010DF3501B24D96EF45080
:100E30001C20DA6EDF50210AD8B404D01A0AD8B4C4
:100E4000A1D7A9D720EE29F01B50D9261C50DA22B1
:100E5000DF2A20EE29F01B50D9261C50DA22DF5061
:100E60001D6E1D50010DF3501B24D96EF4501C2033
:100E7000DA6E2A0EDE18D8B4120020EE29F01B50CC
:100E8000D9261C50DA22280EDF60120020EE28F04E
:100E90001B50D9261C50DA2210EE29F01B50E126F7
:100EA0001C50E222DE50E618D8B41200B3D7000E70
:100EB0001D6E000E1C6E000E1B6E000E1A6E35D0DD
:100EC0001C501324D96E1D501420DA6E1C501524AA
:100ED000186E1D501620196E18C0F6FF19C0F7FFC6
:100EE000DE500900F55CD8B005D0000E1B6E010E77
:100EF0001A6E19D01C501324D96E1D501420DA6EAE
:100F0000DF50176E1C501524186E1D501620196ED8
:100F100018C0F6FF19C0F7FF0800F550175CD8B0ED
:100F200002D01A681B681C4A1D2A1C501324D96E53
:100F30001D501420DA6EDF50D8B413D01C50152485
:100F4000176E1D501620186E17C0F6FF18C0F7FF59
:100F50000800F5500009D8B404D01A501B10D8B4BA
:100F6000AFD71C501324D96E1D501420DA6EDF50F9
:100F7000D8A412D01C501524176E1D501620186EC0
:100F800017C0F6FF18C0F7FF0800F5500009D8B4E5
:100F900003D01A681B681CD01C501324D96E1D5036
:100FA0001420DA6EDF50D8B413D01C501524176EFD
:100FB0001D501620186E17C0F6FF18C0F7FF080066
:100FC000F5500009D8A404D0000E1B6E010E1A6E55
:100FD0001AC013F01BC014F012002EC034F02FC042
:100FE00035F030C036F031C037F034C01FF035C0B6
:100FF00020F036C021F037C022F032C023F033C0D9
:1010000024F0000E24BEFF0E256E266EF7EC0AF0CB
:101010001FC034F020C035F021C036F022C037F0B8
:101020002C4A2D2A3450351036103710D8A4DDD76D
:101030002CC0D9FF2DC0DAFF000EDF6E2C06D8A021
:101040002D062EC013F02FC014F030C015F031C0A3
:1010500016F032C017F033C018F0000E18BEFF0EA5
:10106000196E1A6EAFEC0BF01350386E2EC01FF0D5
:101070002FC020F030C021F031C022F032C023F068
:1010800033C024F0000E24BEFF0E256E266EF7EC52
:101090000AF01FC02EF020C02FF021C030F022C077
:1010A00031F0090E386402D0070E3826300E38268B
:1010B0002CC0D9FF2DC0DAFF38C0DFFF2C06D8A026
:1010C0002D062E502F1030103110D8B41200B9D781
:1010D0001FC0D9FF20C0DAFFDF502C6E1F4A202A24
:1010E000200E2C18D8B4F4D7090E2C18D8B4F0D789
:1010F000000E286E000E296E000E2A6E000E2B6E5A
:10110000000E276E2D0E2C18D8A402D0272A27D027
:101110002B0E2C18D8A42BD022D028C013F029C015
:1011200014F02AC015F02BC016F00A0E176E000E30
:10113000186E000E196E000E1A6E38EC0CF02CC0F2
:1011400023F0D00E232623501324286E000E1420E3
:10115000296E000E15202A6E000E16202B6E1FC061
:10116000D9FF20C0DAFFDF502C6E1F4A202A2C50F6
:10117000E3EC0DF0D8B0D1D72750D8B41AD028C09E
:1011800023F029C024F02AC025F02BC026F0231E0E
:10119000241E251E261E232A000E24222522262256
:1011A00023C01FF024C020F025C021F026C022F06B
:1011B000120028C01FF029C020F02AC021F02BC047
:1011C00022F012001EEC0EF0000E0001C16F000EA6
:1011D000C06F0001C1BF08D00001C15117E10A0E64
:1011E0000001C05DD8B012D08A88000E146E0A0EBD
:1011F000136E40EC0DF08A98000E146E0A0E136EFA
:1012000040EC0DF00001C04BC12BE3D7F2EC0DF028
:10121000010EAEEC09F0000E0001BF6F000EAEEC47
:1012200009F063EC0CF030EC03F00001BF51000159
:10123000D8A4F4D7000167510001661108E1E90E56
:101240000001645D030E00016559D8A0E7D771EC79
:101250000DF0010E0001BF6F000E0001C36F000E04
:10126000C26F0001C3BF08D00001C351D7E10A0E0D
:101270000001C25DD8B0D2D78A88000E146E030E6A
:10128000136E40EC0DF08A98000E146E050E136E6E
:1012900040EC0DF00001C24BC32BE3D7020E4818FF
:1012A000D8A402D0000E486E190E136E000E146EF4
:1012B00088EC0DF0E806D8A44FD0210E1918D8A458
:1012C00015D04804D8B412D0010E486E20EE29F093
:1012D0001650D9261750DA22000EDF6E20EE28F0C5
:1012E0001650D9261750DA22000EDF6E4804D8A413
:1012F0002AD020EE28F01650D9261750DA22DF50D7
:10130000186E1850010DF3501624D96EF4501720A2
:10131000DA6E19C0DFFF20EE28F01650D9261750DC
:10132000DA22DF2A20EE28F01650D9261750DA22CA
:10133000270EDF6408D020EE28F01650D92617506B
:10134000DA22270EDF6E4804D8A406D02A0E191818
:10135000D8A402D0020E486E485012000001BE6FA1
:101360000001BE05D8A411D08DEC0CF0000E0001D8
:10137000A56F000E0001A66F7D0E0001B56F000E77
:101380000001B66F0DEC0AF01200330E166E010E5E
:10139000176E4EEC09F000017B6F15D0330E000183
:1013A000B96F010E0001BA6F7D0E0001BB6F000E18
:1013B0000001BC6F25EC0DF0E806D8A40FD0010E9B
:1013C00000017C6F0BD000017B51000AD8B406D01D
:1013D000010AD8B403D0030AD8B4E0D77D0E156E45
:1013E000000E166EAFEC0AF00001BD6F81A004D0B4
:1013F000000E00017A6F120000017A510001D8A49A
:1014000008D07D0E0001B56F000E0001B66F0DEC27
:101410000AF0010E00017A6F12006C9A060E0001AC
:10142000B76F300EE82EFED7B72FFCD700F06C8ACE
:101430006C9E000E496E000120EE29F0B551D926B0
:10144000B651DA22000EDF6E000120EE28F0B55111
:10145000D926B651DA22000EDF6E0001784B792BC7
:101460001AD0B5C027F0B6C028F09CEC0DF01200E1
:10147000B5C0A7F0B6C0A8F0DBEC0CF01200B5C008
:10148000A7F0B6C0A8F000EC0DF0000E0001796FD7
:10149000000E786F120078C0B7F079C0B8F0000184
:1014A000B851000AD8A4F1D70001B751010AD8B445
:1014B000D8D7030AD8B4DCD7010AD8B4E0D7E5D727
:1014C0001FC013F020C014F0230E156E0DEC0CF0AD
:1014D0001FC013F020C014F0230E156E0DEC0CF09D
:1014E0001FC013F020C014F0210E156E0DEC0CF08F
:1014F0001FC017F020C018F021C019F022C01AF048
:1015000038EC0BF01FC013F020C014F03B0E156E2A
:101510000DEC0CF01FC017F020C018F023C019F01C
:1015200024C01AF038EC0BF01FC013F020C014F0E8
:101530003B0E156E0DEC0CF01FC017F020C018F01C
:1015400025C019F026C01AF038EC0BF01FC013F0BC
:1015500020C014F02A0E156E0DEC0CF0120020EED7
:1015600028F01550D9261650DA2210EE29F0155021
:10157000E1261650E222DE50E618D8A406D0010E6D
:10158000196E000ED3EC0DF030D0000E196E20EE67
:1015900029F01550D9261650DA22DF50176E175051
:1015A000010DF3501524D96EF4501620DA6EDF5079
:1015B000D3EC0DF0E806D8A418D020EE29F0155091
:1015C000D9261650DA22DF2A20EE29F01550D92626
:1015D0001650DA22270EDF6408D020EE29F01550CD
:1015E000D9261650DA22000EDF6E19501200000EB6
:1015F000276E000E286E000E296E000E2A6E2350F4
:10160000241025102610D8B42AD0010E2B6E06D037
:10161000D89023362436253626362B2A26AEF8D700
:10162000D8902736283629362A3623501F5C245076
:1016300020582550215826502258D8A009D0235090
:101640001F5E2450205A2550215A2650225A2780A6
:10165000D89026322532243223322B2EE1D727C0D0
:101660001FF028C020F029C021F02AC022F012006B
:10167000000E1E6E000E1D6E1FD017C013F018C096
:1016800014F01D5019241B6E1E501A201C6E1BC016
:10169000F6FF1CC0F7FFF86A050EF76403D00800D8
:1016A000F55005D0F6CFE1FFF7CFE2FFE750156E1A
:1016B0000DEC0CF01D4A1E2A1D5019241B6E1E50E5
:1016C0001A201C6E1BC0F6FF1CC0F7FFF86A050E3F
:1016D000F76403D00800F55005D0F6CFE1FFF7CF4F
:1016E000E2FFE7500009D8B41200C7D72A0EF66E01
:1016F0001C0EF76E000EF86E00EEC4F010EE12F045
:101700000900F5CFEEFFE550E150FAE14E0EF66E1E
:101710001C0EF76E000EF86E00EE3AF010EE0AF0B6
:101720000900F5CFEEFFE550E150FAE101EE33F0AC
:101730002A0EEE6AE806FDE100EE60F0470EEE6A62
:10174000E806FDE100EE44F0090EEE6AE806FDE170
:101750004D904D92000EF86E0001E2EF08F0175028
:10176000181019101A10D8B424D0010E1B6E06D010
:10177000D8901736183619361A361B2A1AAEF8D7EB
:101780001750135C18501458195015581A50165801
:10179000D8A008D01750135E1850145A1950155A73
:1017A0001A50165AD8901A321932183217321B2E84
:1017B000E7D713C013F014C014F015C015F016C00D
:1017C00016F012001FC013F020C014F0230E156E87
:1017D0000DEC0CF01FC013F020C014F0230E156E9A
:1017E0000DEC0CF01FC013F020C014F0210E156E8C
:1017F0000DEC0CF01FC017F020C018F021C019F03C
:1018000022C01AF038EC0BF01FC013F020C014F007
:101810002A0E156E0DEC0CF0120020EE28F013507D
:10182000D9261450DA22DF50166E1650010DF350EF
:101830001324D96EF4501420DA6E15C0DFFF20EEA9
:1018400028F01350D9261450DA22DF2A20EE28F08F
:101850001350D9261450DA22270EDF64120020EE2E
:1018600028F01350D9261450DA22000EDF6E120031
:10187000000E1B6E000E1C6E000E1D6E000E1E6E06
:1018800013A008D017501B2618501C2219501D22D7
:101890001A501E22D8901736183619361A36D89094
:1018A000163215321432133213501410151016104C
:1018B000D8A4E6D71BC013F01CC014F01DC015F04F
:1018C0001EC016F012004350D8B412D080B20CD013
:1018D00089804C50D8A41200010E4C6E81A802D011
:1018E0008A9812008A8812008990000E4C6E1200AD
:1018F0004350D8A4120082B40CD089804C50D8A494
:101900001200010E4C6E81A802D08A9812008A88BB
:1019100012008990000E4C6E120092909282949662
:10192000949A949C949E0F0138938B8C8B868B8A0F
:101930008B8E6C9A0F0139910F0139930F013995F4
:101940000F01399793809382938493966D9E6D8C4B
:101950006C9E6C9C6C9A6C886C50F00B04096C6EDD
:10196000000E696E69986C8A1200000EF26E000E0D
:10197000F16E000EF06ED09E000E9E6E000EA16EF7
:10198000000EA46E000E7B6E000E7E6E000E9D6E2D
:10199000000EA06E000EA36E000E7A6E000E7D6E1D
:1019A000000E9F6E000EA26E000EA56E000E7C6EE5
:1019B000000E7F6E1200A90E2C6E000E2D6E74C0EC
:1019C0002EF075C02FF076C030F077C031F0000EE9
:1019D000336E0A0E326EEDEC07F0A7C01FF0A8C000
:1019E00020F0570E216E060E226E240E236E060E78
:1019F000246EA90E256E000E266E60EC0AF0120011
:101A0000A90E2C6E000E2D6E68C02EF069C02FF04E
:101A10006AC030F06BC031F0000E336E0A0E326EC9
:101A2000EDEC07F0A7C01FF0A8C020F0570E216E04
:101A3000060E226E170E236E060E246EA90E256E5C
:101A4000000E266E60EC0AF01200000E196E010EF8
:101A50001A6EB9C01BF0BAC01CF097EC06F0000E6D
:101A60000001B56F010E0001B66FBBC0B7F0BCC07E
:101A7000B8F02CEC05F00101326F01013251120077
:101A8000000E176E000E166E09D0340E156EF20E93
:101A9000E82EFED7152EFCD7164A172A1350165CCF
:101AA0001750800A156E1450800A1558D8B01200CD
:101AB000ECD71EC013F01FC014F020C015F021C0D9
:101AC00016F057EC07F013C022F014C023F0225098
:101AD0002310D8A402D0010E01D0000E246E245091
:101AE0001200949C949E949A94968B8E8B8A8B86EB
:101AF0001A0E186EF80EE82EFED7182EFCD700D05E
:101B00008B8C000E146E0A0E136E40EC0DF012005A
:101B1000000E156E6DA00CD013C0D9FF14C0DAFFF3
:101B20006FCFDFFF010E156E6C9E000E496E02D066
:101B3000000E156E1550120027C01FF028C020F0AF
:101B4000570E216E060E226E0D0E236E060E246EAB
:101B50004B0E256E060E266E60EC0AF01200135036
:101B60001502F3CF17F0F4CF18F013501602F3500C
:101B7000182614501502F350182617C013F018C079
:101B800014F01200C290000E0F01386F000E0F010A
:101B9000396F000E0F013A6F93988A98948492825D
:101BA000929089901200136E000E146E4950D8A4C2
:101BB00006D013C06FFF010E496E010E01D0000E5A
:101BC000146E14501200156E000E146E3A0E15604D
:101BD00005D02F0E156402D0010E146E14C013F040
:101BE00013301200D59ED59CD59AD596D550F80BBA
:101BF0000109D56EF28AF28ED58E1200D39ED3885B
:101C0000D38AD38C030ED312D298D296D2949B8EC1
:101C10009B9C120023C01FF024C020F04F0E216EA9
:101C2000060E226EE2EC0BF0120078690000D30180
:101C30000000DC000000FFFFFF7F0100FEEC0DF064
:101C4000C2EC0DF0B5EC0CF071EC0DF01200FFFFE2
:081C5000FF7F7869000001012B
:020000040020DA
:08000000FFFFFFFFFFFFFFFF00
:020000040030CA
:0E000000FF081F3CFFBF81FF0FC00FE00F4045
:00000001FF
