:04000000ABEF08F06A
:100600000043757272656E7400506F7765720056A4
:100610006F6C7473004C4544420044617461005235
:1006200065616400436F6E6600454E44004F666628
:1006300000536574004F6E000000000E1A6E16C065
:100640000DF015C00CF0060E0F6E290E0E6E55EC57
:1006500008F0196E1904D8A408D08AA802D08A9884
:1006600001D08A88010E1A6EFED016C00DF015C09A
:100670000CF0060E0F6E310E0E6E55EC08F0196E72
:100680001904D8A42DD00A0E15240C6E000E1620C5
:100690000D6E060E0F6E090E0E6E55EC08F0196EFB
:1006A0001904D8B4E0D00A0E15240C6E000E1620E2
:1006B0000D6E060E0F6E0F0E0E6E55EC08F0196ED5
:1006C0001904D8B4D0D00A0E15240C6E000E1620D2
:1006D0000D6E060E0F6E010E0E6E55EC08F0C3D0B7
:1006E00016C00DF015C00CF0060E0F6E1F0E0E6E2C
:1006F00055EC08F0196E1904D8A42DD00A0E152453
:100700000C6E000E16200D6E060E0F6E090E0E6E8C
:1007100055EC08F0196E1904D8B4A5D00A0E1524AA
:100720000C6E000E16200D6E060E0F6E0F0E0E6E66
:1007300055EC08F0196E1904D8B495D00A0E15249A
:100740000C6E000E16200D6E060E0F6E010E0E6E54
:1007500055EC08F088D016C00DF015C00CF0060E50
:100760000F6E1A0E0E6E55EC08F0196E1904D8A40F
:1007700056D00A0E15240C6E000E16200D6E060EB5
:100780000F6E150E0E6E55EC08F0196E1904D8A4F4
:100790006AD0140E15240C6E000E16200D6E060E77
:1007A0000F6E350E0E6E55EC08F0196E1904D8A4B4
:1007B00013D018C00EF017C00DF0060E106E310EDB
:1007C0000F6E060E126E150E116E060E146E2D0EA5
:1007D000136EB2EC06F047D0140E15240C6E000E0A
:1007E00016200D6E060E0F6E2D0E0E6E55EC08F0D7
:1007F000196E1904D8A437D018C00EF017C00DF028
:10080000060E106E310E0F6E060E126E150E116E64
:10081000060E146E350E136EB2EC06F024D016C020
:100820000DF015C00CF0060E0F6E240E0E6E55EC7A
:1008300008F0196E1904D8A416D00A0E15240C6EEF
:10084000000E16200D6E060E0F6E150E0E6E55EC78
:1008500008F0196E1904D8A406D018C012F017C0F9
:1008600011F0E8EC08F01A501200000E116E000EA4
:10087000106E000E0F6E000E0E6E0F50800A800F6D
:10088000050ED8B40E5CD8B07CD00EC001F00FC0FD
:1008900002F0000E046E0A0E036E98EC08F0015090
:1008A0000724D96E02500820DA6E000EDF6E0E4A61
:1008B0000F2AE3D7000E116E102A040E10645AD0CE
:1008C000040E106E57D020EE29F00950D9260A5098
:1008D000DA22DF500B6E0B50010DF3500924D96E54
:1008E000F4500A20DA6E10500A0D07C00CF008C050
:1008F0000DF0F3500C26F4500D221150010DF35061
:100900000C24E16EF4500D20E26EDFCFE7FF112AD8
:10091000090E116402D0090E116E10500A0D07C0A5
:100920000BF008C00CF0F3500B26F4500C221150C1
:10093000010DF3500B24D96EF4500C20DA6E000E2A
:10094000DF6E18D020EE29F00950D9260A50DA229D
:10095000DF500B6E0B50010DF3500924D96EF4508B
:100960000A20DA6EDF50210AD8B404D01A0AD8B4AB
:10097000A1D7A9D720EE29F00950D9260A50DA22AA
:10098000DF2A20EE29F00950D9260A50DA22DF505A
:100990000B6E0B50010DF3500924D96EF4500A2050
:1009A000DA6EDF502A0AD8B4120020EE29F009507E
:1009B000D9260A50DA22DF500B6E280E0B5CD8B015
:1009C000120020EE29F00950D9260A50DA2210EE42
:1009D00028F00950E1260A50E222E750DF62B2D740
:1009E0001200000E0B6E000E0A6E000E096E000E55
:1009F000086E3BD003C005F004C006F00A5005267F
:100A00000B50062205C0F6FF06C0F7FF0800F5CF21
:100A100007F00A500124D96E0B500220DA6EDF5025
:100A2000075CD8B005D0000E096E010E086E1BD011
:100A30000A500124D96E0B500220DA6EDF50056E89
:100A400003C006F004C007F00A5006260B50072228
:100A500006C0F6FF07C0F7FF0800F550055CD8B0E8
:100A600002D0086809680A4A0B2A0A500124D96E84
:100A70000B500220DA6EDF50D8B415D003C005F059
:100A800004C006F00A5005260B50062205C0F6FFEA
:100A900006C0F7FF0800F5500009D8B404D009508B
:100AA0000810D8B4A7D70A500124D96E0B500220E1
:100AB000DA6EDF50D8A414D003C005F004C006F0ED
:100AC0000A5005260B50062205C0F6FF06C0F7FFA8
:100AD0000800F5500009D8B403D0086809681ED092
:100AE0000A500124D96E0B500220DA6EDF50D8B4C0
:100AF00015D003C005F004C006F00A5005260B50BF
:100B0000062205C0F6FF06C0F7FF0800F5500009F1
:100B1000D8A404D0000E096E010E086E08C001F0C2
:100B200009C002F01200546E5404D8A40FD0000E75
:100B30000001B26F000E0001B36F0001000E166ECF
:100B400000018A0E156E1EEC08F012000001000E66
:100B5000056E0001600E046EF4EC05F05A6E15D0BF
:100B60000001000E1C6E0001600E1B6E0001000EE5
:100B70001E6E00018A0E1D6E6DEC08F0526E52045E
:100B8000D8A40DD0010E586E0AD05A50000AD8B41D
:100B900006D0010AD8B403D0030AD8B4E1D7580468
:100BA000D8A402D0000E586E0001000E046E0001A1
:100BB0008A0E036E01EC07F0536E81A008D0000E80
:100BC000596E5904D8A41200000E596E12005966CD
:100BD00008D00001000E166E00018A0E156E1EEC84
:100BE00008F0010E596E12005B50020AD8A402D020
:100BF000000E5B6E000E026E070E016E84EC08F0B4
:100C0000066E0604D8A44FD00750210AD8A415D0E8
:100C10005B04D8B412D0010E5B6E20EE29F00450B4
:100C2000D9260550DA22000EDF6E20EE28F004509F
:100C3000D9260550DA22000EDF6E5B04D8A42AD034
:100C400020EE28F00450D9260550DA22DF50066E37
:100C50000650010DF3500424D96EF4500520DA6ECD
:100C600007C0DFFF20EE28F00450D9260550DA2215
:100C7000DF2A20EE28F00450D9260550DA22270E6C
:100C8000DF6408D020EE28F00450D9260550DA227F
:100C9000270EDF6E5B04D8A406D007502A0AD8A41A
:100CA00002D0020E5B6E5B5012000EC002F00DC04F
:100CB00001F0230E036EA2EC07F00EC002F00DC08F
:100CC00001F0230E036EA2EC07F00EC002F00DC07F
:100CD00001F0230E036EA2EC07F00EC002F00DC06F
:100CE00001F0230E036EA2EC07F00EC002F00DC05F
:100CF00001F0230E036EA2EC07F00EC002F00DC04F
:100D000001F0230E036EA2EC07F00EC002F00DC03E
:100D100001F0210E036EA2EC07F00EC006F00DC02C
:100D200005F010C008F00FC007F049EC07F00EC046
:100D300002F00DC001F03B0E036EA2EC07F00EC0F6
:100D400006F00DC005F012C008F011C007F049EC24
:100D500007F00EC002F00DC001F02A0E036EA2ECE7
:100D600007F012000EC002F00DC001F0230E036E5A
:100D7000A2EC07F00EC002F00DC001F0230E036ECE
:100D8000A2EC07F00EC002F00DC001F0210E036EC0
:100D9000A2EC07F00EC006F00DC005F010C008F080
:100DA0000FC007F049EC07F00EC002F00DC001F0D3
:100DB0003B0E036EA2EC07F00EC006F00DC005F06E
:100DC00012C008F011C007F049EC07F00EC002F0A5
:100DD0000DC001F03B0E036EA2EC07F00EC006F052
:100DE0000DC005F014C008F013C007F049EC07F07F
:100DF0000EC002F00DC001F02A0E036EA2EC07F047
:100E0000120020EE29F00350D9260450DA2210EE09
:100E100028F00350E1260450E222E750DF6206D0BA
:100E2000010E076E000ECAEC08F031D0000E076EFE
:100E300020EE29F00350D9260450DA22DF50056E47
:100E40000550010DF3500324D96EF4500420DA6EDE
:100E5000DF50CAEC08F0066E0604D8A418D020EEC5
:100E600029F00350D9260450DA22DF2A20EE29F097
:100E70000350D9260450DA22270EDF6408D020EE72
:100E800029F00350D9260450DA22000EDF6E0750F5
:100E90001200000E0C6E000E0B6E17D006C002F092
:100EA00005C001F007C009F008C00AF00B50092680
:100EB0000C500A2209C0F6FF0AC0F7FF0800F5CF60
:100EC00003F0A2EC07F00B4A0C2A07C009F008C097
:100ED0000AF00B5009260C500A2209C0F6FF0AC07E
:100EE000F7FF0800F5500009D8B41200D7D70EC09C
:100EF00002F00DC001F0230E036EA2EC07F00EC04D
:100F000002F00DC001F0230E036EA2EC07F00EC03C
:100F100002F00DC001F0210E036EA2EC07F00EC02E
:100F200006F00DC005F010C008F00FC007F049EC46
:100F300007F00EC002F00DC001F02A0E036EA2EC05
:100F400007F0120020EE28F00150D9260250DA22D4
:100F5000DF50046E0450010DF3500124D96EF4509B
:100F60000220DA6E03C0DFFF20EE28F00150D92600
:100F70000250DA22DF2A20EE28F00150D926025052
:100F8000DA22270EDF64120020EE28F00150D92665
:100F90000250DA22000EDF6E120092909282939835
:100FA0009496949A949C949E0F0138938B8C8B8684
:100FB0008B8A8B8E6C9A0F0139910F0139930F0137
:100FC00039950F01399793809382938493966D9E00
:100FD0006D8C6C9E6C9C6C9A6C886C50F00B040948
:100FE0006C6E000E696E69986C8A12009290928203
:100FF00093989496949A949C949E0F0138938B8C1A
:101000008B868B8A8B8E000E086E000E076E050E87
:10101000075C000E0858D8B012008A88000E026ED5
:10102000190E016E3AEC08F08A98000E026E190E45
:10103000016E3AEC08F0074A082AE9D76C9A6C8AE4
:101040006C9E000E576E20EE29F01550D9261650D2
:10105000DA22000EDF6E20EE28F01550D926165049
:10106000DA22000EDF6E16C014F015C013F0D9ECB2
:1010700008F01200000E046E000E036E0FD0000E7A
:10108000066E000E056E640E055C000E0658D8B0A4
:1010900003D0054A062AF7D7034A042A0150035C05
:1010A00002500458D8B01200EAD70DC002F00CC0AC
:1010B00001F00FC004F00EC003F0F1EC04F001C029
:1010C00010F002C011F011501010D8A402D0010E7F
:1010D00001D0000E126E12501200000E086E1F0E8C
:1010E000076E1CC00AF01BC009F035EC04F0000EBE
:1010F000166E1F0E156E1EC018F01DC017F01DECE9
:1011000003F0516E51501200000E036E6DA00CD012
:1011100001C0D9FF02C0DAFF6FCFDFFF010E036EFF
:101120006C9E000E576E02D0000E036E035012002C
:1011300001500302F3CF05F0F4CF06F00150040292
:10114000F350062602500302F350062605C001F0B4
:1011500006C002F0120000EE60F0540EEE6AE806DF
:10116000FDE15B6A5A6A596A586A576A000EF86E5E
:101170000001BBEF08F0000E566E000E556EF6EC47
:1011800007F0CDEC07F0010E93EC05F0000E93ECA8
:1011900005F0FCD7016E000E026E576606D001C046
:1011A0006FFF010E576E010E01D0000E026E02504D
:1011B000120014C00EF013C00DF0060E106E1F0EBC
:1011C0000F6E060E126E150E116E55EC06F0120023
:1011D00012C00EF011C00DF0060E106E290E0F6E2B
:0611E00077EC07F012009D
:020000040020DA
:08000000FFFFFFFFFFFFFFFF00
:020000040030CA
:0E000000FF081F3CFFBF81FF0FC00FE00F4045
:00000001FF
