:0400000063EF00F0BA
:100008004D82FACF01F0FBCF02F0E9CF03F0EACF3F
:1000180004F0E1CF05F0E2CF06F0D9CF07F0DACF50
:1000280008F0F3CF09F0F4CF0AF0F6CF0BF0F7CFD2
:100038000CF0F8CF0DF0F5CF0EF04DC00FF04EC01C
:1000480010F04FC011F050C012F0F294FC0ED76EB1
:10005800180ED66E010E00018427000E8523862314
:100068008723010E8027000E812382238323010E1C
:10007800496E12C050F011C04FF010C04EF00FC0C2
:100088004DF00EC0F5FF0DC0F8FF0CC0F7FF0BC018
:10009800F6FF0AC0F4FF09C0F3FF08C0DAFF07C083
:1000A800D9FF06C0E2FF05C0E1FF04C0EAFF03C0B4
:1000B800E9FF02C0FBFF01C0FAFF4D9211004EEFAD
:0200C8000AF03C
:100600000043616C6962726174696F6E0050535689
:10061000657273696F6E00456E5573656400566F41
:100620006C7473005761747473004C454442004409
:10063000617461005265616400436F6E6600416DD4
:1006400070730032323200333333003434340045B7
:0F0650004E44004F666600536574004F6E000005
:10066000000E336E2FC01EF030C01FF04F0E206EF4
:10067000060E216E31EC0CF0E806D8A403D0010E72
:10068000336E3FD12FC01EF030C01FF0570E206ECA
:10069000060E216E31EC0CF0E806D8A435D00A0E17
:1006A0002F241E6E000E30201F6E010E206E060ECF
:1006B000216E31EC0CF0E806D8B423D10A0E2F24B9
:1006C0001E6E000E30201F6E170E206E060E216E5D
:1006D00031EC0CF0E806D8A414D1140E2F241F6EB0
:1006E000000E3020206ED2EC06F01FC088F020C033
:1006F00089F021C08AF022C08BF031C02DF032C0C9
:100700002EF0B7EC0BF0FDD02FC01EF030C01FF064
:10071000340E206E060E216E31EC0CF0E806D8B4D3
:10072000F0D02FC01EF030C01FF02F0E206E060E2E
:10073000216E31EC0CF0E806D8A453D00A0E2F2419
:100740001E6E000E30201F6E2A0E206E060E216EC9
:1007500031EC0CF0E806D8A4D4D0140E2F241E6E71
:10076000000E30201F6E5B0E206E060E216E31ECE7
:100770000CF0E806D8A413D031C01FF032C020F02E
:10078000570E216E060E226E2A0E236E060E246E62
:10079000530E256E060E266E10EC08F0B2D0140E25
:1007A0002F241E6E000E30201F6E530E206E060E7C
:1007B000216E31EC0CF0E806D8A4A3D031C01FF0B4
:1007C00032C020F0570E216E060E226E2A0E236EC6
:1007D000060E246E5B0E256E060E266E10EC08F0DB
:1007E00090D02FC01EF030C01FF0390E206E060EC4
:1007F000216E31EC0CF0E806D8A483D00A0E2F2429
:100800001E6E000E30201F6E2A0E206E060E216E08
:1008100031EC0CF0E806D8A407D031C023F032C088
:1008200024F0F3EC0CF06DD00A0E2F241E6E000E97
:1008300030201F6E240E206E060E216E31EC0CF05F
:10084000E806D8A407D031C023F032C024F0F3EC7E
:100850000CF057D00A0E2F241E6E000E30201F6E93
:10086000170E206E060E216E31EC0CF0E806D8A4AF
:1008700007D031C023F032C024F0F3EC0CF041D0AB
:100880000A0E2F241E6E000E30201F6E1E0E206ECC
:10089000060E216E31EC0CF0E806D8A407D031C06A
:1008A00023F032C024F0F3EC0CF02BD00A0E2F24EE
:1008B0001E6E000E30201F6E3E0E206E060E216E44
:1008C00031EC0CF0E806D8A407D031C023F032C0D8
:1008D00024F0F3EC0CF015D00A0E2F241E6E000E3F
:1008E00030201F6E0D0E206E060E216E31EC0CF0C6
:1008F000E806D8A406D031C023F032C024F0F3ECCF
:100900000CF033501200000E236E000E226E000E0B
:10091000216E000E206E21BE08D0215005E1050E8B
:10092000205CD8B082D001D080D020C013F021C08C
:1009300014F0000E166E0A0E156E70EC0CF01350CB
:100940001924D96E14501A20DA6E000EDF6E204A78
:10095000212A21BEEAD7215068E1E1D7000E236E9B
:10096000222A040E22645AD0040E226E57D020EEA2
:1009700029F01B50D9261C50DA22DF501D6E1D5065
:10098000010DF3501B24D96EF4501C20DA6E225056
:100990000A0D19C01EF01AC01FF0F3501E26F450A5
:1009A0001F222350010DF3501E24E16EF4501F202E
:1009B000E26EDFCFE7FF232A090E236402D0090E7F
:1009C000236E22500A0D19C01DF01AC01EF0F350FC
:1009D0001D26F4501E222350010DF3501D24D96E04
:1009E000F4501E20DA6E000EDF6E18D020EE29F0D3
:1009F0001B50D9261C50DA22DF501D6E1D50010DF0
:100A0000F3501B24D96EF4501C20DA6EDF50210AFB
:100A1000D8B404D01A0AD8B4A1D7A9D720EE29F0A7
:100A20001B50D9261C50DA22DF2A20EE29F01B5059
:100A3000D9261C50DA22DF501D6E1D50010DF350D7
:100A40001B24D96EF4501C20DA6E2A0EDE18D8B49E
:100A5000120020EE29F01B50D9261C50DA22280E55
:100A6000DF60120020EE28F01B50D9261C50DA223D
:100A700010EE29F01B50E1261C50E222DE50E61851
:100A8000D8B41200B3D7000E1D6E000E1C6E000EFF
:100A90001B6E000E1A6E35D01C501324D96E1D50DB
:100AA0001420DA6E1C501524186E1D501620196E75
:100AB00018C0F6FF19C0F7FFDE500900F55CD8B08A
:100AC00005D0000E1B6E010E1A6E19D01C50132497
:100AD000D96E1D501420DA6EDF50176E1C5015248D
:100AE000186E1D501620196E18C0F6FF19C0F7FFBA
:100AF0000800F550175CD8B002D01A681B681C4A71
:100B00001D2A1C501324D96E1D501420DA6EDF509C
:100B1000D8B413D01C501524176E1D501620186E13
:100B200017C0F6FF18C0F7FF0800F5500009D8B449
:100B300004D01A501B10D8B4AFD71C501324D96E50
:100B40001D501420DA6EDF50D8A412D01C5015248A
:100B5000176E1D501620186E17C0F6FF18C0F7FF4D
:100B60000800F5500009D8B403D01A681B681CD0DF
:100B70001C501324D96E1D501420DA6EDF50D8B4E7
:100B800013D01C501524176E1D501620186E17C058
:100B9000F6FF18C0F7FF0800F5500009D8A404D0EC
:100BA000000E1B6E010E1A6E1AC013F01BC014F05B
:100BB00012004A50D8B436D03AC013F03BC014F0FB
:100BC000CFC015F0D0C016F070EC0CF013C01CF0C4
:100BD00014C01DF01CC013F01DC014F03CC015F073
:100BE0003DC016F070EC0CF013C01EF014C01FF0E6
:100BF0001EC013F01FC014F0D1C015F0D2C016F003
:100C000070EC0CF0D89000019235D96E9335DA6E05
:100C1000600ED926000EDA2213C0DEFF14C0DDFFFD
:100C2000924B932B4B500001921940E14C50931979
:100C3000D8A41200000E216E000E206E000E236E4E
:100C4000000E226E0FD0D8902234D96E2334DA6E83
:100C5000600ED926000EDA22DECF20F0DDCF21F0A3
:100C6000224A232A4B50225C2350800A1B6E4C5090
:100C7000800A1B58D8A0E7D7000E0001936F000E22
:100C8000926F20C013F021C014F04BC015F04CC07F
:100C900016F08DEC09F013C08CF014C08DF000013B
:100CA000000E8DBFFF0E8E6F8F6F1200120022C0DC
:100CB00028F023C029F024C02AF025C02BF028C03A
:100CC00013F029C014F02AC015F02BC016F026C06E
:100CD00017F027C018F0000E18BEFF0E196E1A6E1E
:100CE000CFEC09F013C028F014C029F015C02AF089
:100CF00016C02BF0204A212A285029102A102B1028
:100D0000D8A4DDD720C0D9FF21C0DAFF000EDF6EE6
:100D10002006D8A0210622C013F023C014F024C05E
:100D200015F025C016F026C017F027C018F0000EE9
:100D300018BEFF0E196E1A6EB8EC0AF013502C6E26
:100D400022C013F023C014F024C015F025C016F003
:100D500026C017F027C018F0000E18BEFF0E196E3F
:100D60001A6ECFEC09F013C022F014C023F015C0A6
:100D700024F016C025F0090E2C6402D0070E2C2694
:100D8000300E2C2620C0D9FF21C0DAFF2CC0DFFF97
:100D90002006D8A021062250231024102510D8B4F4
:100DA0001200B9D71FC0D9FF20C0DAFFDF502C6E68
:100DB0001F4A202A200E2C18D8B4F4D7090E2C185C
:100DC000D8B4F0D7000E286E000E296E000E2A6EE1
:100DD000000E2B6E000E276E2D0E2C18D8A402D0FC
:100DE000272A27D02B0E2C18D8A42BD022D028C0ED
:100DF00013F029C014F02AC015F02BC016F00A0E0B
:100E0000176E000E186E000E196E000E1A6E41EC71
:100E10000BF02CC023F0D00E232623501324286E71
:100E2000000E1420296E000E15202A6E000E1620CA
:100E30002B6E1FC0D9FF20C0DAFFDF502C6E1F4A77
:100E4000202A2C50B4EC0CF0D8B0D1D72750D8B40D
:100E50001AD028C023F029C024F02AC025F02BC0C6
:100E600026F0231E241E251E261E232A000E2422C1
:100E70002522262223C01FF024C020F025C021F007
:100E800026C022F0120028C01FF029C020F02AC07E
:100E900021F02BC022F01200E8EC0CF0000E000153
:100EA000CC6F000ECB6FCCBF06D0CC5116E10A0E32
:100EB000CB5DD8B012D08A88000E146E0A0E136E65
:100EC00000EC0CF08A98000E146E0A0E136E00EC03
:100ED0000CF00001CB4BCC2BE6D7D0EC0CF0010E84
:100EE000F9EC08F0000E0001CA6F000EF9EC08F0F2
:100EF00083EC0CF083EC0AF0ADEC08F0D9EC05F0D3
:100F00000001CA51D8A4F1D78351821106E1E90E3C
:100F1000805D030E8159D8A0E8D7FEEC0CF0010EDD
:100F20000001CA6F000ECE6F000ECD6FCEBF06D08F
:100F3000CE51DBE10A0ECD5DD8B0D7D78A88000E3E
:100F4000146E030E136E00EC0CF08A98000E146EF3
:100F5000050E136E00EC0CF00001CD4BCE2BE6D746
:100F6000020E3E18D8A402D0000E3E6E190E136E6B
:100F7000000E146E49EC0CF0E806D8A44FD0210EF8
:100F80001918D8A415D03E04D8B412D0010E3E6E64
:100F900020EE29F01650D9261750DA22000EDF6E07
:100FA00020EE28F01650D9261750DA22000EDF6EF8
:100FB0003E04D8A42AD020EE28F01650D926175087
:100FC000DA22DF50186E1850010DF3501624D96E36
:100FD000F4501720DA6E19C0DFFF20EE28F016500B
:100FE000D9261750DA22DF2A20EE28F01650D9260B
:100FF0001750DA22270EDF6408D020EE28F01650B2
:10100000D9261750DA22270EDF6E3E04D8A406D068
:101010002A0E1918D8A402D0020E3E6E3E501200BD
:101020001FC013F020C014F0230E156E16EC0BF049
:101030001FC013F020C014F0230E156E16EC0BF039
:101040001FC013F020C014F0210E156E16EC0BF02B
:101050001FC017F020C018F021C019F022C01AF0EC
:1010600010EC0AF01FC013F020C014F03B0E156EF8
:1010700016EC0BF01FC017F020C018F023C019F0B9
:1010800024C01AF010EC0AF01FC013F020C014F0B6
:101090003B0E156E16EC0BF01FC017F020C018F0B9
:1010A00025C019F026C01AF010EC0AF01FC013F08A
:1010B00020C014F02A0E156E16EC0BF012006C9A7C
:1010C000060E316E300EE82EFED7312EFCD700D042
:1010D0006C8A6C9E000E426E20EE29F02F50D926AD
:1010E0003050DA22000EDF6E20EE28F02F50D92685
:1010F0003050DA22000EDF6E0001904B912B1AD097
:101100002FC027F030C028F05DEC0CF012002FC08B
:101110002DF030C02EF092EC0BF012002FC02DF00D
:1011200030C02EF0B7EC0BF0000E0001916F000EF6
:10113000906F120090C031F091C032F03250000A2E
:10114000D8A4F2D73150010AD8B4DAD7030AD8B4F8
:10115000DED7010AD8B4E2D7E7D74950D8A403D0E4
:101160004650D8B412004650D8A408D0AC0EC96E70
:10117000010E466E000E4A6E000E496E4650D8B4FF
:101180001200C7A01200C9CF13F09E96C69E000E93
:10119000466E4550D8A407D0000E3D6E000E3C6E42
:1011A000010E456E12004450D8A408D03C501310D4
:1011B0003C6E3D503D6E010E446E12004350D8A46B
:1011C00007D0000E3B6E000E3A6E010E436E120009
:1011D0004A50D8A412003A5013103A6E3B503B6E5E
:1011E000000E456E000E446E000E436E010E4A6EF8
:1011F0001200396E3904D8A40ED0DCEC0BF0000ECE
:101200000001BC6F000EBD6F940E2F6E000E306E8D
:101210005FEC08F01200330E166E010E176EB0EC84
:1012200007F0406E10D0330E346E010E356E940E02
:10123000366E000E376E19EC0CF0E806D8A40DD00F
:10124000010E416E0AD04050000AD8B406D0010AFF
:10125000D8B403D0030AD8B4E6D7940E156E000EA6
:10126000166E45EC09F0386E81A003D0000E3F6E7B
:1012700012003F50D8A406D0940E2F6E000E306E90
:101280005FEC08F0010E3F6E120020EE28F01550C2
:10129000D9261650DA2210EE29F01550E126165004
:1012A000E222DE50E618D8A406D0010E196E000E18
:1012B00095EC0CF030D0000E196E20EE29F0155090
:1012C000D9261650DA22DF50176E1750010DF35051
:1012D0001524D96EF4501620DA6EDF5095EC0CF020
:1012E000E806D8A418D020EE29F01550D9261650BB
:1012F000DA22DF2A20EE29F01550D9261650DA22FC
:10130000270EDF6408D020EE29F01550D92616509C
:10131000DA22000EDF6E19501200000E186E16AEA3
:1013200006D0156C161ED8B0162A010E186E14AE13
:1013300006D0136C141ED8B0142A010E181A000E11
:101340001A6E000E196E15501610D8B41CD0010E6E
:10135000176E04D0D89015361636172A16AEFAD75F
:10136000D89019361A361550135C16501458D8A058
:1013700005D01550135E1650145A1980D8901632A5
:101380001532172EEDD71850D8B404D0196C1A1E88
:10139000D8B01A2A19C013F01AC014F01200000EA7
:1013A0001B6E000E1C6E000E1D6E000E1E6E175082
:1013B000181019101A10D8B42AD0010E1F6E06D0BA
:1013C000D8901736183619361A361F2A1AAEF8D79B
:1013D000D8901B361C361D361E361750135C18501D
:1013E0001458195015581A501658D8A009D017502B
:1013F000135E1850145A1950155A1A50165A1B8059
:10140000D8901A321932183217321F2EE1D71BC06A
:1014100013F01CC014F01DC015F01EC016F0120011
:10142000000E1E6E000E1D6E1FD017C013F018C0E8
:1014300014F01D5019241B6E1E501A201C6E1BC068
:10144000F6FF1CC0F7FFF86A050EF76403D008002A
:10145000F55005D0F6CFE1FFF7CFE2FFE750156E6C
:1014600016EC0BF01D4A1E2A1D5019241B6E1E502F
:101470001A201C6E1BC0F6FF1CC0F7FFF86A050E91
:10148000F76403D00800F55005D0F6CFE1FFF7CFA1
:10149000E2FFE7500009D8B41200C7D70E0EF66E6F
:1014A0001A0EF76E000EF86E00EECFF010EE04F09C
:1014B0000900F5CFEEFFE550E150FAE1120EF66EAD
:1014C0001A0EF76E000EF86E0900F5CF4BF009000A
:1014D000F5CF4CF001EE33F02A0EEE6AE806FDE19E
:1014E00000EE60F05E0EEE6AE806FDE100EE3AF016
:1014F000110EEE6AE806FDE14D904D92000EF86E79
:1015000000014CEF07F080B230D04750D8A4120051
:10151000010E476E800E00017C27970E7D23060E7C
:101520007E23000E7F230ED0010E8827000E892314
:101530008A238B23A00E7C5F860E7D5B010E7E5B73
:10154000000E7F5B7F51F0E1A10E7C5D860E7D5920
:10155000010E7E59D8B0E8D7000E806F000E816F63
:10156000000E826F000E836F1200000E476E120095
:101570001750181019101A10D8B424D0010E1B6E71
:1015800006D0D8901736183619361A361B2A1AAED6
:10159000F8D71750135C18501458195015581A5092
:1015A0001658D8A008D01750135E1850145A195066
:1015B000155A1A50165AD8901A3219321832173250
:1015C0001B2EE7D713C013F014C014F015C015F08C
:1015D00016C016F012001FC013F020C014F0230E26
:1015E000156E16EC0BF01FC013F020C014F0230E84
:1015F000156E16EC0BF01FC013F020C014F0210E76
:10160000156E16EC0BF01FC017F020C018F021C0AB
:1016100019F022C01AF010EC0AF01FC013F020C01D
:1016200014F02A0E156E16EC0BF0120020EE28F0C6
:101630001350D9261450DA22DF50166E1650010DC1
:10164000F3501324D96EF4501420DA6E15C0DFFF66
:1016500020EE28F01350D9261450DA22DF2A20EE8B
:1016600028F01350D9261450DA22270EDF64120016
:1016700020EE28F01350D9261450DA22000EDF6E27
:101680001200000E1B6E000E1C6E000E1D6E000E72
:101690001E6E13A008D017501B2618501C2219507C
:1016A0001D221A501E22D8901736183619361A36AF
:1016B000D8901632153214321332135014101510FC
:1016C0001610D8A4E6D71BC013F01CC014F01DC020
:1016D00015F01EC016F01200000EF26E000EF16E34
:1016E000000EF06ED09E000E9E6E000EA16E000EDB
:1016F000A46E000E7B6E000E7E6E000E9D6E000EC0
:10170000A06E000EA36E000E7A6E000E7D6E000EAF
:101710009F6E000EA26E000EA56E000E7C6E000E77
:101720007F6E1200BE0E206E000E216E8CC022F065
:101730008DC023F08EC024F08FC025F0000E276EE0
:101740000A0E266E57EC06F02DC01FF02EC020F0BA
:10175000570E216E060E226E240E236E060E246E88
:10176000BE0E256E000E266E10EC08F01200BE0EA6
:10177000206E000E216E88C022F089C023F08AC03E
:1017800024F08BC025F0000E276E0A0E266E57EC53
:1017900006F02DC01FF02EC020F0570E216E060E51
:1017A000226E170E236E060E246EBE0E256E000EE0
:1017B000266E10EC08F01200929092829496949A01
:1017C000949C949E0F0138938B8C8B868B8A8B8E86
:1017D0006C9A399139933995399793809382938490
:1017E00093966D9E6D8C6C9E6C9C6C9A6C886C5004
:1017F000F00B04096C6E000E696E69986C8A120019
:10180000000E176E000E166E09D0340E156EF20E15
:10181000E82EFED7152EFCD7164A172A1350165C51
:101820001750800A156E1450800A1558D8B012004F
:10183000ECD7000E196E010E1A6E34C01BF035C0C5
:101840001CF083EC04F0000E2F6E010E306E36C0DB
:1018500031F037C032F030EC03F00101326F325119
:1018600012001EC013F01FC014F020C015F021C0DC
:1018700016F043EC05F013C022F014C023F0225000
:101880002310D8A402D0010E01D0000E246E2450E3
:101890001200000E156E6DA00CD013C0D9FF14C03D
:1018A000DAFF6FCFDFFF010E156E6C9E000E426EE9
:1018B00002D0000E156E1550120027C01FF028C070
:1018C00020F0570E216E060E226E0D0E236E060EB0
:1018D000246E4B0E256E060E266E10EC08F01200DC
:1018E00013501502F3CF17F0F4CF18F0135016026F
:1018F000F350182614501502F350182617C013F091
:1019000018C014F0120082B40CD089804850D8A4BA
:101910001200010E486E81A802D08A9812008A88AF
:1019200012008990000E486E1200136E000E146EA5
:101930004250D8A406D013C06FFF010E426E010EB4
:1019400001D0000E146E14501200C290000E0F0150
:10195000386F000E396F000E3A6F93988A9894840E
:101960009282929089901200156E000E146E3A0EBB
:10197000156005D02F0E156402D0010E146E14C030
:1019800013F013301200C68AC688C690C692C69459
:10199000C696C78EC79C949A949E9496948812007B
:1019A000D59ED59CD59AD596D550F80B0109D56E04
:1019B000F28AF28ED58E1200D39ED388D38AD38C2E
:1019C000030ED312D298D296D2949B8E9B9C120077
:1019D000DCEC0CF0A5EC0CF06CEC0BF0C3EC0CF0B8
:1019E000FEEC0CF0120023C01FF024C020F04F0EBC
:1019F000216E060E226EEBEC0AF01200949C8B9C7A
:101A000000D000D08B8C8B9EAC0EC96E12000100F2
:041A100001000E00C3
:020000040020DA
:08000000FFFFFFFFFFFFFFFF00
:020000040030CA
:0E000000FF081F3CFFBF81FF0FC00FE00F4045
:00000001FF
