:0400000060EF00F0BD
:100008004D82FACF01F0FBCF02F0E9CF03F0EACF3F
:1000180004F0E1CF05F0E2CF06F0D9CF07F0DACF50
:1000280008F0F3CF09F0F4CF0AF0F6CF0BF0F7CFD2
:100038000CF0F8CF0DF0F5CF0EF04DC00FF04EC01C
:1000480010F04FC011F050C012F0F294FC0ED76EB1
:10005800180ED66E010E4826000E49224A224B225F
:10006800010E3A26000E3B223C223D2212C050F0DF
:1000780011C04FF010C04EF00FC04DF00EC0F5FF8C
:100088000DC0F8FF0CC0F7FF0BC0F6FF0AC0F4FF65
:1000980009C0F3FF08C0DAFF07C0D9FF06C0E2FFB6
:1000A80005C0E1FF04C0EAFF03C0E9FF02C0FBFF8F
:0C00B80001C0FAFF4D9211003DEF0AF06C
:100600000043616C6962726174696F6E0050535689
:10061000657273696F6E00456E5573656400436162
:100620006C696200566F6C74730057617474730068
:100630004C454442005265616400436F6E66004160
:100640006D7073003232320033333300343434008F
:09065000454E440053657400009E
:10065A00000E396E6CC01EF06DC01FF0500E206E79
:10066A00060E216E87EC0BF0E806D8A403D0010E23
:10067A00396EE8D06CC01EF06DC01FF0540E206EAB
:10068A00060E216E87EC0BF0E806D8A438D00A0EC5
:10069A0000016C251E6E000E6D211F6E1E0E206E4F
:1006AA00060E216E87EC0BF0E806D8B4CBD00A0E02
:1006BA0000016C251E6E000E6D211F6E170E206E36
:1006CA00060E216E87EC0BF0E806D8A4BBD0140EF8
:1006DA0000016C251F6E000E6D21206E80EC06F065
:1006EA001FC0B1F020C0B2F021C0B3F022C0B4F0F4
:1006FA006EC037F06FC038F03EEC0BF0A3D06CC080
:10070A001EF06DC01FF0350E206E060E216E87ECAE
:10071A000BF0E806D8B496D06CC01EF06DC01FF07E
:10072A003A0E206E060E216E87EC0BF0E806D8A46E
:10073A0089D00A0E00016C251E6E000E6D211F6EF7
:10074A00300E206E060E216E87EC0BF0E806D8A458
:10075A0007D06EC023F06FC024F067EC0CF072D0A3
:10076A000A0E00016C251E6E000E6D211F6E2A0EE8
:10077A00206E060E216E87EC0BF0E806D8A407D08F
:10078A006EC023F06FC024F067EC0CF05BD00A0E49
:10079A0000016C251E6E000E6D211F6E170E206E55
:1007AA00060E216E87EC0BF0E806D8A407D06EC0BF
:1007BA0023F06FC024F067EC0CF044D00A0E00015D
:1007CA006C251E6E000E6D211F6E240E206E060E05
:1007DA00216E87EC0BF0E806D8A407D06EC023F090
:1007EA006FC024F067EC0CF02DD00A0E00016C25C6
:1007FA001E6E000E6D211F6E3F0E206E060E216EBC
:10080A0087EC0BF0E806D8A407D06EC023F06FC0BF
:10081A0024F067EC0CF016D00A0E00016C251E6E4F
:10082A00000E6D211F6E0D0E206E060E216E87ECD6
:10083A000BF0E806D8A406D06EC023F06FC024F0EF
:10084A0067EC0CF039501200000E236E000E226E77
:10085A00000E216E000E206E21BE08D0215005E147
:10086A00050E205CD8B082D001D080D020C013F011
:10087A0021C014F0000E166E0A0E156EFBEC0BF07A
:10088A0013501924D96E14501A20DA6E000EDF6E36
:10089A00204A212A21BEEAD7215068E1E1D7000E79
:1008AA00236E222A040E22645AD0040E226E57D0D6
:1008BA0020EE29F01B50D9261C50DA22DF501D6E7B
:1008CA001D50010DF3501B24D96EF4501C20DA6E12
:1008DA0022500A0D19C01EF01AC01FF0F3501E262E
:1008EA00F4501F222350010DF3501E24E16EF450E0
:1008FA001F20E26EDFCFE7FF232A090E236402D00E
:10090A00090E236E22500A0D19C01DF01AC01EF0DE
:10091A00F3501D26F4501E222350010DF3501D24BE
:10092A00D96EF4501E20DA6E000EDF6E18D020EE5B
:10093A0029F01B50D9261C50DA22DF501D6E1D509B
:10094A00010DF3501B24D96EF4501C20DA6EDF50CF
:10095A00210AD8B404D01A0AD8B4A1D7A9D720EE4C
:10096A0029F01B50D9261C50DA22DF2A20EE29F062
:10097A001B50D9261C50DA22DF501D6E1D50010D66
:10098A00F3501B24D96EF4501C20DA6E2A0EDE189E
:10099A00D8B4120020EE29F01B50D9261C50DA22B6
:1009AA00280EDF60120020EE28F01B50D9261C50BA
:1009BA00DA2210EE29F01B50E1261C50E222DE500A
:1009CA00E618D8B41200B3D7000E1D6E000E1C6EC6
:1009DA00000E1B6E000E1A6E35D01C501324D96EF1
:1009EA001D501420DA6E1C501524186E1D50162046
:1009FA00196E18C0F6FF19C0F7FFDE500900F55C42
:100A0A00D8B005D0000E1B6E010E1A6E19D01C50FC
:100A1A001324D96E1D501420DA6EDF50176E1C5045
:100A2A001524186E1D501620196E18C0F6FF19C02D
:100A3A00F7FF0800F550175CD8B002D01A681B6897
:100A4A001C4A1D2A1C501324D96E1D501420DA6E1C
:100A5A00DF50D8B413D01C501524176E1D50162021
:100A6A00186E17C0F6FF18C0F7FF0800F550000906
:100A7A00D8B404D01A501B10D8B4AFD71C501324C2
:100A8A00D96E1D501420DA6EDF50D8A412D01C5033
:100A9A001524176E1D501620186E17C0F6FF18C0C1
:100AAA00F7FF0800F5500009D8B403D01A681B688C
:100ABA001CD01C501324D96E1D501420DA6EDF503E
:100ACA00D8B413D01C501524176E1D501620186E5A
:100ADA0017C0F6FF18C0F7FF0800F5500009D8A4A0
:100AEA0004D0000E1B6E010E1A6E1AC013F01BC042
:100AFA0014F012004BBE14D04B504A1006E1E80E17
:100B0A00485C030E4958D8A00BD00001BD4BBE2B40
:100B1A00000E486E000E496E000E4A6E000E4B6EB5
:100B2A000001BEBF06D0BE5114E1050EBD5DD8B0AE
:100B3A0010D0000EB16F000EB26F000EB36F000E30
:100B4A00B46F000EB56F000EB66F000EB76F000ED1
:100B5A00B86FBDC013F0BEC014F0000E166E0A0EB8
:100B6A00156ED2EC09F013501410D8A41AD04650BE
:100B7A00D8A41200010E466E81B802D08A8801D02C
:100B8A008A98010E0001B127000EB223B323B423C1
:100B9A00B1C0B5F0B2C0B6F0B3C0B7F0B4C0B8F0E7
:100BAA001200000E466E1200010EB127000EB2238B
:100BBA00B323B423600EAD27790EAE23FE0EAF2306
:100BCA00FF0EB023B0BF0AD0B051EEE1A10EAD5D69
:100BDA00860EAE59010EAF59D8B0E6D74D0E0001B8
:100BEA00B56F000EB66F000EB76F000EB86F610ECC
:100BFA00B16F040EB26F000EB36F000EB46F120025
:100C0A0022C028F023C029F024C02AF025C02BF0E6
:100C1A0028C013F029C014F02AC015F02BC016F012
:100C2A0026C017F027C018F0000E18BEFF0E196E66
:100C3A001A6E53EC09F013C028F014C029F015C03D
:100C4A002AF016C02BF0204A212A285029102A10EF
:100C5A002B10D8A4DDD720C0D9FF21C0DAFF000E9F
:100C6A00DF6E2006D8A0210622C013F023C014F09C
:100C7A0024C015F025C016F026C017F027C018F0BA
:100C8A00000E18BEFF0E196E1A6E0AEC0AF0135007
:100C9A002C6E22C013F023C014F024C015F025C016
:100CAA0016F026C017F027C018F0000E18BEFF0E67
:100CBA00196E1A6E53EC09F013C022F014C023F017
:100CCA0015C024F016C025F0090E2C6402D0070EB8
:100CDA002C26300E2C2620C0D9FF21C0DAFF2CC0CA
:100CEA00DFFF2006D8A02106225023102410251049
:100CFA00D8B41200B9D71FC0D9FF20C0DAFFDF501D
:100D0A002C6E1F4A202A200E2C18D8B4F4D7090EAC
:100D1A002C18D8B4F0D7000E286E000E296E000EDB
:100D2A002A6E000E2B6E000E276E2D0E2C18D8A4DC
:100D3A0002D0272A27D02B0E2C18D8A42BD022D0A9
:100D4A0028C013F029C014F02AC015F02BC016F0E1
:100D5A000A0E176E000E186E000E196E000E1A6E2D
:100D6A00C5EC0AF02CC023F0D00E232623501324FE
:100D7A00286E000E1420296E000E15202A6E000E11
:100D8A0016202B6E1FC0D9FF20C0DAFFDF502C6E51
:100D9A001F4A202A2C5040EC0CF0D8B0D1D727504B
:100DAA00D8B41AD028C023F029C024F02AC025F0CC
:100DBA002BC026F0231E241E251E261E232A000EC3
:100DCA0024222522262223C01FF024C020F025C079
:100DDA0021F026C022F0120028C01FF029C020F0FE
:100DEA002AC021F02BC022F01200000E286E26AE77
:100DFA000AD0261E251E241E236C000E242225221C
:100E0A002622010E286E22AE0AD0221E211E201E84
:100E1A001F6C000E202221222222010E281A000E07
:100E2A00296E000E2A6E000E2B6E000E2C6E2350B9
:100E3A00241025102610D8B42AD0010E276E06D009
:100E4A00D8902336243625362636272A26AEF8D7D2
:100E5A00D89029362A362B362C3623501F5C24503C
:100E6A0020582550215826502258D8A009D023505E
:100E7A001F5E2450205A2550215A2650225A298072
:100E8A00D8902632253224322332272EE1D7285011
:100E9A00D8B408D02C1E2B1E2A1E296C000E2A221A
:100EAA002B222C2229C01FF02AC020F02BC021F0AF
:100EBA002CC022F01200020E3E18D8A402D0000E56
:100ECA003E6E190E136E000E146ED4EC0BF0E8068B
:100EDA00D8A44FD0210E1918D8A415D03E04D8B4DE
:100EEA0012D0010E3E6E20EE29F01650D926175068
:100EFA00DA22000EDF6E20EE28F01650D92617509F
:100F0A00DA22000EDF6E3E04D8A42AD020EE28F0A2
:100F1A001650D9261750DA22DF50186E1850010DD4
:100F2A00F3501624D96EF4501720DA6E19C0DFFF79
:100F3A0020EE28F01650D9261750DA22DF2A20EEA2
:100F4A0028F01650D9261750DA22270EDF6408D067
:100F5A0020EE28F01650D9261750DA22270EDF6E17
:100F6A003E04D8A406D02A0E1918D8A402D0020E1C
:100F7A003E6E3E501200000E0F01386F000E396FA0
:100F8A00000E3A6F79EC0CF0000E0001AC6F000E07
:100F9A00AB6FACBF03D0AC512AE125D08A888B82D3
:100FAA008B80030E0001AA6F080EA96F770EE82E38
:100FBA00FED7A92FFCD7AA2FFAD78A988B928B90A3
:100FCA00030E0001AA6F080EA96F770EE82EFED74E
:100FDA00A92FFCD7AA2FFAD70001AB4BAC2BACBF79
:100FEA00DDD7AC5104E1030EAB5DD8A0D7D78A9800
:100FFA008B928B90949E94989496949C8B8C8B8EC7
:10100A008B888B96000E146E050E136EA2EC0BF0F5
:10101A009284010E1BEC08F04FEC0CF00EEC0CF075
:10102A00000E1BEC08F07FEC05F0F8D70001A86F62
:10103A000001A805D8A40ED063EC0BF0000E000145
:10104A00E96F000EEA6FC10E6C6F000E6D6F6DECEA
:10105A0008F01200000E166E010E176E60EC07F013
:10106A003F6E12D0000E0001706F010E716FC10E3B
:10107A00726F000E736FBBEC0BF0E806D8A40ED0AB
:10108A00010E0001C06F0AD03F50000AD8B406D042
:10109A00010AD8B403D0030AD8B4E4D7C10E156E36
:1010AA00000E166E0BEC09F00001A76F81A003D0A9
:1010BA00000EBF6F1200BF51D8A406D0C10E6C6FCC
:1010CA00000E6D6F6DEC08F0010E0001BF6F12008B
:1010DA006C9A060E00016E6F300EE82EFED76E2F48
:1010EA00FCD700F06C8A6C9E000E406E000120EE68
:1010FA0029F06C51D9266D51DA22000EDF6E20EEEE
:10110A0028F06C51D9266D51DA22000EDF6EBB4BE6
:10111A00BC2B1AD06CC027F06DC028F0E8EC0BF09D
:10112A0012006CC037F06DC038F019EC0BF01200E9
:10113A006CC037F06DC038F03EEC0BF0000E0001C9
:10114A00BC6F000EBB6F1200BBC06EF0BCC06FF06C
:10115A006F51000AD8A4F2D76E51010AD8B4DAD76F
:10116A00030AD8B4DED7010AD8B4E2D7E7D71FC03A
:10117A0013F020C014F0230E156E9AEC0AF01FC06B
:10118A0013F020C014F0230E156E9AEC0AF01FC05B
:10119A0013F020C014F0210E156E9AEC0AF01FC04D
:1011AA0017F020C018F021C019F022C01AF094ECF0
:1011BA0009F01FC013F020C014F03B0E156E9AEC14
:1011CA000AF01FC017F020C018F023C019F024C07D
:1011DA001AF094EC09F01FC013F020C014F03B0E73
:1011EA00156E9AEC0AF01FC017F020C018F025C03F
:1011FA0019F026C01AF094EC09F01FC013F020C0B1
:10120A0014F02A0E156E9AEC0AF0120020EE28F05D
:10121A001550D9261650DA2210EE29F01550E1267B
:10122A001650E222DE50E618D8A406D0010E196E36
:10123A00000E30EC0CF030D0000E196E20EE29F0C2
:10124A001550D9261650DA22DF50176E1750010DA5
:10125A00F3501524D96EF4501620DA6EDF5030ECB4
:10126A000CF0E806D8A418D020EE29F01550D9269B
:10127A001650DA22DF2A20EE29F01550D926165008
:10128A00DA22270EDF6408D020EE29F01550D9267D
:10129A001650DA22000EDF6E19501200000E1B6E75
:1012AA00000E1C6E000E1D6E000E1E6E17501810DA
:1012BA0019101A10D8B42AD0010E1F6E06D0D89071
:1012CA001736183619361A361F2A1AAEF8D7D89092
:1012DA001B361C361D361E361750135C1850145810
:1012EA00195015581A501658D8A009D01750135E1D
:1012FA001850145A1950155A1A50165A1B80D89059
:10130A001A321932183217321F2EE1D71BC013F0C6
:10131A001CC014F01DC015F01EC016F01200000EFD
:10132A001E6E000E1D6E1FD017C013F018C014F0E9
:10133A001D5019241B6E1E501A201C6E1BC0F6FF6E
:10134A001CC0F7FFF86A050EF76403D00800F550D1
:10135A0005D0F6CFE1FFF7CFE2FFE750156E9AEC22
:10136A000AF01D4A1E2A1D5019241B6E1E501A20EF
:10137A001C6E1BC0F6FF1CC0F7FFF86A050EF76467
:10138A0003D00800F55005D0F6CFE1FFF7CFE2FF12
:10139A00E7500009D8B41200C7D7000E186E14AE71
:1013AA0006D0136C141ED8B0142A010E186E16AE8D
:1013BA0004D0156C161ED8B0162A15501610D8B4BB
:1013CA0018D0010E176E04D0D89015361636172A83
:1013DA0016AEFAD71550135C16501458D8A004D07C
:1013EA001550135E1650145AD89016321532172E0D
:1013FA00F1D71850D8B404D0136C141ED8B0142ADC
:10140A0013C013F014C014F012001750181019105A
:10141A001A10D8B424D0010E1B6E06D0D8901736F5
:10142A00183619361A361B2A1AAEF8D71750135C13
:10143A0018501458195015581A501658D8A008D0D0
:10144A001750135E1850145A1950155A1A50165A32
:10145A00D8901A321932183217321B2EE7D713C016
:10146A0013F014C014F015C015F016C016F01200CF
:10147A00E40EF66E180EF76E000EF86E00EEEBF044
:10148A0010EE0EF00900F5CFEEFFE550E150FAE15B
:10149A00FC0EF66E180EF76E000EF86E0900F5CF08
:1014AA004CF001EE00F02A0EEE6AE806FDE100EECD
:1014BA00ADF03E0EEE6AE806FDE100EE3AF0120EDD
:1014CA00EE6AE806FDE14D904D92000EF86E0001BD
:1014DA00C0EF07F01FC013F020C014F0230E156EE2
:1014EA009AEC0AF01FC013F020C014F0230E156EF8
:1014FA009AEC0AF01FC013F020C014F0210E156EEA
:10150A009AEC0AF01FC017F020C018F021C019F099
:10151A0022C01AF094EC09F01FC013F020C014F096
:10152A002A0E156E9AEC0AF0120020EE28F01350DB
:10153A00D9261450DA22DF50166E1650010DF350D8
:10154A001324D96EF4501420DA6E15C0DFFF20EE92
:10155A0028F01350D9261450DA22DF2A20EE28F078
:10156A001350D9261450DA22270EDF64120020EE17
:10157A0028F01350D9261450DA22000EDF6E12001A
:10158A00000E1B6E000E1C6E000E1D6E000E1E6EEF
:10159A0013A008D017501B2618501C2219501D22C0
:1015AA001A501E22D8901736183619361A36D8907D
:1015BA001632153214321332135014101510161035
:1015CA00D8A4E6D71BC013F01CC014F01DC015F038
:1015DA001EC016F012002DC035F02EC036F032AE05
:1015EA0010D02DC0D9FF2EC0DAFF2D0EDF6E2D4A86
:1015FA002E2A321E311E301E2F6C000E302231224E
:10160A0032222DC020F02EC021F02FC022F030C08F
:10161A0023F031C024F032C025F033C026F034C0A4
:10162A0027F005EC06F01200600E2D6E000E2E6EED
:10163A00B5C02FF0B6C030F0B7C031F0B8C032F044
:10164A00000E346E0A0E336EF0EC0AF037C01FF04B
:10165A0038C020F0540E216E060E226E2A0E236E1A
:10166A00060E246E600E256E000E266EBCEC08F087
:10167A001200600E2D6E000E2E6EB1C02FF0B2C099
:10168A0030F0B3C031F0B4C032F0000E346E0A0E3E
:10169A00336EF0EC0AF037C01FF038C020F0540E59
:1016AA00216E060E226E170E236E060E246E600E33
:1016BA00256E000E266EBCEC08F012009290928203
:1016CA009496949A949C949E0F0138938B8C8B8653
:1016DA008B8A8B8E6C9A3991399339953997938085
:1016EA009382938493966D9E6D8C6C9E6C9C6C9A7F
:1016FA006C886C50F00B04096C6E000E696E699868
:10170A006C8A12000001B94BBA2B1EC013F01FC01D
:10171A0014F020C015F021C016F0E9EC04F013C053
:10172A0022F014C023F022502310D8A402D0010EB4
:10173A0001D0000E246E24501200000E176E000E07
:10174A00166E09D0340E156EF20EE82EFED7152E3F
:10175A00FCD7164A172A1350165C1750800A156EC2
:10176A001450800A1558D8B01200ECD7740E196EAE
:10177A00000E1A6E70C01BF071C01CF029EC04F048
:10178A00740E00016C6F000E6D6F72C06EF073C044
:10179A006FF02DEC03F00001A66FA6511200000EA7
:1017AA00156E6DA00CD013C0D9FF14C0DAFF6FCF2D
:1017BA00DFFF010E156E6C9E000E406E02D0000E09
:1017CA00156E1550120027C01FF028C020F0540EC5
:1017DA00216E060E226E0D0E236E060E246E4C0E20
:1017EA00256E060E266EBCEC08F012001350150288
:1017FA00F3CF17F0F4CF18F013501602F35018264F
:10180A0014501502F350182617C013F018C014F01C
:10181A00120080B406D04750D8A405D08150010EDA
:10182A0001D0000E476E4750D8B402D08B921200F6
:10183A008B821200C290000E0F01386F000E396FB2
:10184A00000E3A6F9398949094928A988B908B9208
:10185A00928692841200136E000E146E4050D8A421
:10186A0006D013C06FFF010E406E010E01D0000EAC
:10187A00146E14501200156E000E146E3A0E156096
:10188A0005D02F0E156402D0010E146E14C013F089
:10189A0013301200D59ED59CD59AD596D550F80B03
:1018AA000109D56EF28AF28ED58E1200D39ED388A4
:1018BA00D38AD38C030ED312D298D296D2949B8E0B
:1018CA009B9C120023C01FF024C020F0500E216EF2
:1018DA00060E226E6FEC0AF01200FFFFFF7F010076
:1018EA0008000000FFFFFF7F5BEC0CF01FEC0CF020
:0318FA00120001D8
:020000040020DA
:08000000FFFFFFFFFFFFFFFF00
:020000040030CA
:0E000000FF081F3CFFBF81FF0FC00FE00F4045
:00000001FF
