:0400000060EF00F0BD
:100008004D82FACF01F0FBCF02F0E9CF03F0EACF3F
:1000180004F0E1CF05F0E2CF06F0D9CF07F0DACF50
:1000280008F0F3CF09F0F4CF0AF0F6CF0BF0F7CFD2
:100038000CF0F8CF0DF0F5CF0EF04DC00FF04EC01C
:1000480010F04FC011F050C012F0F294FC0ED76EB1
:10005800180ED66E010E4426000E4522462247226F
:10006800010E3626000E37223822392212C050F0EF
:1000780011C04FF010C04EF00FC04DF00EC0F5FF8C
:100088000DC0F8FF0CC0F7FF0BC0F6FF0AC0F4FF65
:1000980009C0F3FF08C0DAFF07C0D9FF06C0E2FFB6
:1000A80005C0E1FF04C0EAFF03C0E9FF02C0FBFF8F
:0C00B80001C0FAFF4D92110068EF0AF041
:100600000043616C6962726174696F6E0050535689
:10061000657273696F6E00456E5573656400566F41
:100620006C7473005761747473004C454442004409
:10063000617461005265616400436F6E6600416DD4
:1006400070730032323200333333003434340045B7
:0F0650004E44004F666600536574004F6E000005
:10066000000E336E2FC01EF030C01FF04F0E206EF4
:10067000060E216E19EC0CF0E806D8A403D0010E8A
:10068000336E3FD12FC01EF030C01FF0570E206ECA
:10069000060E216E19EC0CF0E806D8A435D00A0E2F
:1006A0002F241E6E000E30201F6E010E206E060ECF
:1006B000216E19EC0CF0E806D8B423D10A0E2F24D1
:1006C0001E6E000E30201F6E170E206E060E216E5D
:1006D00019EC0CF0E806D8A414D1140E2F241F6EC8
:1006E000000E3020206E82EC07F01FC0B0F020C05A
:1006F000B1F021C0B2F022C0B3F031C02DF032C051
:100700002EF09FEC0BF0FDD02FC01EF030C01FF07C
:10071000340E206E060E216E19EC0CF0E806D8B4EB
:10072000F0D02FC01EF030C01FF02F0E206E060E2E
:10073000216E19EC0CF0E806D8A453D00A0E2F2431
:100740001E6E000E30201F6E2A0E206E060E216EC9
:1007500019EC0CF0E806D8A4D4D0140E2F241E6E89
:10076000000E30201F6E5B0E206E060E216E19ECFF
:100770000CF0E806D8A413D031C01FF032C020F02E
:10078000570E216E060E226E2A0E236E060E246E62
:10079000530E256E060E266EB7EC08F0B2D0140E7E
:1007A0002F241E6E000E30201F6E530E206E060E7C
:1007B000216E19EC0CF0E806D8A4A3D031C01FF0CC
:1007C00032C020F0570E216E060E226E2A0E236EC6
:1007D000060E246E5B0E256E060E266EB7EC08F034
:1007E00090D02FC01EF030C01FF0390E206E060EC4
:1007F000216E19EC0CF0E806D8A483D00A0E2F2441
:100800001E6E000E30201F6E2A0E206E060E216E08
:1008100019EC0CF0E806D8A407D031C023F032C0A0
:1008200024F0A2EC0CF06DD00A0E2F241E6E000EE8
:1008300030201F6E240E206E060E216E19EC0CF077
:10084000E806D8A407D031C023F032C024F0A2ECCF
:100850000CF057D00A0E2F241E6E000E30201F6E93
:10086000170E206E060E216E19EC0CF0E806D8A4C7
:1008700007D031C023F032C024F0A2EC0CF041D0FC
:100880000A0E2F241E6E000E30201F6E1E0E206ECC
:10089000060E216E19EC0CF0E806D8A407D031C082
:1008A00023F032C024F0A2EC0CF02BD00A0E2F243F
:1008B0001E6E000E30201F6E3E0E206E060E216E44
:1008C00019EC0CF0E806D8A407D031C023F032C0F0
:1008D00024F0A2EC0CF015D00A0E2F241E6E000E90
:1008E00030201F6E0D0E206E060E216E19EC0CF0DE
:1008F000E806D8A406D031C023F032C024F0A2EC20
:100900000CF0335012004B04D8A409D0000E0001A3
:10091000B46F000EB56F000EB66F000EB76F80B6E5
:1009200043D04050D8A442D0010E406E000E4B6E12
:1009300044C0E4F045C0E5F046C0E6F047C0E7F04B
:10094000000E446E000E456E000E466E000E476EA1
:100950006C0E136E3B0E146E010E156E000E166EAD
:10096000E4C017F0E5C018F0E6C019F0E7C01AF0CF
:10097000E9EC09F013C0A8F014C0A9F015C0AAF062
:1009800016C0ABF0000E496E010E486E0001AB516F
:10099000AA11A91104E1330EA85DD8A002D0010E5E
:1009A00001D0000E4C6E02D0000E406E80B454D0C8
:1009B0003F50D8A453D0010E3F6E000E4A6E36C091
:1009C000E8F037C0E9F038C0EAF039C0EBF0000ECB
:1009D000366E000E376E000E386E000E396EC00E89
:1009E000136EB60E146E130E156E000E166EE8C062
:1009F00017F0E9C018F0EAC019F0EBC01AF0E9EC02
:100A000009F013C0A4F014C0A5F015C0A6F016C0DC
:100A1000A7F0300E0001AC278C0EAD23000EAE23E4
:100A2000000EAF230ED0010EB027000EB123B2236B
:100A3000B323A00EAC5F860EAD5B010EAE5B000E65
:100A4000AF5BAF51F0E1A10EAC5D860EAD59010E6A
:100A5000AE59D8A003D0E7D7000E3F6E4C50D8B4A3
:100A600009D0A4C0B4F0A5C0B5F0A6C0B6F0A7C028
:100A7000B7F008D0A8C0B4F0A9C0B5F0AAC0B6F0CD
:100A8000ABC0B7F04B50D8A452D044500001E45D45
:100A90004550E5594650E6594750E759D8B047D038
:100AA00048C013F049C014F0156A166AE80E176EB4
:100AB000030E186E000E196E000E1A6E2AEC0BF063
:100AC0004450135C4550145846501558475016581A
:100AD000D8B01200495021E15A0E485CD8B01DD060
:100AE000484A492A6C0E136E3B0E146E010E156EA9
:100AF000000E166E44C017F045C018F046C019F03D
:100B000047C01AF0E9EC09F013C0B4F014C0B5F016
:100B100015C0B6F016C0B7F01200000E0001B46F99
:100B2000000EB56F000EB66F000EB76F1200395091
:100B300008E1400E365C0D0E3758030E3858D8A029
:100B400002D08B8212003950381006E1500E365C0C
:100B5000C30E3758D8A002D08B801200000E3F6E13
:100B60001200000E236E000E226E000E216E000E8B
:100B7000206E21BE08D0215005E1050E205CD8B0C2
:100B800082D001D080D020C013F021C014F0000E1C
:100B9000166E0A0E156E58EC0CF013501924D96E0F
:100BA00014501A20DA6E000EDF6E204A212A21BE70
:100BB000EAD7215068E1E1D7000E236E222A040E05
:100BC00022645AD0040E226E57D020EE29F01B501A
:100BD000D9261C50DA22DF501D6E1D50010DF35036
:100BE0001B24D96EF4501C20DA6E22500A0D19C055
:100BF0001EF01AC01FF0F3501E26F4501F2223507F
:100C0000010DF3501E24E16EF4501F20E26EDFCF81
:100C1000E7FF232A090E236402D0090E236E225017
:100C20000A0D19C01DF01AC01EF0F3501D26F45015
:100C30001E222350010DF3501D24D96EF4501E20A6
:100C4000DA6E000EDF6E18D020EE29F01B50D92688
:100C50001C50DA22DF501D6E1D50010DF3501B2475
:100C6000D96EF4501C20DA6EDF50210AD8B404D0BB
:100C70001A0AD8B4A1D7A9D720EE29F01B50D9263B
:100C80001C50DA22DF2A20EE29F01B50D9261C50F6
:100C9000DA22DF501D6E1D50010DF3501B24D96E5A
:100CA000F4501C20DA6E2A0EDE18D8B4120020EEA2
:100CB00029F01B50D9261C50DA22280EDF601200C2
:100CC00020EE28F01B50D9261C50DA2210EE29F015
:100CD0001B50E1261C50E222DE50E618D8B4120068
:100CE000B3D7000E1D6E000E1C6E000E1B6E000EA4
:100CF0001A6E35D01C501324D96E1D501420DA6E94
:100D00001C501524186E1D501620196E18C0F6FFC1
:100D100019C0F7FFDE500900F55CD8B005D0000E11
:100D20001B6E010E1A6E19D01C501324D96E1D5063
:100D30001420DA6EDF50176E1C501524186E1D50EB
:100D40001620196E18C0F6FF19C0F7FF0800F550FD
:100D5000175CD8B002D01A681B681C4A1D2A1C50A8
:100D60001324D96E1D501420DA6EDF50D8B413D07E
:100D70001C501524176E1D501620186E17C0F6FF54
:100D800018C0F7FF0800F5500009D8B404D01A5075
:100D90001B10D8B4AFD71C501324D96E1D5014208B
:100DA000DA6EDF50D8A412D01C501524176E1D50D7
:100DB0001620186E17C0F6FF18C0F7FF0800F55090
:100DC0000009D8B403D01A681B681CD01C50132427
:100DD000D96E1D501420DA6EDF50D8B413D01C50D9
:100DE0001524176E1D501620186E17C0F6FF18C078
:100DF000F7FF0800F5500009D8A404D0000E1B6EC0
:100E0000010E1A6E1AC013F01BC014F0120022C09B
:100E100028F023C029F024C02AF025C02BF028C0D8
:100E200013F029C014F02AC015F02BC016F026C00C
:100E300017F027C018F0000E18BEFF0E196E1A6EBC
:100E4000E9EC09F013C028F014C029F015C02AF00D
:100E500016C02BF0204A212A285029102A102B10C6
:100E6000D8A4DDD720C0D9FF21C0DAFF000EDF6E85
:100E70002006D8A0210622C013F023C014F024C0FD
:100E800015F025C016F026C017F027C018F0000E88
:100E900018BEFF0E196E1A6EA1EC0AF013502C6EDC
:100EA00022C013F023C014F024C015F025C016F0A2
:100EB00026C017F027C018F0000E18BEFF0E196EDE
:100EC0001A6EE9EC09F013C022F014C023F015C02B
:100ED00024F016C025F0090E2C6402D0070E2C2633
:100EE000300E2C2620C0D9FF21C0DAFF2CC0DFFF36
:100EF0002006D8A021062250231024102510D8B493
:100F00001200B9D71FC0D9FF20C0DAFFDF502C6E06
:100F10001F4A202A200E2C18D8B4F4D7090E2C18FA
:100F2000D8B4F0D7000E286E000E296E000E2A6E7F
:100F3000000E2B6E000E276E2D0E2C18D8A402D09A
:100F4000272A27D02B0E2C18D8A42BD022D028C08B
:100F500013F029C014F02AC015F02BC016F00A0EA9
:100F6000176E000E186E000E196E000E1A6E2AEC27
:100F70000BF02CC023F0D00E232623501324286E10
:100F8000000E1420296E000E15202A6E000E162069
:100F90002B6E1FC0D9FF20C0DAFFDF502C6E1F4A16
:100FA000202A2C507BEC0CF0D8B0D1D72750D8B4E5
:100FB0001AD028C023F029C024F02AC025F02BC065
:100FC00026F0231E241E251E261E232A000E242260
:100FD0002522262223C01FF024C020F025C021F0A6
:100FE00026C022F0120028C01FF029C020F02AC01D
:100FF00021F02BC022F01200020E3A18D8A402D021
:10100000000E3A6E190E136E000E146E31EC0CF0D9
:10101000E806D8A44FD0210E1918D8A415D03A0448
:10102000D8B412D0010E3A6E20EE29F01650D9260F
:101030001750DA22000EDF6E20EE28F01650D92667
:101040001750DA22000EDF6E3A04D8A42AD020EE20
:1010500028F01650D9261750DA22DF50186E185093
:10106000010DF3501624D96EF4501720DA6E19C012
:10107000DFFF20EE28F01650D9261750DA22DF2A9B
:1010800020EE28F01650D9261750DA22270EDF64FA
:1010900008D020EE28F01650D9261750DA22270E55
:1010A000DF6E3A04D8A406D02A0E1918D8A402D0AC
:1010B000020E3A6E3A501200B1EC0CF093989490F4
:1010C00094928A888B828B80000E146E0A0E136EA7
:1010D000E8EC0BF08A988B928B90000E146E0A0E3F
:1010E000136EE8EC0BF08A888B928B90000E146ED6
:1010F0000A0E136EE8EC0BF08A988B828B90000E30
:10110000146E0A0E136EE8EC0BF08A988B928B80AB
:10111000000E146E050E136EE8EC0BF0949E94987E
:101120009496949C000E0F01386F000E396F000EDC
:101130003A6F8B8C8B8E8B888B96000E146E050EFF
:10114000136EE8EC0BF092848A988B928B90000ED1
:101150000001A36F010E54EC09F055EC0BF08AEC82
:101160000CF0000E54EC09F083EC04F0F6D71FC02D
:1011700013F020C014F0230E156EFFEC0AF01FC010
:1011800013F020C014F0230E156EFFEC0AF01FC000
:1011900013F020C014F0210E156EFFEC0AF01FC0F2
:1011A00017F020C018F021C019F022C01AF02AEC64
:1011B0000AF01FC013F020C014F03B0E156EFFECB8
:1011C0000AF01FC017F020C018F023C019F024C087
:1011D0001AF02AEC0AF01FC013F020C014F03B0EE6
:1011E000156EFFEC0AF01FC017F020C018F025C0E4
:1011F00019F026C01AF02AEC0AF01FC013F020C024
:1012000014F02A0E156EFFEC0AF012006C9A060E0E
:10121000316E300EE82EFED7312EFCD700D06C8A0E
:101220006C9E000E3E6E20EE29F02F50D9263050D5
:10123000DA22000EDF6E20EE28F02F50D926305033
:10124000DA22000EDF6E0001B84BB92B1AD02FC086
:1012500027F030C028F045EC0CF012002FC02DF024
:1012600030C02EF07AEC0BF012002FC02DF030C001
:101270002EF09FEC0BF0000E0001B96F000EB86F5E
:101280001200B8C031F0B9C032F03250000AD8A410
:10129000F2D73150010AD8B4DAD7030AD8B4DED76E
:1012A000010AD8B4E2D7E7D7356E3504D8A40ED0FA
:1012B000C4EC0BF0000E0001E26F000EE36FBA0EFB
:1012C0002F6E000E306E06EC09F01200000E166E46
:1012D000010E176EFCEC07F03C6E11D0000E000101
:1012E0006C6F010E6D6FBA0E6E6F000E6F6F01ECBA
:1012F0000CF0E806D8A40DD0010E3D6E0AD03C508B
:10130000000AD8B406D0010AD8B403D0030AD8B46E
:10131000E5D7BA0E156E000E166EA1EC09F0346E0C
:1013200081A003D0000E3B6E12003B50D8A406D023
:10133000BA0E2F6E000E306E06EC09F0010E3B6EF9
:10134000120020EE28F01550D9261650DA2210EEA1
:1013500029F01550E1261650E222DE50E618D8A4F6
:1013600006D0010E196E000E6BEC0CF030D0000EA2
:10137000196E20EE29F01550D9261650DA22DF50CA
:10138000176E1750010DF3501524D96EF450162026
:10139000DA6EDF506BEC0CF0E806D8A418D020EE23
:1013A00029F01550D9261650DA22DF2A20EE29F02E
:1013B0001550D9261650DA22270EDF6408D020EE09
:1013C00029F01550D9261650DA22000EDF6E19507A
:1013D0001200000E1B6E000E1C6E000E1D6E000E25
:1013E0001E6E1750181019101A10D8B42AD0010EFA
:1013F0001F6E06D0D8901736183619361A361F2A9F
:101400001AAEF8D7D8901B361C361D361E3617502C
:10141000135C18501458195015581A501658D8A063
:1014200009D01750135E1850145A1950155A1A50F3
:10143000165A1B80D8901A321932183217321F2EC2
:10144000E1D71BC013F01CC014F01DC015F01EC066
:1014500016F01200000E1E6E000E1D6E1FD017C07B
:1014600013F018C014F01D5019241B6E1E501A20C2
:101470001C6E1BC0F6FF1CC0F7FFF86A050EF76470
:1014800003D00800F55005D0F6CFE1FFF7CFE2FF1B
:10149000E750156EFFEC0AF01D4A1E2A1D50192454
:1014A0001B6E1E501A201C6E1BC0F6FF1CC0F7FFDF
:1014B000F86A050EF76403D00800F55005D0F6CFA2
:1014C000E1FFF7CFE2FFE7500009D8B41200C7D719
:1014D0005A0EF66E190EF76E000EF86E00EEE4F07E
:1014E00010EE08F00900F5CFEEFFE550E150FAE10B
:1014F000680EF66E190EF76E000EF86E00EE48F0EC
:1015000010EE05F00900F5CFEEFFE550E150FAE1ED
:1015100001EE00F02A0EEE6AE806FDE100EEA4F00E
:10152000400EEE6AE806FDE100EE36F0120EEE6ABD
:10153000E806FDE14D904D92000EF86E00015CEF63
:1015400008F01750181019101A10D8B424D0010E32
:101550001B6E06D0D8901736183619361A361B2A45
:101560001AAEF8D71750135C185014581950155864
:101570001A501658D8A008D01750135E1850145A95
:101580001950155A1A50165AD8901A321932183260
:1015900017321B2EE7D713C013F014C014F015C078
:1015A00015F016C016F012001FC013F020C014F082
:1015B000230E156EFFEC0AF01FC013F020C014F0CC
:1015C000230E156EFFEC0AF01FC013F020C014F0BC
:1015D000210E156EFFEC0AF01FC017F020C018F0A6
:1015E00021C019F022C01AF02AEC0AF01FC013F033
:1015F00020C014F02A0E156EFFEC0AF0120020EE47
:1016000028F01350D9261450DA22DF50166E1650E7
:10161000010DF3501324D96EF4501420DA6E15C066
:10162000DFFF20EE28F01350D9261450DA22DF2AEB
:1016300020EE28F01350D9261450DA22270EDF644A
:10164000120020EE28F01350D9261450DA22000E92
:10165000DF6E1200000E1B6E000E1C6E000E1D6E63
:10166000000E1E6E13A008D017501B2618501C2207
:1016700019501D221A501E22D890173618361936C6
:101680001A36D89016321532143213321350141001
:1016900015101610D8A4E6D71BC013F01CC014F008
:1016A0001DC015F01EC016F0120080B40BD04250C1
:1016B000D8A40AD0010E426E81A802D08A9804D024
:1016C0008A8802D0000E426E80B60BD04150D8A45A
:1016D0000AD0010E416E82A002D08B9004D08B8084
:1016E00002D0000E416E4C50D8B402D08B92120042
:1016F0008B821200600E206E000E216EB4C022F0AC
:10170000B5C023F0B6C024F0B7C025F0000E276E98
:101710000A0E266E07EC07F02DC01FF02EC020F039
:10172000570E216E060E226E240E236E060E246EB8
:10173000600E256E000E266EB7EC08F01200600EEB
:10174000206E000E216EB0C022F0B1C023F0B2C0F6
:1017500024F0B3C025F0000E276E0A0E266E07ECAB
:1017600007F02DC01FF02EC020F0570E216E060E80
:10177000226E170E236E060E246E600E256E000E6E
:10178000266EB7EC08F01200929092829496949A8A
:10179000949C949E0F0138938B8C8B868B8A8B8EB6
:1017A0006C9A3991399339953997938093829384C0
:1017B00093966D9E6D8C6C9E6C9C6C9A6C886C5034
:1017C000F00B04096C6E000E696E69986C8A120049
:1017D000000E176E000E166E09D0340E156EF20E46
:1017E000E82EFED7152EFCD7164A172A1350165C82
:1017F0001750800A156E1450800A1558D8B0120080
:10180000ECD7700E196E000E1A6E6CC01BF06DC016
:101810001CF0B1EC05F0700E2F6E000E306E6EC035
:1018200031F06FC032F030EC03F00001A26FA25132
:1018300012001EC013F01FC014F020C015F021C00C
:1018400016F071EC06F013C022F014C023F0225001
:101850002310D8A402D0010E01D0000E246E245013
:101860001200000E156E6DA00CD013C0D9FF14C06D
:10187000DAFF6FCFDFFF010E156E6C9E000E3E6E1D
:1018800002D0000E156E1550120027C01FF028C0A0
:1018900020F0570E216E060E226E0D0E236E060EE0
:1018A000246E4B0E256E060E266EB7EC08F0120065
:1018B00013501502F3CF17F0F4CF18F0135016029F
:1018C000F350182614501502F350182617C013F0C1
:1018D00018C014F01200136E000E146E3E50D8A4FF
:1018E00006D013C06FFF010E3E6E010E01D0000E38
:1018F000146E14501200156E000E146E3A0E156020
:1019000005D02F0E156402D0010E146E14C013F012
:1019100013301200D59ED59CD59AD596D550F80B8C
:101920000109D56EF28AF28ED58E1200D39ED3882D
:10193000D38AD38C030ED312D298D296D2949B8E94
:101940009B9C120023C01FF024C020F04F0E216E7C
:10195000060E226ED4EC0AF01200FFFFFF7FFFFF9D
:0D196000FF7F96EC0CF01200010001010168
:020000040020DA
:08000000FFFFFFFFFFFFFFFF00
:020000040030CA
:0E000000FF081F3CFFBF81FF0FC00FE00F4045
:00000001FF
