:040000006DEF00F0B0
:100008004D82FACF01F0FBCF02F0E9CF03F0EACF3F
:1000180004F0E1CF05F0E2CF06F0D9CF07F0DACF50
:1000280008F0F3CF09F0F4CF0AF0F6CF0BF0F7CFD2
:100038000CF0F8CF0DF0F5CF0EF04DC00FF04EC01C
:1000480010F04FC011F050C012F0F294FC0ED76EB1
:10005800180ED66E010E00018D27000E8E238F23F9
:100068009023010E9127000E922393239423010ECF
:100078009527000E962397239823010E9927000EA3
:100088009A239B239C2312C050F011C04FF010C03C
:100098004EF00FC04DF00EC0F5FF0DC0F8FF0CC0BC
:1000A800F7FF0BC0F6FF0AC0F4FF09C0F3FF08C052
:1000B800DAFF07C0D9FF06C0E2FF05C0E1FF04C0B0
:1000C800EAFF03C0E9FF02C0FBFF01C0FAFF4D923F
:0600D80011006CEF0FF0B7
:100600000043616C6962726174696F6E0050535689
:10061000657273696F6E00456E5573656400566F41
:100620006C7473005761747473004C4544420052FB
:1006300065616400436F6E6600416D707300323215
:1006400032003333330034343400454E44005365B4
:0306500074000033
:10065400000E3B6E7CC01EF07DC01FF04A0E206E63
:10066400060E216ED0EC0FF0E806D8A403D0010EDC
:100674003B6ED1D07CC01EF07DC01FF04E0E206EAC
:10068400060E216ED0EC0FF0E806D8A438D00F0E79
:1006940000017C251E6E000E7D211F6E010E206E52
:1006A400060E216ED0EC0FF0E806D8B4B4D00F0ECD
:1006B40000017C251E6E000E7D211F6E170E206E1C
:1006C400060E216ED0EC0FF0E806D8A4A4D01E0EBE
:1006D40000017C251F6E000E7D21206E37EC07F093
:1006E4001FC03DF020C03EF021C03FF022C040F0CA
:1006F4007EC039F07FC03AF0C2EC0EF08CD07CC0E2
:100704001EF07DC01FF02F0E206E060E216ED0EC61
:100714000FF0E806D8B47FD07CC01EF07DC01FF077
:10072400340E206E060E216ED0EC0FF0E806D8A42D
:1007340072D00F0E00017C251E6E000E7D211F6EEF
:10074400240E206E060E216ED0EC0FF0E806D8A41D
:1007540007D07EC035F07FC036F0A2EC10F05BD03D
:100764000F0E00017C251E6E000E7D211F6E170EDC
:10077400206E060E216ED0EC0FF0E806D8A407D048
:100784007EC035F07FC036F0A2EC10F044D00F0EDE
:1007940000017C251E6E000E7D211F6E1E0E206E34
:1007A400060E216ED0EC0FF0E806D8A407D07EC068
:1007B40035F07FC036F0A2EC10F02DD00F0E000102
:1007C4007C251E6E000E7D211F6E390E206E060ED6
:1007D400216ED0EC0FF0E806D8A407D07EC035F027
:1007E4007FC036F0A2EC10F016D00F0E00017C256D
:1007F4001E6E000E7D211F6E0D0E206E060E216EE4
:10080400D0EC0FF0E806D8A406D07EC035F07FC047
:1008140036F0A2EC10F03B501200000E236E000ED6
:10082400226E000E216E000E206E21BE08D02150D3
:1008340005E1070E205CD8B082D001D080D020C062
:1008440013F021C014F0000E166E0F0E156E39EC65
:1008540010F013501924D96E14501A20DA6E000EB9
:10086400DF6E204A212A21BEEAD7215068E1E1D770
:10087400000E236E222A060E22645AD0060E226E21
:1008840057D020EE29F01B50D9261C50DA22DF5015
:100894001D6E1D50010DF3501B24D96EF4501C2005
:1008A400DA6E22500F0D19C01EF01AC01FF0F3505B
:1008B4001E26F4501F222350010DF3501E24E16E16
:1008C400F4501F20E26EDFCFE7FF232A0E0E2364CD
:1008D40002D00E0E236E22500F0D19C01DF01AC047
:1008E4001EF0F3501D26F4501E222350010DF35028
:1008F4001D24D96EF4501E20DA6E000EDF6E18D05F
:1009040020EE29F01B50D9261C50DA22DF501D6E30
:100914001D50010DF3501B24D96EF4501C20DA6EC7
:10092400DF50210AD8B404D01A0AD8B4A1D7A9D761
:1009340020EE29F01B50D9261C50DA22DF2A20EEA3
:1009440029F01B50D9261C50DA22DF501D6E1D5091
:10095400010DF3501B24D96EF4501C20DA6E2A0EBC
:10096400DE18D8B4120020EE29F01B50D9261C50F2
:10097400DA22280EDF60120020EE28F01B50D92660
:100984001C50DA2210EE29F01B50E1261C50E22202
:10099400DE50E618D8B4120020EE29F01B50D926F8
:1009A4001C50DA22DF501D6E1D50010DF3501B2424
:1009B400D96EF4501C20DA6E240EDE18D8B412005E
:1009C4009FD780B63ED04A50D8A43DD0000E226EA8
:1009D400000E216ECBEC10F0010E4A6E000E146E68
:1009E400000E136E85EC0FF013C02CF014C02DF024
:1009F40015C02EF016C02FF0000E146E000E136EEC
:100A0400E8EC0FF0000E146E020E136EE8EC0FF01B
:100A14002CC020F02DC021F02EC022F02FC023F0D6
:100A2400010E246EA8EC0CF020C045F021C046F065
:100A34002CC06AF12DC06BF12EC06CF12FC06DF18A
:100A440002D0000E4A6E80A402D080B858D049501B
:100A5400D8A457D0000E226E010E216ECBEC10F0FC
:100A6400010E496E000E146E010E136E85EC0FF02C
:100A740013C028F014C029F015C02AF016C02BF0BA
:100A8400000E146E010E136EE8EC0FF0000E146EDF
:100A9400020E136EE8EC0FF028C020F029C021F0FC
:100AA4002AC022F02BC023F0000E246EA8EC0CF018
:100AB40020C043F021C044F0800E01016E27970E40
:100AC4006F23060E7023000E71230ED0010E3D26F7
:100AD400000E3E223F224022A00E6E5F860E6F5B08
:100AE400010E705B000E715B7151F0E1A10E6E5D41
:100AF400860E6F59010E7059D8A003D0E7D7000EA7
:100B0400496E44BE0BD0F50E435C010E4458D8A088
:100B140005D043C09DF044C09EF004D045C09DF074
:100B240046C09EF00001000E9EBFFF0E9F6FA06F97
:100B34006AC120F06BC121F06CC122F06DC123F0B9
:100B44000BEC0BF01200000E1D6E000E1C6E000E5E
:100B54001B6E000E1A6E35D01C501324D96E1D5016
:100B64001420DA6E1C501524186E1D501620196EB0
:100B740018C0F6FF19C0F7FFDE500900F55CD8B0C5
:100B840005D0000E1B6E010E1A6E19D01C501324D2
:100B9400D96E1D501420DA6EDF50176E1C501524C8
:100BA400186E1D501620196E18C0F6FF19C0F7FFF5
:100BB4000800F550175CD8B002D01A681B681C4AAC
:100BC4001D2A1C501324D96E1D501420DA6EDF50D8
:100BD400D8B413D01C501524176E1D501620186E4F
:100BE40017C0F6FF18C0F7FF0800F5500009D8B485
:100BF40004D01A501B10D8B4AFD71C501324D96E8C
:100C04001D501420DA6EDF50D8A412D01C501524C5
:100C1400176E1D501620186E17C0F6FF18C0F7FF88
:100C24000800F5500009D8B403D01A681B681CD01A
:100C34001C501324D96E1D501420DA6EDF50D8B422
:100C440013D01C501524176E1D501620186E17C093
:100C5400F6FF18C0F7FF0800F5500009D8A404D027
:100C6400000E1B6E010E1A6E1AC013F01BC014F096
:100C74001200000E326E010E316E000E2E6E000E4A
:100C84002D6E000E306E000E2F6E0ED031502024CB
:100C9400D96E32502120DA6EDF50226E22502D267A
:100CA400000E2E22314A322A31502024D96E32507D
:100CB4002120DA6E240EDE18D8B412D0315020244C
:100CC400D96E32502120DA6E2A0EDE18D8B408D03C
:100CD40032BEDCD7325004E1280E315CD8A0D6D71E
:100CE400314A322A000E306E000E2F6E1AD0315067
:100CF4002024D96E32502120DA6E230E2F24E16E87
:100D0400000E3020E26EDFCFE7FF2F4A302A230E99
:100D14002F24D96E000E3020DA6E000EDF6E314AB9
:100D2400322A31502024D96E32502120DA6E2A0E14
:100D3400DE18D8B408D032BEDAD7325004E1280E17
:100D4400315CD8A0D4D7230E196E000E1A6E29EC8C
:100D540008F019C02AF01AC02BF02A502D1806E109
:100D64002B502E18D8A402D0010E01D0000E2C6EE8
:100D74002C50120022C028F023C029F024C02AF0ED
:100D840025C02BF028C013F029C014F02AC015F098
:100D94002BC016F026C017F027C018F0000E18BE9E
:100DA400FF0E196E1A6E2CEC0CF013C028F014C050
:100DB40029F015C02AF016C02BF0204A212A285009
:100DC40029102A102B10D8A4DDD720C0D9FF21C0A8
:100DD400DAFF000EDF6E2006D8A0210622C013F031
:100DE40023C014F024C015F025C016F026C017F057
:100DF40027C018F0000E18BEFF0E196E1A6E14EC00
:100E04000DF013502C6E22C013F023C014F024C034
:100E140015F025C016F026C017F027C018F0000EF4
:100E240018BEFF0E196E1A6E2CEC0CF013C022F0D3
:100E340014C023F015C024F016C025F0090E2C644C
:100E440002D0070E2C26300E2C2620C0D9FF21C03C
:100E5400DAFF2CC0DFFF2006D8A021062250231081
:100E640024102510D8B41200B9D71FC0D9FF20C050
:100E7400DAFFDF502C6E1F4A202A200E2C18D8B41B
:100E8400F4D7090E2C18D8B4F0D7000E286E000E33
:100E9400296E000E2A6E000E2B6E000E276E2D0E8C
:100EA4002C18D8A402D0272A27D02B0E2C18D8A46B
:100EB4002BD022D028C013F029C014F02AC015F07A
:100EC4002BC016F00A0E176E000E186E000E196E67
:100ED400000E1A6ED4EC0DF02CC023F0D00E232695
:100EE40023501324286E000E1420296E000E1520A2
:100EF4002A6E000E16202B6E1FC0D9FF20C0DAFF09
:100F0400DF502C6E1F4A202A2C507AEC10F0D8B0F7
:100F1400D1D72750D8B41AD028C023F029C024F040
:100F24002AC025F02BC026F0231E241E251E261EB3
:100F3400232A000E24222522262223C01FF024C0A7
:100F440020F025C021F026C022F0120028C01FF096
:100F540029C020F02AC021F02BC022F0120096EC08
:100F640010F0ADEC10F0BDEC10F06BEC10F077EC81
:100F74000EF047EC0DF0FDEC0FF0000E00018C6F4D
:100F8400000E8B6F8CBF06D08C511EE1050E8B5D5D
:100F9400D8B01AD05CEC10F0340E0001866FF10E5C
:100FA400E82EFED7862FFCD700D06BEC10F0340E61
:100FB4000001866FF10EE82EFED7862FFCD700D0F5
:100FC40000018B4B8C2BDED7C7EC10F0000E246E87
:100FD400640E236E89EC10F0E3EC04F0C3EC10F023
:100FE400000E146E030E136E85EC0FF013C087F021
:100FF40014C088F015C089F016C08AF087C013F0B9
:1010040088C014F089C015F08AC016F0F40E176E6B
:10101400010E186E000E196E000E1A6E14EC0DF00F
:101024001350141015101610D8A40DD00001A1519E
:10103400D8A4D2D7010EA16F000E226E010E216E2C
:10104400B6EC10F0C9D7000E0001A16FC5D702D0CD
:10105400194A1A2A19C0D9FF1AC0DAFF200EDE185D
:10106400D8B4F6D719C0D9FF1AC0DAFF090EDE18B2
:10107400D8B4EED7000E1F6E000E1E6E000E1D6E4D
:1010840019C0D9FF1AC0DAFF2D0EDE18D8A402D079
:101094001D2A24D019C0D9FF1AC0DAFF2B0EDE187E
:1010A400D8A41ED01BD01EC013F01FC014F0000E15
:1010B400166E0A0E156E39EC10F019C0D9FF1AC05D
:1010C400DAFFDF501B6E1C6A13501B2614501C22BF
:1010D400D00E1B241E6EFF0E1C201F6E194A1A2AE6
:1010E40019C0D9FF1AC0DAFFDF507AEC10F0D8B07B
:1010F400DAD71D50D8B40DD01EC01BF01FC01CF091
:101104001B1E1C1E1B4A1C2A1BC019F01CC01AF0F3
:1011140012001EC019F01FC01AF012002FC013F0E5
:1011240030C014F0230E156E79EC0DF02FC013F0BF
:1011340030C014F0210E156E79EC0DF0000E386EEF
:10114400000E376E2FC017F030C018F031C019F000
:1011540032C01AF058EC0BF01750372618503822CA
:101164002FC013F030C014F03B0E156E79EC0DF067
:1011740013503726145038222FC017F030C018F0FF
:1011840033C019F034C01AF058EC0BF0175037265E
:10119400185038222FC013F030C014F03B0E156ED7
:1011A40079EC0DF013503726145038222FC017F065
:1011B40030C018F035C019F036C01AF058EC0BF0F6
:1011C40017503726185038222FC02BF030C02CF07F
:1011D40037C02DF038C02EF0FFEC0DF01200020ED7
:1011E4004B18D8A402D0000E4B6E190E136E000ECD
:1011F400146E12EC10F0E806D8A44FD0210E191882
:10120400D8A415D04B04D8B412D0010E4B6E20EEE6
:1012140029F01650D9261750DA22000EDF6E20EE80
:1012240028F01650D9261750DA22000EDF6E4B0430
:10123400D8A42AD020EE28F01650D9261750DA2246
:10124400DF50186E1850010DF3501624D96EF45067
:101254001720DA6E19C0DFFF20EE28F01650D926C9
:101264001750DA22DF2A20EE28F01650D92617501C
:10127400DA22270EDF6408D020EE28F01650D92693
:101284001750DA22270EDF6E4B04D8A406D02A0E9C
:101294001918D8A402D0020E4B6E4B5012001FC076
:1012A40013F020C014F0000E166E0A0E156EEAEC50
:1012B4000BF013C021F014C022F0000E1A6E000EC1
:1012C400196E000E1C6E000E1B6E000E1E6E000EBC
:1012D4001D6E4DEC0FF021C013F022C014F09EECF3
:1012E4000FF0000E1A6E010E196E000E1C6E000E29
:1012F4001B6E000E1E6E000E1D6E4DEC0FF021C015
:1013040013F022C014F09EEC0FF0000E1A6E000EC3
:10131400196E000E1C6E010E1B6E000E1E6E000E6A
:101324001D6E4DEC0FF021C013F022C014F09EECA2
:101334000FF0000E1A6E000E196E000E1C6E000ED9
:101344001B6E000E1E6E010E1D6E4DEC0FF021C0C3
:1013540013F022C014F09EEC0FF012001FC013F023
:1013640020C014F0000E166E0A0E156EEAEC0BF097
:1013740013C021F014C022F0000E1A6E000E196E74
:10138400000E1C6E000E1B6E000E1E6E010E1D6EF6
:101394004DEC0FF021C013F022C014F09EEC0FF0BE
:1013A400000E1A6E000E196E000E1C6E010E1B6EDE
:1013B400000E1E6E000E1D6E4DEC0FF021C013F0DA
:1013C40022C014F09EEC0FF0000E1A6E010E196E7E
:1013D400000E1C6E000E1B6E000E1E6E000E1D6EA7
:1013E4004DEC0FF021C013F022C014F09EEC0FF06E
:1013F400000E1A6E000E196E000E1C6E000E1B6E8F
:10140400000E1E6E000E1D6E4DEC0FF021C013F089
:1014140022C014F09EEC0FF012000001856F000151
:101424008505D8A40ED0E7EC0EF0000E01019A6FEA
:10143400000E9B6F720E3B6E010E3C6EBDEC0AF00B
:1014440012009C0E166E010E176EF1EC08F00001EE
:10145400A36F1BD09C0E206E010E216E3BEC06F098
:10146400E806D8A41CD09C0E0001806F010E816F89
:10147400720E826F010E836FB7EC0FF0E806D8A4EA
:101484000ED0010E0001A46F0AD0A351000AD8B4F3
:1014940006D0010AD8B403D0030AD8B4DBD7720E3D
:1014A400156E010E166EA2EC0BF00001846F81A084
:1014B40003D0000EA26F1200A251D8A406D0720E5F
:1014C4003B6E010E3C6EBDEC0AF0010E0001A26FF2
:1014D40012001CC020F01DC021F020C013F021C058
:1014E40014F01EC015F01FC016F028EC0EF013C047
:1014F40020F014C021F01A4A1B2A20502110D8A42D
:10150400ECD71AC0D9FF1BC0DAFF000EDF6E1A0633
:10151400D8A01B061CC013F01DC014F01EC015F08B
:101524001FC016F02CEC0FF01350226E1CC013F0E9
:101534001DC014F01EC015F01FC016F028EC0EF0EC
:1015440013C01CF014C01DF0090E226402D0070E53
:101554002226300E22261AC0D9FF1BC0DAFF22C071
:10156400DFFF1A06D8A01B061C501D10D8A4D2D722
:101574001A4A1B2A12006C9A060E00017C6F300E68
:10158400E82EFED77C2FFCD700F06C8A6C9E000EF0
:101594004C6E20EE29F03B50D9263C50DA22000E46
:1015A400DF6E20EE28F03B50D9263C50DA22000EA4
:1015B400DF6E474A482A19D03BC039F03CC03AF0A4
:1015C40026EC10F012003BC039F03CC03AF09DEC20
:1015D4000EF012003BC039F03CC03AF0C2EC0EF001
:1015E400000E486E000E476E120047C07CF048C0E3
:1015F4007DF000017D51000AD8A4F2D77C51010A84
:10160400D8B4DAD7030AD8B4DED7010AD8B4E2D7FB
:10161400E7D7000E146E020E136E85EC0FF013C0A4
:1016240024F014C025F015C026F016C027F027506A
:101634000EE1910E245C5F0E2558010E2658D8B099
:1016440006D02050211022102310D8A40AD0000E56
:1016540000019D6F000E9E6F000E9F6F000EA06F25
:1016640012002450205C255021582650225827501F
:101674002358D8B01200E00E136ED40E146E0E0E62
:10168400156E000E166E24C017F025C018F026C083
:1016940019F027C01AF02CEC0CF013C09DF014C004
:1016A4009EF015C09FF016C0A0F01200000E1E6E32
:1016B400000E1D6E000E206E000E1F6E23D017C08C
:1016C40013F018C014F01F5019241B6E20501A2058
:1016D4001C6E1BC0F6FF1CC0F7FFF86A050EF7640A
:1016E40003D00800F55005D0F6CFE1FFF7CFE2FFB5
:1016F400E750156E79EC0DF013501D2614501E2280
:101704001F4A202A1F5019241B6E20501A201C6EB9
:101714001BC0F6FF1CC0F7FFF86A050EF76403D080
:101724000800F55005D0F6CFE1FFF7CFE2FFE75010
:101734000009D8A4C4D71DC017F01EC018F01200A9
:1017440020EE28F01550D9261650DA2210EE29F092
:101754001550E1261650E222DE50E618D8A406D031
:10176400010E196E000E4CEC10F030D0000E196E04
:1017740020EE29F01550D9261650DA22DF50176EC4
:101784001750010DF3501524D96EF4501620DA6E5B
:10179400DF504CEC10F0E806D8A418D020EE29F065
:1017A4001550D9261650DA22DF2A20EE29F01550DA
:1017B400D9261650DA22270EDF6408D020EE29F04D
:1017C4001550D9261650DA22000EDF6E1950120079
:1017D400000E186E16AE06D0156C161ED8B0162A5A
:1017E400010E186E14AE06D0136C141ED8B0142A51
:1017F400010E181A000E1A6E000E196E15501610EE
:10180400D8B41CD0010E176E04D0D89015361636F5
:10181400172A16AEFAD7D89019361A361550135C13
:1018240016501458D8A005D01550135E1650145AEB
:101834001980D89016321532172EEDD71850D8B417
:1018440004D0196C1A1ED8B01A2A19C013F01AC081
:1018540014F01200000E1B6E000E1C6E000E1D6EA6
:10186400000E1E6E1750181019101A10D8B42AD072
:10187400010E1F6E06D0D8901736183619361A3650
:101884001F2A1AAEF8D7D8901B361C361D361E36C2
:101894001750135C18501458195015581A501658EC
:1018A400D8A009D01750135E1850145A1950155A5D
:1018B4001A50165A1B80D8901A321932183217321D
:1018C4001F2EE1D71BC013F01CC014F01DC015F06F
:1018D4001EC016F0120011D081A80DD009D01B50E3
:1018E4001F6E206A1CD082A206D002D082A003D030
:1018F4001B6A1B2AF4D71B6AF2D719C01BF01AC043
:101904001CF01C50000AD8A40AD01B50010AD8B4F9
:10191400E3D7030AD8B4E7D7010AD8B4E7D71F50EE
:101924002010D8A404D0000E1E6E010E03D0000EA9
:101934001E6E000E1D6E19C013F01AC014F01DC0E7
:1019440015F01EC016F051EC0EF012002404D8A4B9
:1019540013D0E00E136ED40E146E0E0E156E000E20
:10196400166E20C017F021C018F022C019F023C051
:101974001AF02CEC0CF012D0E00E136ED40E146E90
:101984000E0E156E000E166E20C017F021C018F052
:1019940022C019F023C01AF02CEC0CF013C025F06F
:1019A40014C026F025C020F026C021F0000E21BE70
:1019B400FF0E226E236E1200949C949E949894962B
:1019C4008B9E8B988B981A0E186EF80EE82EFED705
:1019D400182EFCD700D08B9C1A0E186EF80EE82E29
:1019E400FED7182EFCD700D08B9E8B988B981A0E9E
:1019F400186EF80EE82EFED7182EFCD700D08B8E6A
:101A04008B888B881A0E186EF80EE82EFED7182EC7
:101A1400FCD700D08B8C000E146E0A0E136E9EEC55
:101A24000FF012001750181019101A10D8B424D03F
:101A3400010E1B6E06D0D8901736183619361A3692
:101A44001B2A1AAEF8D71750135C185014581950A3
:101A540015581A501658D8A008D01750135E1850AD
:101A6400145A1950155A1A50165AD8901A32193253
:101A7400183217321B2EE7D713C013F014C014F01A
:101A840015C015F016C016F01200D59ED59CD59A37
:101A9400D596D550F80B0109D56EF28AF28ED58E03
:101AA400000E00018D6F000E8E6F000E8F6F000E02
:101AB400906F000E916F000E926F000E936F000EE8
:101AC400946F000E956F000E966F000E976F000EC8
:101AD400986F000E996F000E9A6F000E9B6F000EA8
:101AE4009C6FF294FC0ED76E180ED66E120020EE88
:101AF40028F01350D9261450DA22DF50166E1650EF
:101B0400010DF3501324D96EF4501420DA6E15C06D
:101B1400DFFF20EE28F01350D9261450DA22DF2AF2
:101B240020EE28F01350D9261450DA22270EDF6451
:101B340008D020EE28F01350D9261450DA22000ED3
:101B4400DF6E15C013F0146A12002FC013F030C0FA
:101B540014F0230E156E79EC0DF02FC013F030C085
:101B640014F0210E156E79EC0DF0000E346E000E9B
:101B7400336E2FC017F030C018F031C019F032C0E6
:101B84001AF058EC0BF017503326185034222FC09B
:101B94002BF030C02CF033C02DF034C02EF0FFEC0D
:101BA4000DF01200000E1B6E000E1C6E000E1D6E5A
:101BB400000E1E6E13A008D017501B2618501C22AE
:101BC40019501D221A501E22D8901736183619366D
:101BD4001A36D890163215321432133213501410A8
:101BE40015101610D8A4E6D71BC013F01CC014F0AF
:101BF4001DC015F01EC016F012002BC013F02CC02F
:101C040014F0240E156E79EC0DF0600E236E000EA8
:101C1400246E2DC025F02EC026F0000E286E0A0E6C
:101C2400276E0BEC0FF02BC017F02CC018F0600ED1
:101C3400196E000E1A6E58EC0BF02BC013F02CC06A
:101C440014F02A0E156E79EC0DF01200000E196EC8
:101C5400000E186E15501610D8B41CD0010E176E55
:101C640004D0D89015361636172A16AEFAD7D8905F
:101C7400183619361550135C16501458D8A005D0D0
:101C84001550135E1650145A1880D8901632153217
:101C9400172EEDD718C013F019C014F0120012D08B
:101CA40015B002D08A9801D08A88120015B002D0EB
:101CB4008B9201D08B82120015B002D08B9001D090
:101CC4008B80120013C017F014C018F01850000ACB
:101CD400D8A412001750010AD8B4E2D7030AD8B422
:101CE400E5D7010AD8A41200E7D7000EF26E000E61
:101CF400F16E000EF06ED09E000E9E6E000EA16E70
:101D0400000EA46E000E7B6E000E7E6E000E9D6EA5
:101D1400000EA06E000EA36E000E7A6E000E7D6E95
:101D2400000E9F6E000EA26E000EA56E000E7C6E5D
:101D3400000E7F6E1200700E206E000E216E9DC08C
:101D440022F09EC023F09FC024F0A0C025F0000E16
:101D5400276E0A0E266EBCEC06F039C02FF03AC08E
:101D640030F04E0E316E060E326E240E336E060EB9
:101D7400346E700E356E000E366E90EC08F0120064
:101D8400700E206E000E216E3DC022F03EC023F086
:101D94003FC024F040C025F0000E276E0A0E266EC8
:101DA400BCEC06F039C02FF03AC030F04E0E316E64
:101DB400060E326E170E336E060E346E700E356ECE
:101DC400000E366E90EC08F0120092909282949677
:101DD400949A949C949E0F0138938B8C8B868B8A57
:101DE4008B8E6C9A39913993399539979380938274
:101DF400938493966D9E6D8C6C9E6C9C6C9A6C888F
:101E04006C50F00B04096C6E000E696E69986C8A54
:101E1400120023C029F024C02AF026AE0CD023C01F
:101E2400D9FF24C0DAFF2D0EDF6E234A242A256C45
:101E3400261ED8B0262A23C01AF024C01BF025C0C1
:101E44001CF026C01DF027C01EF028C01FF06BEC4C
:101E54000AF0120015501610D8B418D0010E176EDF
:101E640004D0D89015361636172A16AEFAD7155060
:101E7400135C16501458D8A004D01550135E165095
:101E8400145AD89016321532172EF1D713C013F006
:101E940014C014F01200000E146E010E136E19C05B
:101EA40015F01AC016F051EC0EF0000E146E020E6E
:101EB400136E1BC015F01CC016F051EC0EF0000E92
:101EC400146E030E136E1DC015F01EC016F051ECF7
:101ED4000EF0120001EE6AF05C0EEE6AE806FDE117
:101EE40000EE8DF0180EEE6AE806FDE100EE3DF01E
:101EF400100EEE6AE806FDE14D904D92000EF86E6C
:101F04000001B1EF07F08D0E176E000E186ED89019
:101F14001334D96E1434DA6ED890D936DA361750B1
:101F2400D9261850DA22DECF13F0DECF14F0DECF3C
:101F340015F0DECF16F01200000E176E000E166EAE
:101F440009D0340E156EF20EE82EFED7152EFCD7EE
:101F5400164A172A1350165C1750800A156E14502F
:101F6400800A1558D8B01200ECD7000E196E010E75
:101F74001A6E80C01BF081C01CF00FEC04F0000E40
:101F840000017C6F010E7D6F82C07EF083C07FF004
:101F94002AEC03F00101696F695112001EC013F0AD
:101FA4001FC014F020C015F021C016F0A5EC05F0F8
:101FB40013C022F014C023F022502310D8A402D05E
:101FC400010E01D0000E246E245012008D0E156EE9
:101FD400000E166ED8901334D96E1434DA6ED8907D
:101FE400D936DA361550D9261650DA22DE6ADE6A78
:101FF400DE6ADD6A1200928692849288000E0101E4
:102004006E6F000E6F6F000E706F000E716F000E1A
:10201400146E640E136E9EEC0FF0DEEC0CF01200E6
:10202400000E156E6DA00CD013C0D9FF14C0DAFFDA
:102034006FCFDFFF010E156E6C9E000E4C6E02D04A
:10204400000E156E1550120039C02FF03AC030F052
:102054004E0E316E060E326E0D0E336E060E346E5B
:10206400460E356E060E366E90EC08F012001350D4
:102074001502F3CF17F0F4CF18F013501602F350F3
:10208400182614501502F350182617C013F018C060
:1020940014F01200136E000E146E4C50D8A406D027
:1020A40013C06FFF010E4C6E010E01D0000E146EB2
:1020B40014501200000E1A6E010E196E000E1C6EE2
:1020C400010E1B6E000E1E6E010E1D6E4DEC0FF008
:1020D4001200000E1A6E000E196E000E1C6E000E19
:1020E4001B6E000E1E6E000E1D6E4DEC0FF01200E6
:1020F400156E000E146E3A0E156005D02F0E156481
:1021040002D0010E146E14C013F01330120023C059
:102114001FF024C020F051EC09F023C01FF024C0AC
:1021240020F0B0EC09F01200D39ED388D38AD38C6C
:10213400030ED312D298D296D2949B8E9B9C1200FB
:1021440035C02FF036C030F04A0E316E060E326EB6
:10215400A7EC0DF01200C290000E0F01386F000EB4
:10216400396F000E3A6F120021C019F022C01AF024
:102174006DEC0CF012009398949294906BEC10F028
:102184001200000E0FEC0AF01200010E0FEC0AF020
:042194001200120023
:020000040020DA
:08000000FFFFFFFFFFFFFFFF00
:020000040030CA
:0E000000FF081F3CFFBF81FF0FC00FE00F4045
:00000001FF
